{
  "_format": "hh-sol-artifact-1",
  "contractName": "StringNFT",
  "sourceName": "contracts/_String.sol",
  "abi": [
    {
      "inputs": [],
      "stateMutability": "nonpayable",
      "type": "constructor"
    },
    {
      "inputs": [],
      "name": "CompanyDoesNotExist",
      "type": "error"
    },
    {
      "inputs": [],
      "name": "MintTooMuchError",
      "type": "error"
    },
    {
      "inputs": [],
      "name": "NoTokenFound",
      "type": "error"
    },
    {
      "inputs": [],
      "name": "NotYourToken",
      "type": "error"
    },
    {
      "anonymous": false,
      "inputs": [
        {
          "indexed": true,
          "internalType": "address",
          "name": "owner",
          "type": "address"
        },
        {
          "indexed": true,
          "internalType": "address",
          "name": "approved",
          "type": "address"
        },
        {
          "indexed": true,
          "internalType": "uint256",
          "name": "tokenId",
          "type": "uint256"
        }
      ],
      "name": "Approval",
      "type": "event"
    },
    {
      "anonymous": false,
      "inputs": [
        {
          "indexed": true,
          "internalType": "address",
          "name": "owner",
          "type": "address"
        },
        {
          "indexed": true,
          "internalType": "address",
          "name": "operator",
          "type": "address"
        },
        {
          "indexed": false,
          "internalType": "bool",
          "name": "approved",
          "type": "bool"
        }
      ],
      "name": "ApprovalForAll",
      "type": "event"
    },
    {
      "anonymous": false,
      "inputs": [
        {
          "indexed": true,
          "internalType": "uint256",
          "name": "companyId",
          "type": "uint256"
        },
        {
          "indexed": false,
          "internalType": "string",
          "name": "name",
          "type": "string"
        }
      ],
      "name": "CompanyAdded",
      "type": "event"
    },
    {
      "anonymous": false,
      "inputs": [
        {
          "indexed": true,
          "internalType": "uint256",
          "name": "companyId",
          "type": "uint256"
        }
      ],
      "name": "CompanyRemoved",
      "type": "event"
    },
    {
      "anonymous": false,
      "inputs": [
        {
          "indexed": true,
          "internalType": "uint256",
          "name": "companyId",
          "type": "uint256"
        },
        {
          "indexed": true,
          "internalType": "address",
          "name": "employee",
          "type": "address"
        }
      ],
      "name": "EmployeeAdded",
      "type": "event"
    },
    {
      "anonymous": false,
      "inputs": [
        {
          "indexed": true,
          "internalType": "uint256",
          "name": "companyId",
          "type": "uint256"
        },
        {
          "indexed": true,
          "internalType": "address",
          "name": "employee",
          "type": "address"
        }
      ],
      "name": "EmployeeRemoved",
      "type": "event"
    },
    {
      "anonymous": false,
      "inputs": [
        {
          "indexed": true,
          "internalType": "address",
          "name": "previousOwner",
          "type": "address"
        },
        {
          "indexed": true,
          "internalType": "address",
          "name": "newOwner",
          "type": "address"
        }
      ],
      "name": "OwnershipTransferred",
      "type": "event"
    },
    {
      "anonymous": false,
      "inputs": [
        {
          "indexed": true,
          "internalType": "uint256",
          "name": "companyId",
          "type": "uint256"
        },
        {
          "indexed": true,
          "internalType": "uint256",
          "name": "productId",
          "type": "uint256"
        },
        {
          "indexed": false,
          "internalType": "string",
          "name": "name",
          "type": "string"
        }
      ],
      "name": "ProductAdded",
      "type": "event"
    },
    {
      "anonymous": false,
      "inputs": [
        {
          "indexed": true,
          "internalType": "uint256",
          "name": "companyId",
          "type": "uint256"
        },
        {
          "indexed": true,
          "internalType": "uint256",
          "name": "productId",
          "type": "uint256"
        }
      ],
      "name": "ProductRemoved",
      "type": "event"
    },
    {
      "anonymous": false,
      "inputs": [
        {
          "indexed": true,
          "internalType": "uint256",
          "name": "companyId",
          "type": "uint256"
        },
        {
          "indexed": true,
          "internalType": "uint256",
          "name": "productId",
          "type": "uint256"
        },
        {
          "indexed": true,
          "internalType": "uint256",
          "name": "tokenId",
          "type": "uint256"
        },
        {
          "indexed": false,
          "internalType": "address",
          "name": "to",
          "type": "address"
        }
      ],
      "name": "TokenMinted",
      "type": "event"
    },
    {
      "anonymous": false,
      "inputs": [
        {
          "indexed": true,
          "internalType": "uint256",
          "name": "tokenId",
          "type": "uint256"
        },
        {
          "indexed": true,
          "internalType": "address",
          "name": "from",
          "type": "address"
        },
        {
          "indexed": true,
          "internalType": "address",
          "name": "to",
          "type": "address"
        }
      ],
      "name": "TokenTransferred",
      "type": "event"
    },
    {
      "anonymous": false,
      "inputs": [
        {
          "indexed": true,
          "internalType": "address",
          "name": "from",
          "type": "address"
        },
        {
          "indexed": true,
          "internalType": "address",
          "name": "to",
          "type": "address"
        },
        {
          "indexed": true,
          "internalType": "uint256",
          "name": "tokenId",
          "type": "uint256"
        }
      ],
      "name": "Transfer",
      "type": "event"
    },
    {
      "inputs": [],
      "name": "MAX_MINT_AMOUNT",
      "outputs": [
        {
          "internalType": "uint16",
          "name": "",
          "type": "uint16"
        }
      ],
      "stateMutability": "view",
      "type": "function"
    },
    {
      "inputs": [
        {
          "internalType": "string",
          "name": "_name",
          "type": "string"
        }
      ],
      "name": "addCompany",
      "outputs": [],
      "stateMutability": "nonpayable",
      "type": "function"
    },
    {
      "inputs": [
        {
          "internalType": "uint256",
          "name": "_companyId",
          "type": "uint256"
        },
        {
          "internalType": "address",
          "name": "_employee",
          "type": "address"
        },
        {
          "components": [
            {
              "internalType": "bool",
              "name": "canMint",
              "type": "bool"
            },
            {
              "internalType": "bool",
              "name": "canTransfer",
              "type": "bool"
            },
            {
              "internalType": "bool",
              "name": "canDefine",
              "type": "bool"
            },
            {
              "internalType": "bool",
              "name": "canAuthorize",
              "type": "bool"
            }
          ],
          "internalType": "struct StringModel.Role",
          "name": "_permissions",
          "type": "tuple"
        }
      ],
      "name": "addEmployee",
      "outputs": [],
      "stateMutability": "nonpayable",
      "type": "function"
    },
    {
      "inputs": [
        {
          "internalType": "uint256",
          "name": "_companyId",
          "type": "uint256"
        },
        {
          "internalType": "string",
          "name": "_name",
          "type": "string"
        },
        {
          "internalType": "string",
          "name": "_description",
          "type": "string"
        },
        {
          "internalType": "string",
          "name": "_manufacturer",
          "type": "string"
        },
        {
          "internalType": "string",
          "name": "_category",
          "type": "string"
        },
        {
          "internalType": "uint256",
          "name": "_expireDate",
          "type": "uint256"
        }
      ],
      "name": "addProduct",
      "outputs": [],
      "stateMutability": "nonpayable",
      "type": "function"
    },
    {
      "inputs": [
        {
          "internalType": "address",
          "name": "to",
          "type": "address"
        },
        {
          "internalType": "uint256",
          "name": "tokenId",
          "type": "uint256"
        }
      ],
      "name": "approve",
      "outputs": [],
      "stateMutability": "nonpayable",
      "type": "function"
    },
    {
      "inputs": [
        {
          "internalType": "address",
          "name": "owner",
          "type": "address"
        }
      ],
      "name": "balanceOf",
      "outputs": [
        {
          "internalType": "uint256",
          "name": "",
          "type": "uint256"
        }
      ],
      "stateMutability": "view",
      "type": "function"
    },
    {
      "inputs": [
        {
          "internalType": "address",
          "name": "to",
          "type": "address"
        },
        {
          "internalType": "uint256[]",
          "name": "tokenIds",
          "type": "uint256[]"
        }
      ],
      "name": "bulkTransfer",
      "outputs": [],
      "stateMutability": "nonpayable",
      "type": "function"
    },
    {
      "inputs": [
        {
          "internalType": "uint256",
          "name": "",
          "type": "uint256"
        }
      ],
      "name": "companies",
      "outputs": [
        {
          "internalType": "uint256",
          "name": "initialized",
          "type": "uint256"
        },
        {
          "internalType": "string",
          "name": "name",
          "type": "string"
        },
        {
          "internalType": "uint256",
          "name": "productCount",
          "type": "uint256"
        }
      ],
      "stateMutability": "view",
      "type": "function"
    },
    {
      "inputs": [],
      "name": "companyCounter",
      "outputs": [
        {
          "internalType": "uint256",
          "name": "",
          "type": "uint256"
        }
      ],
      "stateMutability": "view",
      "type": "function"
    },
    {
      "inputs": [
        {
          "internalType": "uint256",
          "name": "_companyId",
          "type": "uint256"
        }
      ],
      "name": "getAllEmployees",
      "outputs": [
        {
          "components": [
            {
              "components": [
                {
                  "internalType": "bool",
                  "name": "canMint",
                  "type": "bool"
                },
                {
                  "internalType": "bool",
                  "name": "canTransfer",
                  "type": "bool"
                },
                {
                  "internalType": "bool",
                  "name": "canDefine",
                  "type": "bool"
                },
                {
                  "internalType": "bool",
                  "name": "canAuthorize",
                  "type": "bool"
                }
              ],
              "internalType": "struct StringModel.Role",
              "name": "permissions",
              "type": "tuple"
            },
            {
              "internalType": "address",
              "name": "employeeAddress",
              "type": "address"
            },
            {
              "internalType": "uint256",
              "name": "companyId",
              "type": "uint256"
            }
          ],
          "internalType": "struct StringModel.Employee[]",
          "name": "",
          "type": "tuple[]"
        }
      ],
      "stateMutability": "view",
      "type": "function"
    },
    {
      "inputs": [
        {
          "internalType": "uint256",
          "name": "companyId",
          "type": "uint256"
        }
      ],
      "name": "getAllProducts",
      "outputs": [
        {
          "components": [
            {
              "internalType": "string",
              "name": "name",
              "type": "string"
            },
            {
              "internalType": "string",
              "name": "description",
              "type": "string"
            },
            {
              "internalType": "string",
              "name": "manufacturer",
              "type": "string"
            },
            {
              "internalType": "string",
              "name": "category",
              "type": "string"
            },
            {
              "internalType": "uint256[]",
              "name": "productTokens",
              "type": "uint256[]"
            },
            {
              "internalType": "uint256",
              "name": "expireDate",
              "type": "uint256"
            },
            {
              "internalType": "bool",
              "name": "exists",
              "type": "bool"
            }
          ],
          "internalType": "struct StringModel.Product[]",
          "name": "",
          "type": "tuple[]"
        }
      ],
      "stateMutability": "view",
      "type": "function"
    },
    {
      "inputs": [
        {
          "internalType": "uint256",
          "name": "tokenId",
          "type": "uint256"
        }
      ],
      "name": "getApproved",
      "outputs": [
        {
          "internalType": "address",
          "name": "",
          "type": "address"
        }
      ],
      "stateMutability": "view",
      "type": "function"
    },
    {
      "inputs": [
        {
          "internalType": "uint256",
          "name": "_companyId",
          "type": "uint256"
        },
        {
          "internalType": "uint256",
          "name": "_productId",
          "type": "uint256"
        }
      ],
      "name": "getProduct",
      "outputs": [
        {
          "components": [
            {
              "internalType": "string",
              "name": "name",
              "type": "string"
            },
            {
              "internalType": "string",
              "name": "description",
              "type": "string"
            },
            {
              "internalType": "string",
              "name": "manufacturer",
              "type": "string"
            },
            {
              "internalType": "string",
              "name": "category",
              "type": "string"
            },
            {
              "internalType": "uint256[]",
              "name": "productTokens",
              "type": "uint256[]"
            },
            {
              "internalType": "uint256",
              "name": "expireDate",
              "type": "uint256"
            },
            {
              "internalType": "bool",
              "name": "exists",
              "type": "bool"
            }
          ],
          "internalType": "struct StringModel.Product",
          "name": "",
          "type": "tuple"
        }
      ],
      "stateMutability": "view",
      "type": "function"
    },
    {
      "inputs": [
        {
          "internalType": "uint256",
          "name": "_companyId",
          "type": "uint256"
        }
      ],
      "name": "getProductCount",
      "outputs": [
        {
          "internalType": "uint256",
          "name": "",
          "type": "uint256"
        }
      ],
      "stateMutability": "view",
      "type": "function"
    },
    {
      "inputs": [
        {
          "internalType": "address",
          "name": "owner",
          "type": "address"
        },
        {
          "internalType": "address",
          "name": "operator",
          "type": "address"
        }
      ],
      "name": "isApprovedForAll",
      "outputs": [
        {
          "internalType": "bool",
          "name": "",
          "type": "bool"
        }
      ],
      "stateMutability": "view",
      "type": "function"
    },
    {
      "inputs": [
        {
          "internalType": "uint256",
          "name": "_companyId",
          "type": "uint256"
        },
        {
          "internalType": "uint256",
          "name": "_productId",
          "type": "uint256"
        }
      ],
      "name": "mint",
      "outputs": [],
      "stateMutability": "nonpayable",
      "type": "function"
    },
    {
      "inputs": [
        {
          "internalType": "uint256",
          "name": "_companyId",
          "type": "uint256"
        },
        {
          "internalType": "uint256",
          "name": "_productId",
          "type": "uint256"
        },
        {
          "internalType": "uint16",
          "name": "amount",
          "type": "uint16"
        }
      ],
      "name": "mintBulk",
      "outputs": [],
      "stateMutability": "nonpayable",
      "type": "function"
    },
    {
      "inputs": [],
      "name": "name",
      "outputs": [
        {
          "internalType": "string",
          "name": "",
          "type": "string"
        }
      ],
      "stateMutability": "view",
      "type": "function"
    },
    {
      "inputs": [],
      "name": "owner",
      "outputs": [
        {
          "internalType": "address",
          "name": "",
          "type": "address"
        }
      ],
      "stateMutability": "view",
      "type": "function"
    },
    {
      "inputs": [
        {
          "internalType": "uint256",
          "name": "tokenId",
          "type": "uint256"
        }
      ],
      "name": "ownerOf",
      "outputs": [
        {
          "internalType": "address",
          "name": "",
          "type": "address"
        }
      ],
      "stateMutability": "view",
      "type": "function"
    },
    {
      "inputs": [
        {
          "internalType": "uint256",
          "name": "companyId",
          "type": "uint256"
        }
      ],
      "name": "removeCompany",
      "outputs": [],
      "stateMutability": "nonpayable",
      "type": "function"
    },
    {
      "inputs": [
        {
          "internalType": "uint256",
          "name": "_companyId",
          "type": "uint256"
        },
        {
          "internalType": "address",
          "name": "_employee",
          "type": "address"
        }
      ],
      "name": "removeEmployee",
      "outputs": [],
      "stateMutability": "nonpayable",
      "type": "function"
    },
    {
      "inputs": [
        {
          "internalType": "uint256",
          "name": "_companyId",
          "type": "uint256"
        },
        {
          "internalType": "uint256",
          "name": "_productId",
          "type": "uint256"
        }
      ],
      "name": "removeProduct",
      "outputs": [],
      "stateMutability": "nonpayable",
      "type": "function"
    },
    {
      "inputs": [],
      "name": "renounceOwnership",
      "outputs": [],
      "stateMutability": "nonpayable",
      "type": "function"
    },
    {
      "inputs": [
        {
          "internalType": "address",
          "name": "from",
          "type": "address"
        },
        {
          "internalType": "address",
          "name": "to",
          "type": "address"
        },
        {
          "internalType": "uint256",
          "name": "tokenId",
          "type": "uint256"
        }
      ],
      "name": "safeTransferFrom",
      "outputs": [],
      "stateMutability": "nonpayable",
      "type": "function"
    },
    {
      "inputs": [
        {
          "internalType": "address",
          "name": "from",
          "type": "address"
        },
        {
          "internalType": "address",
          "name": "to",
          "type": "address"
        },
        {
          "internalType": "uint256",
          "name": "tokenId",
          "type": "uint256"
        },
        {
          "internalType": "bytes",
          "name": "data",
          "type": "bytes"
        }
      ],
      "name": "safeTransferFrom",
      "outputs": [],
      "stateMutability": "nonpayable",
      "type": "function"
    },
    {
      "inputs": [
        {
          "internalType": "address",
          "name": "operator",
          "type": "address"
        },
        {
          "internalType": "bool",
          "name": "approved",
          "type": "bool"
        }
      ],
      "name": "setApprovalForAll",
      "outputs": [],
      "stateMutability": "nonpayable",
      "type": "function"
    },
    {
      "inputs": [
        {
          "internalType": "bytes4",
          "name": "interfaceId",
          "type": "bytes4"
        }
      ],
      "name": "supportsInterface",
      "outputs": [
        {
          "internalType": "bool",
          "name": "",
          "type": "bool"
        }
      ],
      "stateMutability": "view",
      "type": "function"
    },
    {
      "inputs": [],
      "name": "symbol",
      "outputs": [
        {
          "internalType": "string",
          "name": "",
          "type": "string"
        }
      ],
      "stateMutability": "view",
      "type": "function"
    },
    {
      "inputs": [
        {
          "internalType": "uint256",
          "name": "index",
          "type": "uint256"
        }
      ],
      "name": "tokenByIndex",
      "outputs": [
        {
          "internalType": "uint256",
          "name": "",
          "type": "uint256"
        }
      ],
      "stateMutability": "view",
      "type": "function"
    },
    {
      "inputs": [
        {
          "internalType": "address",
          "name": "owner",
          "type": "address"
        },
        {
          "internalType": "uint256",
          "name": "index",
          "type": "uint256"
        }
      ],
      "name": "tokenOfOwnerByIndex",
      "outputs": [
        {
          "internalType": "uint256",
          "name": "",
          "type": "uint256"
        }
      ],
      "stateMutability": "view",
      "type": "function"
    },
    {
      "inputs": [
        {
          "internalType": "uint256",
          "name": "tokenId",
          "type": "uint256"
        }
      ],
      "name": "tokenURI",
      "outputs": [
        {
          "internalType": "string",
          "name": "",
          "type": "string"
        }
      ],
      "stateMutability": "view",
      "type": "function"
    },
    {
      "inputs": [],
      "name": "totalSupply",
      "outputs": [
        {
          "internalType": "uint256",
          "name": "",
          "type": "uint256"
        }
      ],
      "stateMutability": "view",
      "type": "function"
    },
    {
      "inputs": [
        {
          "internalType": "address",
          "name": "to",
          "type": "address"
        },
        {
          "internalType": "uint256",
          "name": "_tokenId",
          "type": "uint256"
        }
      ],
      "name": "transfer",
      "outputs": [],
      "stateMutability": "nonpayable",
      "type": "function"
    },
    {
      "inputs": [
        {
          "internalType": "address",
          "name": "from",
          "type": "address"
        },
        {
          "internalType": "address",
          "name": "to",
          "type": "address"
        },
        {
          "internalType": "uint256",
          "name": "tokenId",
          "type": "uint256"
        }
      ],
      "name": "transferFrom",
      "outputs": [],
      "stateMutability": "nonpayable",
      "type": "function"
    },
    {
      "inputs": [
        {
          "internalType": "address",
          "name": "newOwner",
          "type": "address"
        }
      ],
      "name": "transferOwnership",
      "outputs": [],
      "stateMutability": "nonpayable",
      "type": "function"
    },
    {
      "inputs": [
        {
          "internalType": "address",
          "name": "targetWallet",
          "type": "address"
        }
      ],
      "name": "walletOfOwner",
      "outputs": [
        {
          "internalType": "uint256[]",
          "name": "",
          "type": "uint256[]"
        }
      ],
      "stateMutability": "view",
      "type": "function"
    }
  ],
  "bytecode": "0x60806040526000600b556000600c553480156200001b57600080fd5b506040518060400160405280600981526020017f537472696e674e465400000000000000000000000000000000000000000000008152506040518060400160405280600481526020017f534e4654000000000000000000000000000000000000000000000000000000008152508160009080519060200190620000a0929190620001b0565b508060019080519060200190620000b9929190620001b0565b505050620000dc620000d0620000e260201b60201c565b620000ea60201b60201c565b620002c5565b600033905090565b6000600a60009054906101000a900473ffffffffffffffffffffffffffffffffffffffff16905081600a60006101000a81548173ffffffffffffffffffffffffffffffffffffffff021916908373ffffffffffffffffffffffffffffffffffffffff1602179055508173ffffffffffffffffffffffffffffffffffffffff168173ffffffffffffffffffffffffffffffffffffffff167f8be0079c531659141344cd1fd0a4f28419497f9722a3daafe3b4186f6b6457e060405160405180910390a35050565b828054620001be906200028f565b90600052602060002090601f016020900481019282620001e257600085556200022e565b82601f10620001fd57805160ff19168380011785556200022e565b828001600101855582156200022e579182015b828111156200022d57825182559160200191906001019062000210565b5b5090506200023d919062000241565b5090565b5b808211156200025c57600081600090555060010162000242565b5090565b7f4e487b7100000000000000000000000000000000000000000000000000000000600052602260045260246000fd5b60006002820490506001821680620002a857607f821691505b60208210811415620002bf57620002be62000260565b5b50919050565b615ec680620002d56000396000f3fe608060405234801561001057600080fd5b50600436106102275760003560e01c80634f6ccce711610130578063a9059cbb116100b8578063d28a47611161007c578063d28a4761146106aa578063d6483d17146106c6578063e985e9c5146106e2578063f2fde38b14610712578063fa9b70181461072e57610227565b8063a9059cbb146105f6578063ad4891ee14610612578063b88d4fde14610642578063c7afdbbf1461065e578063c87b56dd1461067a57610227565b806370a08231116100ff57806370a0823114610564578063715018a6146105945780638da5cb5b1461059e57806395d89b41146105bc578063a22cb465146105da57610227565b80634f6ccce7146104b8578063510636a8146104e85780635287d535146105185780636352211e1461053457610227565b806326c659a9116101b35780633b54dd48116101825780633b54dd48146104165780633f21d44c1461043257806342842e0e1461044e578063438b63001461046a5780634ededc641461049a57610227565b806326c659a9146103685780632813d19d146103985780632f745c59146103ca578063397914c6146103fa57610227565b8063095ea7b3116101fa578063095ea7b3146102c657806318160ddd146102e25780631b2ef1ca1461030057806323b872dd1461031c57806324f346ab1461033857610227565b806301ffc9a71461022c57806306c613431461025c57806306fdde0314610278578063081812fc14610296575b600080fd5b61024660048036038101906102419190614036565b61074c565b604051610253919061407e565b60405180910390f35b61027660048036038101906102719190614215565b6107c6565b005b610280610a50565b60405161028d919061439a565b60405180910390f35b6102b060048036038101906102ab91906143bc565b610ae2565b6040516102bd919061442a565b60405180910390f35b6102e060048036038101906102db9190614471565b610b28565b005b6102ea610c40565b6040516102f791906144c0565b60405180910390f35b61031a600480360381019061031591906144db565b610c4d565b005b6103366004803603810190610331919061451b565b610e18565b005b610352600480360381019061034d91906144db565b610e78565b60405161035f919061473d565b60405180910390f35b610382600480360381019061037d91906143bc565b6111dc565b60405161038f91906148d9565b60405180910390f35b6103b260048036038101906103ad91906143bc565b611590565b6040516103c1939291906148fb565b60405180910390f35b6103e460048036038101906103df9190614471565b611642565b6040516103f191906144c0565b60405180910390f35b610414600480360381019061040f9190614939565b6116e7565b005b610430600480360381019061042b91906149b3565b611905565b005b61044c600480360381019061044791906143bc565b611a36565b005b6104686004803603810190610463919061451b565b611ab4565b005b610484600480360381019061047f9190614a06565b611ad4565b6040516104919190614aa2565b60405180910390f35b6104a2611b82565b6040516104af91906144c0565b60405180910390f35b6104d260048036038101906104cd91906143bc565b611b88565b6040516104df91906144c0565b60405180910390f35b61050260048036038101906104fd91906143bc565b611bf9565b60405161050f9190614c19565b60405180910390f35b610532600480360381019061052d91906144db565b611e2a565b005b61054e600480360381019061054991906143bc565b612013565b60405161055b919061442a565b60405180910390f35b61057e60048036038101906105799190614a06565b61209a565b60405161058b91906144c0565b60405180910390f35b61059c612152565b005b6105a6612166565b6040516105b3919061442a565b60405180910390f35b6105c4612190565b6040516105d1919061439a565b60405180910390f35b6105f460048036038101906105ef9190614c67565b612222565b005b610610600480360381019061060b9190614471565b612238565b005b61062c600480360381019061062791906143bc565b612350565b60405161063991906144c0565b60405180910390f35b61065c60048036038101906106579190614d48565b612375565b005b61067860048036038101906106739190614e48565b6123d7565b005b610694600480360381019061068f91906143bc565b6126f6565b6040516106a1919061439a565b60405180910390f35b6106c460048036038101906106bf9190614f63565b61275e565b005b6106e060048036038101906106db9190614fbf565b6127a6565b005b6106fc60048036038101906106f79190615008565b61284e565b604051610709919061407e565b60405180910390f35b61072c60048036038101906107279190614a06565b6128e2565b005b610736612966565b6040516107439190615057565b60405180910390f35b60007f780e9d63000000000000000000000000000000000000000000000000000000007bffffffffffffffffffffffffffffffffffffffffffffffffffffffff1916827bffffffffffffffffffffffffffffffffffffffffffffffffffffffff191614806107bf57506107be8261296c565b5b9050919050565b600d60008781526020019081526020016000206107e281612a4e565b60008160020160003373ffffffffffffffffffffffffffffffffffffffff1673ffffffffffffffffffffffffffffffffffffffff16815260200190815260200160002060000190508060000160029054906101000a900460ff1661087b576040517f08c379a0000000000000000000000000000000000000000000000000000000008152600401610872906150e4565b60405180910390fd5b6000600d60008a815260200190815260200160002090508060040160008154809291906108a790615133565b919050555060006040518060e001604052808a8152602001898152602001888152602001878152602001600067ffffffffffffffff8111156108ec576108eb6140ea565b5b60405190808252806020026020018201604052801561091a5781602001602082028036833780820191505090505b50815260200186815260200160011515815250905080826003016000846004015481526020019081526020016000206000820151816000019080519060200190610965929190613dac565b506020820151816001019080519060200190610982929190613dac565b50604082015181600201908051906020019061099f929190613dac565b5060608201518160030190805190602001906109bc929190613dac565b5060808201518160040190805190602001906109d9929190613e32565b5060a0820151816005015560c08201518160060160006101000a81548160ff02191690831515021790555090505081600401548a7f504b79b6b7acf3ade94783d01cc4c5b4778e433229f491d4aa877f32d7aab6598b604051610a3c919061439a565b60405180910390a350505050505050505050565b606060008054610a5f906151ab565b80601f0160208091040260200160405190810160405280929190818152602001828054610a8b906151ab565b8015610ad85780601f10610aad57610100808354040283529160200191610ad8565b820191906000526020600020905b815481529060010190602001808311610abb57829003601f168201915b5050505050905090565b6000610aed82612a90565b6004600083815260200190815260200160002060009054906101000a900473ffffffffffffffffffffffffffffffffffffffff169050919050565b6000610b3382612013565b90508073ffffffffffffffffffffffffffffffffffffffff168373ffffffffffffffffffffffffffffffffffffffff161415610ba4576040517f08c379a0000000000000000000000000000000000000000000000000000000008152600401610b9b9061524f565b60405180910390fd5b8073ffffffffffffffffffffffffffffffffffffffff16610bc3612adb565b73ffffffffffffffffffffffffffffffffffffffff161480610bf25750610bf181610bec612adb565b61284e565b5b610c31576040517f08c379a0000000000000000000000000000000000000000000000000000000008152600401610c28906152e1565b60405180910390fd5b610c3b8383612ae3565b505050565b6000600880549050905090565b600d6000838152602001908152602001600020610c6981612a4e565b60008160020160003373ffffffffffffffffffffffffffffffffffffffff1673ffffffffffffffffffffffffffffffffffffffff16815260200190815260200160002060000190508060000160009054906101000a900460ff16610d02576040517f08c379a0000000000000000000000000000000000000000000000000000000008152600401610cf990615373565b60405180910390fd5b600b6000815480929190610d1590615133565b91905055506000600d60008681526020019081526020016000209050600081600301600086815260200190815260200160002090508060060160009054906101000a900460ff16610d9b576040517f08c379a0000000000000000000000000000000000000000000000000000000008152600401610d92906153df565b60405180910390fd5b80600401600b549080600181540180825580915050600190039060005260206000200160009091909190915055610dd433600b54612b9c565b600b5485877f0a20fc1c77df8b4a972d893c02c04cb24cbb841a0d8083766ae9806bd93ef02d33604051610e08919061442a565b60405180910390a4505050505050565b610e29610e23612adb565b82612dba565b610e68576040517f08c379a0000000000000000000000000000000000000000000000000000000008152600401610e5f90615471565b60405180910390fd5b610e73838383612e4f565b505050565b610e80613e7f565b6000600d60008581526020019081526020016000209050600081600301600085815260200190815260200160002090508060060160009054906101000a900460ff16610f01576040517f08c379a0000000000000000000000000000000000000000000000000000000008152600401610ef8906153df565b60405180910390fd5b806040518060e0016040529081600082018054610f1d906151ab565b80601f0160208091040260200160405190810160405280929190818152602001828054610f49906151ab565b8015610f965780601f10610f6b57610100808354040283529160200191610f96565b820191906000526020600020905b815481529060010190602001808311610f7957829003601f168201915b50505050508152602001600182018054610faf906151ab565b80601f0160208091040260200160405190810160405280929190818152602001828054610fdb906151ab565b80156110285780601f10610ffd57610100808354040283529160200191611028565b820191906000526020600020905b81548152906001019060200180831161100b57829003601f168201915b50505050508152602001600282018054611041906151ab565b80601f016020809104026020016040519081016040528092919081815260200182805461106d906151ab565b80156110ba5780601f1061108f576101008083540402835291602001916110ba565b820191906000526020600020905b81548152906001019060200180831161109d57829003601f168201915b505050505081526020016003820180546110d3906151ab565b80601f01602080910402602001604051908101604052809291908181526020018280546110ff906151ab565b801561114c5780601f106111215761010080835404028352916020019161114c565b820191906000526020600020905b81548152906001019060200180831161112f57829003601f168201915b50505050508152602001600482018054806020026020016040519081016040528092919081815260200182805480156111a457602002820191906000526020600020905b815481526020019060010190808311611190575b50505050508152602001600582015481526020016006820160009054906101000a900460ff1615151515815250509250505092915050565b60606000600d600084815260200190815260200160002090506000816004015467ffffffffffffffff811115611215576112146140ea565b5b60405190808252806020026020018201604052801561124e57816020015b61123b613e7f565b8152602001906001900390816112335790505b5090506000600190505b82600401548111611585578260030160008281526020019081526020016000206040518060e0016040529081600082018054611293906151ab565b80601f01602080910402602001604051908101604052809291908181526020018280546112bf906151ab565b801561130c5780601f106112e15761010080835404028352916020019161130c565b820191906000526020600020905b8154815290600101906020018083116112ef57829003601f168201915b50505050508152602001600182018054611325906151ab565b80601f0160208091040260200160405190810160405280929190818152602001828054611351906151ab565b801561139e5780601f106113735761010080835404028352916020019161139e565b820191906000526020600020905b81548152906001019060200180831161138157829003601f168201915b505050505081526020016002820180546113b7906151ab565b80601f01602080910402602001604051908101604052809291908181526020018280546113e3906151ab565b80156114305780601f1061140557610100808354040283529160200191611430565b820191906000526020600020905b81548152906001019060200180831161141357829003601f168201915b50505050508152602001600382018054611449906151ab565b80601f0160208091040260200160405190810160405280929190818152602001828054611475906151ab565b80156114c25780601f10611497576101008083540402835291602001916114c2565b820191906000526020600020905b8154815290600101906020018083116114a557829003601f168201915b505050505081526020016004820180548060200260200160405190810160405280929190818152602001828054801561151a57602002820191906000526020600020905b815481526020019060010190808311611506575b50505050508152602001600582015481526020016006820160009054906101000a900460ff161515151581525050826001836115569190615491565b81518110611567576115666154c5565b5b6020026020010181905250808061157d90615133565b915050611258565b508092505050919050565b600d6020528060005260406000206000915090508060000154908060010180546115b9906151ab565b80601f01602080910402602001604051908101604052809291908181526020018280546115e5906151ab565b80156116325780601f1061160757610100808354040283529160200191611632565b820191906000526020600020905b81548152906001019060200180831161161557829003601f168201915b5050505050908060040154905083565b600061164d8361209a565b821061168e576040517f08c379a000000000000000000000000000000000000000000000000000000000815260040161168590615566565b60405180910390fd5b600660008473ffffffffffffffffffffffffffffffffffffffff1673ffffffffffffffffffffffffffffffffffffffff168152602001908152602001600020600083815260200190815260200160002054905092915050565b600d600083815260200190815260200160002061170381612a4e565b60008160020160003373ffffffffffffffffffffffffffffffffffffffff1673ffffffffffffffffffffffffffffffffffffffff1681526020019081526020016000206000019050611753612166565b73ffffffffffffffffffffffffffffffffffffffff163373ffffffffffffffffffffffffffffffffffffffff16148061179a57508060000160039054906101000a900460ff165b6117d9576040517f08c379a00000000000000000000000000000000000000000000000000000000081526004016117d0906155f8565b60405180910390fd5b6000600d600086815260200190815260200160002090508060020160008573ffffffffffffffffffffffffffffffffffffffff1673ffffffffffffffffffffffffffffffffffffffff1681526020019081526020016000206000808201600080820160006101000a81549060ff02191690556000820160016101000a81549060ff02191690556000820160026101000a81549060ff02191690556000820160036101000a81549060ff021916905550506001820160006101000a81549073ffffffffffffffffffffffffffffffffffffffff0219169055600282016000905550508373ffffffffffffffffffffffffffffffffffffffff16857fdfcc7e5babfa5dde64e1e03185335f35dd50ccee8caca36c8f16e0772e00e7e060405160405180910390a35050505050565b600d600084815260200190815260200160002061192181612a4e565b60008160020160003373ffffffffffffffffffffffffffffffffffffffff1673ffffffffffffffffffffffffffffffffffffffff16815260200190815260200160002060000190508060000160009054906101000a900460ff166119ba576040517f08c379a00000000000000000000000000000000000000000000000000000000081526004016119b190615373565b60405180910390fd5b6103e861ffff168361ffff1611156119fe576040517f4b09724f00000000000000000000000000000000000000000000000000000000815260040160405180910390fd5b60005b8361ffff168161ffff161015611a2e57611a1b8686610c4d565b8080611a2690615618565b915050611a01565b505050505050565b611a3e613149565b600d6000828152602001908152602001600020600080820160009055600182016000611a6a9190613ebe565b6004820160009055600582016000611a829190613efe565b5050807f028fe2791b514c47642f0d652f7c237752aea1929ed16396ef24b45eb7e2b31560405160405180910390a250565b611acf83838360405180602001604052806000815250612375565b505050565b60606000611ae18361209a565b905060008167ffffffffffffffff811115611aff57611afe6140ea565b5b604051908082528060200260200182016040528015611b2d5781602001602082028036833780820191505090505b50905060005b82811015611b7757611b458582611642565b828281518110611b5857611b576154c5565b5b6020026020010181815250508080611b6f90615133565b915050611b33565b508092505050919050565b600c5481565b6000611b92610c40565b8210611bd3576040517f08c379a0000000000000000000000000000000000000000000000000000000008152600401611bca906156b5565b60405180910390fd5b60088281548110611be757611be66154c5565b5b90600052602060002001549050919050565b60606000600d6000848152602001908152602001600020905060008160050180549050905060008167ffffffffffffffff811115611c3a57611c396140ea565b5b604051908082528060200260200182016040528015611c7357816020015b611c60613f1f565b815260200190600190039081611c585790505b50905060005b82811015611e1e57836002016000856005018381548110611c9d57611c9c6154c5565b5b9060005260206000200160009054906101000a900473ffffffffffffffffffffffffffffffffffffffff1673ffffffffffffffffffffffffffffffffffffffff1673ffffffffffffffffffffffffffffffffffffffff168152602001908152602001600020604051806060016040529081600082016040518060800160405290816000820160009054906101000a900460ff161515151581526020016000820160019054906101000a900460ff161515151581526020016000820160029054906101000a900460ff161515151581526020016000820160039054906101000a900460ff16151515158152505081526020016001820160009054906101000a900473ffffffffffffffffffffffffffffffffffffffff1673ffffffffffffffffffffffffffffffffffffffff1673ffffffffffffffffffffffffffffffffffffffff168152602001600282015481525050828281518110611e0057611dff6154c5565b5b60200260200101819052508080611e1690615133565b915050611c79565b50809350505050919050565b600d6000838152602001908152602001600020611e4681612a4e565b60008160020160003373ffffffffffffffffffffffffffffffffffffffff1673ffffffffffffffffffffffffffffffffffffffff16815260200190815260200160002060000190508060000160029054906101000a900460ff16611edf576040517f08c379a0000000000000000000000000000000000000000000000000000000008152600401611ed6906150e4565b60405180910390fd5b6000600d60008681526020019081526020016000209050600081600301600086815260200190815260200160002090506000816004018054905014611f59576040517f08c379a0000000000000000000000000000000000000000000000000000000008152600401611f5090615747565b60405180910390fd5b81600301600086815260200190815260200160002060008082016000611f7f9190613ebe565b600182016000611f8f9190613ebe565b600282016000611f9f9190613ebe565b600382016000611faf9190613ebe565b600482016000611fbf9190613f5c565b60058201600090556006820160006101000a81549060ff0219169055505084867fd647384cccbd8b477a7b02b9e866072937e9a23b473b9de13fc0c6cb1d392a0a60405160405180910390a3505050505050565b60008061201f836131c7565b9050600073ffffffffffffffffffffffffffffffffffffffff168173ffffffffffffffffffffffffffffffffffffffff161415612091576040517f08c379a0000000000000000000000000000000000000000000000000000000008152600401612088906157b3565b60405180910390fd5b80915050919050565b60008073ffffffffffffffffffffffffffffffffffffffff168273ffffffffffffffffffffffffffffffffffffffff16141561210b576040517f08c379a000000000000000000000000000000000000000000000000000000000815260040161210290615845565b60405180910390fd5b600360008373ffffffffffffffffffffffffffffffffffffffff1673ffffffffffffffffffffffffffffffffffffffff168152602001908152602001600020549050919050565b61215a613149565b6121646000613204565b565b6000600a60009054906101000a900473ffffffffffffffffffffffffffffffffffffffff16905090565b60606001805461219f906151ab565b80601f01602080910402602001604051908101604052809291908181526020018280546121cb906151ab565b80156122185780601f106121ed57610100808354040283529160200191612218565b820191906000526020600020905b8154815290600101906020018083116121fb57829003601f168201915b5050505050905090565b61223461222d612adb565b83836132ca565b5050565b803373ffffffffffffffffffffffffffffffffffffffff1661225982612013565b73ffffffffffffffffffffffffffffffffffffffff16146122a6576040517f091fe61c00000000000000000000000000000000000000000000000000000000815260040160405180910390fd5b6122af81613437565b6122e5576040517f4f49b94200000000000000000000000000000000000000000000000000000000815260040160405180910390fd5b6122f0338484610e18565b8273ffffffffffffffffffffffffffffffffffffffff163373ffffffffffffffffffffffffffffffffffffffff16837fa84f763be5bb36163517fb87c7af39f875a97866fdf7806eb1b3eac837ae35ea60405160405180910390a4505050565b600080600d600084815260200190815260200160002090508060040154915050919050565b612386612380612adb565b83612dba565b6123c5576040517f08c379a00000000000000000000000000000000000000000000000000000000081526004016123bc90615471565b60405180910390fd5b6123d184848484613478565b50505050565b6123df613149565b600d60008481526020019081526020016000206123fb81612a4e565b60008160020160003373ffffffffffffffffffffffffffffffffffffffff1673ffffffffffffffffffffffffffffffffffffffff168152602001908152602001600020600001905061244b612166565b73ffffffffffffffffffffffffffffffffffffffff163373ffffffffffffffffffffffffffffffffffffffff16148061249257508060000160039054906101000a900460ff165b6124d1576040517f08c379a00000000000000000000000000000000000000000000000000000000081526004016124c8906155f8565b60405180910390fd5b60405180606001604052808481526020018573ffffffffffffffffffffffffffffffffffffffff16815260200186815250600d600087815260200190815260200160002060020160008673ffffffffffffffffffffffffffffffffffffffff1673ffffffffffffffffffffffffffffffffffffffff16815260200190815260200160002060008201518160000160008201518160000160006101000a81548160ff02191690831515021790555060208201518160000160016101000a81548160ff02191690831515021790555060408201518160000160026101000a81548160ff02191690831515021790555060608201518160000160036101000a81548160ff021916908315150217905550505060208201518160010160006101000a81548173ffffffffffffffffffffffffffffffffffffffff021916908373ffffffffffffffffffffffffffffffffffffffff16021790555060408201518160020155905050600d6000868152602001908152602001600020600501849080600181540180825580915050600190039060005260206000200160009091909190916101000a81548173ffffffffffffffffffffffffffffffffffffffff021916908373ffffffffffffffffffffffffffffffffffffffff1602179055508373ffffffffffffffffffffffffffffffffffffffff16857f40ff9d12272bfe4858e50671fc7f95e46d1040416ae78d20b8d6a3890c4f240e60405160405180910390a35050505050565b606061270182612a90565b600061270b6134d4565b9050600081511161272b5760405180602001604052806000815250612756565b80612735846134eb565b6040516020016127469291906158a1565b6040516020818303038152906040525b915050919050565b60005b81518110156127a15761278e83838381518110612781576127806154c5565b5b6020026020010151612238565b808061279990615133565b915050612761565b505050565b6127ae613149565b600c60008154809291906127c190615133565b919050555080600d6000600c54815260200190815260200160002060010190805190602001906127f2929190613dac565b506001600d6000600c54815260200190815260200160002060000181905550600c547f978425ef2f425127f39e68671f1e43b1a2ba2fdaade561bd8a9f9ea9e176d12d82604051612843919061439a565b60405180910390a250565b6000600560008473ffffffffffffffffffffffffffffffffffffffff1673ffffffffffffffffffffffffffffffffffffffff16815260200190815260200160002060008373ffffffffffffffffffffffffffffffffffffffff1673ffffffffffffffffffffffffffffffffffffffff16815260200190815260200160002060009054906101000a900460ff16905092915050565b6128ea613149565b600073ffffffffffffffffffffffffffffffffffffffff168173ffffffffffffffffffffffffffffffffffffffff16141561295a576040517f08c379a000000000000000000000000000000000000000000000000000000000815260040161295190615937565b60405180910390fd5b61296381613204565b50565b6103e881565b60007f80ac58cd000000000000000000000000000000000000000000000000000000007bffffffffffffffffffffffffffffffffffffffffffffffffffffffff1916827bffffffffffffffffffffffffffffffffffffffffffffffffffffffff19161480612a3757507f5b5e139f000000000000000000000000000000000000000000000000000000007bffffffffffffffffffffffffffffffffffffffffffffffffffffffff1916827bffffffffffffffffffffffffffffffffffffffffffffffffffffffff1916145b80612a475750612a46826135c3565b5b9050919050565b600081600001541415612a8d576040517f308084dc00000000000000000000000000000000000000000000000000000000815260040160405180910390fd5b50565b612a9981613437565b612ad8576040517f08c379a0000000000000000000000000000000000000000000000000000000008152600401612acf906157b3565b60405180910390fd5b50565b600033905090565b816004600083815260200190815260200160002060006101000a81548173ffffffffffffffffffffffffffffffffffffffff021916908373ffffffffffffffffffffffffffffffffffffffff160217905550808273ffffffffffffffffffffffffffffffffffffffff16612b5683612013565b73ffffffffffffffffffffffffffffffffffffffff167f8c5be1e5ebec7d5bd14f71427d1e84f3dd0314c0f7b2291e5b200ac8c7c3b92560405160405180910390a45050565b600073ffffffffffffffffffffffffffffffffffffffff168273ffffffffffffffffffffffffffffffffffffffff161415612c0c576040517f08c379a0000000000000000000000000000000000000000000000000000000008152600401612c03906159a3565b60405180910390fd5b612c1581613437565b15612c55576040517f08c379a0000000000000000000000000000000000000000000000000000000008152600401612c4c90615a0f565b60405180910390fd5b612c6360008383600161362d565b612c6c81613437565b15612cac576040517f08c379a0000000000000000000000000000000000000000000000000000000008152600401612ca390615a0f565b60405180910390fd5b6001600360008473ffffffffffffffffffffffffffffffffffffffff1673ffffffffffffffffffffffffffffffffffffffff16815260200190815260200160002060008282540192505081905550816002600083815260200190815260200160002060006101000a81548173ffffffffffffffffffffffffffffffffffffffff021916908373ffffffffffffffffffffffffffffffffffffffff160217905550808273ffffffffffffffffffffffffffffffffffffffff16600073ffffffffffffffffffffffffffffffffffffffff167fddf252ad1be2c89b69c2b068fc378daa952ba7f163c4a11628f55a4df523b3ef60405160405180910390a4612db660008383600161378d565b5050565b600080612dc683612013565b90508073ffffffffffffffffffffffffffffffffffffffff168473ffffffffffffffffffffffffffffffffffffffff161480612e085750612e07818561284e565b5b80612e4657508373ffffffffffffffffffffffffffffffffffffffff16612e2e84610ae2565b73ffffffffffffffffffffffffffffffffffffffff16145b91505092915050565b8273ffffffffffffffffffffffffffffffffffffffff16612e6f82612013565b73ffffffffffffffffffffffffffffffffffffffff1614612ec5576040517f08c379a0000000000000000000000000000000000000000000000000000000008152600401612ebc90615aa1565b60405180910390fd5b600073ffffffffffffffffffffffffffffffffffffffff168273ffffffffffffffffffffffffffffffffffffffff161415612f35576040517f08c379a0000000000000000000000000000000000000000000000000000000008152600401612f2c90615b33565b60405180910390fd5b612f42838383600161362d565b8273ffffffffffffffffffffffffffffffffffffffff16612f6282612013565b73ffffffffffffffffffffffffffffffffffffffff1614612fb8576040517f08c379a0000000000000000000000000000000000000000000000000000000008152600401612faf90615aa1565b60405180910390fd5b6004600082815260200190815260200160002060006101000a81549073ffffffffffffffffffffffffffffffffffffffff02191690556001600360008573ffffffffffffffffffffffffffffffffffffffff1673ffffffffffffffffffffffffffffffffffffffff168152602001908152602001600020600082825403925050819055506001600360008473ffffffffffffffffffffffffffffffffffffffff1673ffffffffffffffffffffffffffffffffffffffff16815260200190815260200160002060008282540192505081905550816002600083815260200190815260200160002060006101000a81548173ffffffffffffffffffffffffffffffffffffffff021916908373ffffffffffffffffffffffffffffffffffffffff160217905550808273ffffffffffffffffffffffffffffffffffffffff168473ffffffffffffffffffffffffffffffffffffffff167fddf252ad1be2c89b69c2b068fc378daa952ba7f163c4a11628f55a4df523b3ef60405160405180910390a4613144838383600161378d565b505050565b613151612adb565b73ffffffffffffffffffffffffffffffffffffffff1661316f612166565b73ffffffffffffffffffffffffffffffffffffffff16146131c5576040517f08c379a00000000000000000000000000000000000000000000000000000000081526004016131bc90615b9f565b60405180910390fd5b565b60006002600083815260200190815260200160002060009054906101000a900473ffffffffffffffffffffffffffffffffffffffff169050919050565b6000600a60009054906101000a900473ffffffffffffffffffffffffffffffffffffffff16905081600a60006101000a81548173ffffffffffffffffffffffffffffffffffffffff021916908373ffffffffffffffffffffffffffffffffffffffff1602179055508173ffffffffffffffffffffffffffffffffffffffff168173ffffffffffffffffffffffffffffffffffffffff167f8be0079c531659141344cd1fd0a4f28419497f9722a3daafe3b4186f6b6457e060405160405180910390a35050565b8173ffffffffffffffffffffffffffffffffffffffff168373ffffffffffffffffffffffffffffffffffffffff161415613339576040517f08c379a000000000000000000000000000000000000000000000000000000000815260040161333090615c0b565b60405180910390fd5b80600560008573ffffffffffffffffffffffffffffffffffffffff1673ffffffffffffffffffffffffffffffffffffffff16815260200190815260200160002060008473ffffffffffffffffffffffffffffffffffffffff1673ffffffffffffffffffffffffffffffffffffffff16815260200190815260200160002060006101000a81548160ff0219169083151502179055508173ffffffffffffffffffffffffffffffffffffffff168373ffffffffffffffffffffffffffffffffffffffff167f17307eab39ab6107e8899845ad3d59bd9653f200f220920489ca2b5937696c318360405161342a919061407e565b60405180910390a3505050565b60008073ffffffffffffffffffffffffffffffffffffffff16613459836131c7565b73ffffffffffffffffffffffffffffffffffffffff1614159050919050565b613483848484612e4f565b61348f84848484613793565b6134ce576040517f08c379a00000000000000000000000000000000000000000000000000000000081526004016134c590615c9d565b60405180910390fd5b50505050565b606060405180602001604052806000815250905090565b6060600060016134fa8461392a565b01905060008167ffffffffffffffff811115613519576135186140ea565b5b6040519080825280601f01601f19166020018201604052801561354b5781602001600182028036833780820191505090505b509050600082602001820190505b6001156135b8578080600190039150507f3031323334353637383961626364656600000000000000000000000000000000600a86061a8153600a85816135a2576135a1615cbd565b5b04945060008514156135b3576135b8565b613559565b819350505050919050565b60007f01ffc9a7000000000000000000000000000000000000000000000000000000007bffffffffffffffffffffffffffffffffffffffffffffffffffffffff1916827bffffffffffffffffffffffffffffffffffffffffffffffffffffffff1916149050919050565b61363984848484613a7d565b600181111561367d576040517f08c379a000000000000000000000000000000000000000000000000000000000815260040161367490615d5e565b60405180910390fd5b6000829050600073ffffffffffffffffffffffffffffffffffffffff168573ffffffffffffffffffffffffffffffffffffffff1614156136c5576136c081613a83565b613704565b8373ffffffffffffffffffffffffffffffffffffffff168573ffffffffffffffffffffffffffffffffffffffff1614613703576137028582613acc565b5b5b600073ffffffffffffffffffffffffffffffffffffffff168473ffffffffffffffffffffffffffffffffffffffff1614156137475761374281613c39565b613786565b8473ffffffffffffffffffffffffffffffffffffffff168473ffffffffffffffffffffffffffffffffffffffff1614613785576137848482613d0a565b5b5b5050505050565b50505050565b60006137b48473ffffffffffffffffffffffffffffffffffffffff16613d89565b1561391d578373ffffffffffffffffffffffffffffffffffffffff1663150b7a026137dd612adb565b8786866040518563ffffffff1660e01b81526004016137ff9493929190615dd3565b602060405180830381600087803b15801561381957600080fd5b505af192505050801561384a57506040513d601f19601f820116820180604052508101906138479190615e34565b60015b6138cd573d806000811461387a576040519150601f19603f3d011682016040523d82523d6000602084013e61387f565b606091505b506000815114156138c5576040517f08c379a00000000000000000000000000000000000000000000000000000000081526004016138bc90615c9d565b60405180910390fd5b805181602001fd5b63150b7a0260e01b7bffffffffffffffffffffffffffffffffffffffffffffffffffffffff1916817bffffffffffffffffffffffffffffffffffffffffffffffffffffffff191614915050613922565b600190505b949350505050565b600080600090507a184f03e93ff9f4daa797ed6e38ed64bf6a1f0100000000000000008310613988577a184f03e93ff9f4daa797ed6e38ed64bf6a1f010000000000000000838161397e5761397d615cbd565b5b0492506040810190505b6d04ee2d6d415b85acef810000000083106139c5576d04ee2d6d415b85acef810000000083816139bb576139ba615cbd565b5b0492506020810190505b662386f26fc1000083106139f457662386f26fc1000083816139ea576139e9615cbd565b5b0492506010810190505b6305f5e1008310613a1d576305f5e1008381613a1357613a12615cbd565b5b0492506008810190505b6127108310613a42576127108381613a3857613a37615cbd565b5b0492506004810190505b60648310613a655760648381613a5b57613a5a615cbd565b5b0492506002810190505b600a8310613a74576001810190505b80915050919050565b50505050565b6008805490506009600083815260200190815260200160002081905550600881908060018154018082558091505060019003906000526020600020016000909190919091505550565b60006001613ad98461209a565b613ae39190615491565b9050600060076000848152602001908152602001600020549050818114613bc8576000600660008673ffffffffffffffffffffffffffffffffffffffff1673ffffffffffffffffffffffffffffffffffffffff168152602001908152602001600020600084815260200190815260200160002054905080600660008773ffffffffffffffffffffffffffffffffffffffff1673ffffffffffffffffffffffffffffffffffffffff168152602001908152602001600020600084815260200190815260200160002081905550816007600083815260200190815260200160002081905550505b6007600084815260200190815260200160002060009055600660008573ffffffffffffffffffffffffffffffffffffffff1673ffffffffffffffffffffffffffffffffffffffff16815260200190815260200160002060008381526020019081526020016000206000905550505050565b60006001600880549050613c4d9190615491565b9050600060096000848152602001908152602001600020549050600060088381548110613c7d57613c7c6154c5565b5b906000526020600020015490508060088381548110613c9f57613c9e6154c5565b5b906000526020600020018190555081600960008381526020019081526020016000208190555060096000858152602001908152602001600020600090556008805480613cee57613ced615e61565b5b6001900381819060005260206000200160009055905550505050565b6000613d158361209a565b905081600660008573ffffffffffffffffffffffffffffffffffffffff1673ffffffffffffffffffffffffffffffffffffffff168152602001908152602001600020600083815260200190815260200160002081905550806007600084815260200190815260200160002081905550505050565b6000808273ffffffffffffffffffffffffffffffffffffffff163b119050919050565b828054613db8906151ab565b90600052602060002090601f016020900481019282613dda5760008555613e21565b82601f10613df357805160ff1916838001178555613e21565b82800160010185558215613e21579182015b82811115613e20578251825591602001919060010190613e05565b5b509050613e2e9190613f7d565b5090565b828054828255906000526020600020908101928215613e6e579160200282015b82811115613e6d578251825591602001919060010190613e52565b5b509050613e7b9190613f7d565b5090565b6040518060e001604052806060815260200160608152602001606081526020016060815260200160608152602001600081526020016000151581525090565b508054613eca906151ab565b6000825580601f10613edc5750613efb565b601f016020900490600052602060002090810190613efa9190613f7d565b5b50565b5080546000825590600052602060002090810190613f1c9190613f7d565b50565b6040518060600160405280613f32613f9a565b8152602001600073ffffffffffffffffffffffffffffffffffffffff168152602001600081525090565b5080546000825590600052602060002090810190613f7a9190613f7d565b50565b5b80821115613f96576000816000905550600101613f7e565b5090565b60405180608001604052806000151581526020016000151581526020016000151581526020016000151581525090565b6000604051905090565b600080fd5b600080fd5b60007fffffffff0000000000000000000000000000000000000000000000000000000082169050919050565b61401381613fde565b811461401e57600080fd5b50565b6000813590506140308161400a565b92915050565b60006020828403121561404c5761404b613fd4565b5b600061405a84828501614021565b91505092915050565b60008115159050919050565b61407881614063565b82525050565b6000602082019050614093600083018461406f565b92915050565b6000819050919050565b6140ac81614099565b81146140b757600080fd5b50565b6000813590506140c9816140a3565b92915050565b600080fd5b600080fd5b6000601f19601f8301169050919050565b7f4e487b7100000000000000000000000000000000000000000000000000000000600052604160045260246000fd5b614122826140d9565b810181811067ffffffffffffffff82111715614141576141406140ea565b5b80604052505050565b6000614154613fca565b90506141608282614119565b919050565b600067ffffffffffffffff8211156141805761417f6140ea565b5b614189826140d9565b9050602081019050919050565b82818337600083830152505050565b60006141b86141b384614165565b61414a565b9050828152602081018484840111156141d4576141d36140d4565b5b6141df848285614196565b509392505050565b600082601f8301126141fc576141fb6140cf565b5b813561420c8482602086016141a5565b91505092915050565b60008060008060008060c0878903121561423257614231613fd4565b5b600061424089828a016140ba565b965050602087013567ffffffffffffffff81111561426157614260613fd9565b5b61426d89828a016141e7565b955050604087013567ffffffffffffffff81111561428e5761428d613fd9565b5b61429a89828a016141e7565b945050606087013567ffffffffffffffff8111156142bb576142ba613fd9565b5b6142c789828a016141e7565b935050608087013567ffffffffffffffff8111156142e8576142e7613fd9565b5b6142f489828a016141e7565b92505060a061430589828a016140ba565b9150509295509295509295565b600081519050919050565b600082825260208201905092915050565b60005b8381101561434c578082015181840152602081019050614331565b8381111561435b576000848401525b50505050565b600061436c82614312565b614376818561431d565b935061438681856020860161432e565b61438f816140d9565b840191505092915050565b600060208201905081810360008301526143b48184614361565b905092915050565b6000602082840312156143d2576143d1613fd4565b5b60006143e0848285016140ba565b91505092915050565b600073ffffffffffffffffffffffffffffffffffffffff82169050919050565b6000614414826143e9565b9050919050565b61442481614409565b82525050565b600060208201905061443f600083018461441b565b92915050565b61444e81614409565b811461445957600080fd5b50565b60008135905061446b81614445565b92915050565b6000806040838503121561448857614487613fd4565b5b60006144968582860161445c565b92505060206144a7858286016140ba565b9150509250929050565b6144ba81614099565b82525050565b60006020820190506144d560008301846144b1565b92915050565b600080604083850312156144f2576144f1613fd4565b5b6000614500858286016140ba565b9250506020614511858286016140ba565b9150509250929050565b60008060006060848603121561453457614533613fd4565b5b60006145428682870161445c565b93505060206145538682870161445c565b9250506040614564868287016140ba565b9150509250925092565b600082825260208201905092915050565b600061458a82614312565b614594818561456e565b93506145a481856020860161432e565b6145ad816140d9565b840191505092915050565b600081519050919050565b600082825260208201905092915050565b6000819050602082019050919050565b6145ed81614099565b82525050565b60006145ff83836145e4565b60208301905092915050565b6000602082019050919050565b6000614623826145b8565b61462d81856145c3565b9350614638836145d4565b8060005b8381101561466957815161465088826145f3565b975061465b8361460b565b92505060018101905061463c565b5085935050505092915050565b61467f81614063565b82525050565b600060e08301600083015184820360008601526146a2828261457f565b915050602083015184820360208601526146bc828261457f565b915050604083015184820360408601526146d6828261457f565b915050606083015184820360608601526146f0828261457f565b9150506080830151848203608086015261470a8282614618565b91505060a083015161471f60a08601826145e4565b5060c083015161473260c0860182614676565b508091505092915050565b600060208201905081810360008301526147578184614685565b905092915050565b600081519050919050565b600082825260208201905092915050565b6000819050602082019050919050565b600060e08301600083015184820360008601526147a8828261457f565b915050602083015184820360208601526147c2828261457f565b915050604083015184820360408601526147dc828261457f565b915050606083015184820360608601526147f6828261457f565b915050608083015184820360808601526148108282614618565b91505060a083015161482560a08601826145e4565b5060c083015161483860c0860182614676565b508091505092915050565b600061484f838361478b565b905092915050565b6000602082019050919050565b600061486f8261475f565b614879818561476a565b93508360208202850161488b8561477b565b8060005b858110156148c757848403895281516148a88582614843565b94506148b383614857565b925060208a0199505060018101905061488f565b50829750879550505050505092915050565b600060208201905081810360008301526148f38184614864565b905092915050565b600060608201905061491060008301866144b1565b81810360208301526149228185614361565b905061493160408301846144b1565b949350505050565b600080604083850312156149505761494f613fd4565b5b600061495e858286016140ba565b925050602061496f8582860161445c565b9150509250929050565b600061ffff82169050919050565b61499081614979565b811461499b57600080fd5b50565b6000813590506149ad81614987565b92915050565b6000806000606084860312156149cc576149cb613fd4565b5b60006149da868287016140ba565b93505060206149eb868287016140ba565b92505060406149fc8682870161499e565b9150509250925092565b600060208284031215614a1c57614a1b613fd4565b5b6000614a2a8482850161445c565b91505092915050565b600082825260208201905092915050565b6000614a4f826145b8565b614a598185614a33565b9350614a64836145d4565b8060005b83811015614a95578151614a7c88826145f3565b9750614a878361460b565b925050600181019050614a68565b5085935050505092915050565b60006020820190508181036000830152614abc8184614a44565b905092915050565b600081519050919050565b600082825260208201905092915050565b6000819050602082019050919050565b608082016000820151614b066000850182614676565b506020820151614b196020850182614676565b506040820151614b2c6040850182614676565b506060820151614b3f6060850182614676565b50505050565b614b4e81614409565b82525050565b60c082016000820151614b6a6000850182614af0565b506020820151614b7d6080850182614b45565b506040820151614b9060a08501826145e4565b50505050565b6000614ba28383614b54565b60c08301905092915050565b6000602082019050919050565b6000614bc682614ac4565b614bd08185614acf565b9350614bdb83614ae0565b8060005b83811015614c0c578151614bf38882614b96565b9750614bfe83614bae565b925050600181019050614bdf565b5085935050505092915050565b60006020820190508181036000830152614c338184614bbb565b905092915050565b614c4481614063565b8114614c4f57600080fd5b50565b600081359050614c6181614c3b565b92915050565b60008060408385031215614c7e57614c7d613fd4565b5b6000614c8c8582860161445c565b9250506020614c9d85828601614c52565b9150509250929050565b600067ffffffffffffffff821115614cc257614cc16140ea565b5b614ccb826140d9565b9050602081019050919050565b6000614ceb614ce684614ca7565b61414a565b905082815260208101848484011115614d0757614d066140d4565b5b614d12848285614196565b509392505050565b600082601f830112614d2f57614d2e6140cf565b5b8135614d3f848260208601614cd8565b91505092915050565b60008060008060808587031215614d6257614d61613fd4565b5b6000614d708782880161445c565b9450506020614d818782880161445c565b9350506040614d92878288016140ba565b925050606085013567ffffffffffffffff811115614db357614db2613fd9565b5b614dbf87828801614d1a565b91505092959194509250565b600080fd5b600060808284031215614de657614de5614dcb565b5b614df0608061414a565b90506000614e0084828501614c52565b6000830152506020614e1484828501614c52565b6020830152506040614e2884828501614c52565b6040830152506060614e3c84828501614c52565b60608301525092915050565b600080600060c08486031215614e6157614e60613fd4565b5b6000614e6f868287016140ba565b9350506020614e808682870161445c565b9250506040614e9186828701614dd0565b9150509250925092565b600067ffffffffffffffff821115614eb657614eb56140ea565b5b602082029050602081019050919050565b600080fd5b6000614edf614eda84614e9b565b61414a565b90508083825260208201905060208402830185811115614f0257614f01614ec7565b5b835b81811015614f2b5780614f1788826140ba565b845260208401935050602081019050614f04565b5050509392505050565b600082601f830112614f4a57614f496140cf565b5b8135614f5a848260208601614ecc565b91505092915050565b60008060408385031215614f7a57614f79613fd4565b5b6000614f888582860161445c565b925050602083013567ffffffffffffffff811115614fa957614fa8613fd9565b5b614fb585828601614f35565b9150509250929050565b600060208284031215614fd557614fd4613fd4565b5b600082013567ffffffffffffffff811115614ff357614ff2613fd9565b5b614fff848285016141e7565b91505092915050565b6000806040838503121561501f5761501e613fd4565b5b600061502d8582860161445c565b925050602061503e8582860161445c565b9150509250929050565b61505181614979565b82525050565b600060208201905061506c6000830184615048565b92915050565b7f43616c6c657220646f6573206e6f742068617665207065726d697373696f6e2060008201527f746f20646566696e650000000000000000000000000000000000000000000000602082015250565b60006150ce60298361431d565b91506150d982615072565b604082019050919050565b600060208201905081810360008301526150fd816150c1565b9050919050565b7f4e487b7100000000000000000000000000000000000000000000000000000000600052601160045260246000fd5b600061513e82614099565b91507fffffffffffffffffffffffffffffffffffffffffffffffffffffffffffffffff82141561517157615170615104565b5b600182019050919050565b7f4e487b7100000000000000000000000000000000000000000000000000000000600052602260045260246000fd5b600060028204905060018216806151c357607f821691505b602082108114156151d7576151d661517c565b5b50919050565b7f4552433732313a20617070726f76616c20746f2063757272656e74206f776e6560008201527f7200000000000000000000000000000000000000000000000000000000000000602082015250565b600061523960218361431d565b9150615244826151dd565b604082019050919050565b600060208201905081810360008301526152688161522c565b9050919050565b7f4552433732313a20617070726f76652063616c6c6572206973206e6f7420746f60008201527f6b656e206f776e6572206f7220617070726f76656420666f7220616c6c000000602082015250565b60006152cb603d8361431d565b91506152d68261526f565b604082019050919050565b600060208201905081810360008301526152fa816152be565b9050919050565b7f43616c6c657220646f6573206e6f742068617665207065726d697373696f6e2060008201527f746f206d696e7400000000000000000000000000000000000000000000000000602082015250565b600061535d60278361431d565b915061536882615301565b604082019050919050565b6000602082019050818103600083015261538c81615350565b9050919050565b7f50726f6475637420646f6573206e6f7420657869737400000000000000000000600082015250565b60006153c960168361431d565b91506153d482615393565b602082019050919050565b600060208201905081810360008301526153f8816153bc565b9050919050565b7f4552433732313a2063616c6c6572206973206e6f7420746f6b656e206f776e6560008201527f72206f7220617070726f76656400000000000000000000000000000000000000602082015250565b600061545b602d8361431d565b9150615466826153ff565b604082019050919050565b6000602082019050818103600083015261548a8161544e565b9050919050565b600061549c82614099565b91506154a783614099565b9250828210156154ba576154b9615104565b5b828203905092915050565b7f4e487b7100000000000000000000000000000000000000000000000000000000600052603260045260246000fd5b7f455243373231456e756d657261626c653a206f776e657220696e646578206f7560008201527f74206f6620626f756e6473000000000000000000000000000000000000000000602082015250565b6000615550602b8361431d565b915061555b826154f4565b604082019050919050565b6000602082019050818103600083015261557f81615543565b9050919050565b7f43616c6c657220646f6573206e6f742068617665207065726d697373696f6e2060008201527f746f20617574686f72697a650000000000000000000000000000000000000000602082015250565b60006155e2602c8361431d565b91506155ed82615586565b604082019050919050565b60006020820190508181036000830152615611816155d5565b9050919050565b600061562382614979565b915061ffff82141561563857615637615104565b5b600182019050919050565b7f455243373231456e756d657261626c653a20676c6f62616c20696e646578206f60008201527f7574206f6620626f756e64730000000000000000000000000000000000000000602082015250565b600061569f602c8361431d565b91506156aa82615643565b604082019050919050565b600060208201905081810360008301526156ce81615692565b9050919050565b7f50726f647563742068617320746f6b656e7320617474616368656420746f206960008201527f742e000000000000000000000000000000000000000000000000000000000000602082015250565b600061573160228361431d565b915061573c826156d5565b604082019050919050565b6000602082019050818103600083015261576081615724565b9050919050565b7f4552433732313a20696e76616c696420746f6b656e2049440000000000000000600082015250565b600061579d60188361431d565b91506157a882615767565b602082019050919050565b600060208201905081810360008301526157cc81615790565b9050919050565b7f4552433732313a2061646472657373207a65726f206973206e6f74206120766160008201527f6c6964206f776e65720000000000000000000000000000000000000000000000602082015250565b600061582f60298361431d565b915061583a826157d3565b604082019050919050565b6000602082019050818103600083015261585e81615822565b9050919050565b600081905092915050565b600061587b82614312565b6158858185615865565b935061589581856020860161432e565b80840191505092915050565b60006158ad8285615870565b91506158b98284615870565b91508190509392505050565b7f4f776e61626c653a206e6577206f776e657220697320746865207a65726f206160008201527f6464726573730000000000000000000000000000000000000000000000000000602082015250565b600061592160268361431d565b915061592c826158c5565b604082019050919050565b6000602082019050818103600083015261595081615914565b9050919050565b7f4552433732313a206d696e7420746f20746865207a65726f2061646472657373600082015250565b600061598d60208361431d565b915061599882615957565b602082019050919050565b600060208201905081810360008301526159bc81615980565b9050919050565b7f4552433732313a20746f6b656e20616c7265616479206d696e74656400000000600082015250565b60006159f9601c8361431d565b9150615a04826159c3565b602082019050919050565b60006020820190508181036000830152615a28816159ec565b9050919050565b7f4552433732313a207472616e736665722066726f6d20696e636f72726563742060008201527f6f776e6572000000000000000000000000000000000000000000000000000000602082015250565b6000615a8b60258361431d565b9150615a9682615a2f565b604082019050919050565b60006020820190508181036000830152615aba81615a7e565b9050919050565b7f4552433732313a207472616e7366657220746f20746865207a65726f2061646460008201527f7265737300000000000000000000000000000000000000000000000000000000602082015250565b6000615b1d60248361431d565b9150615b2882615ac1565b604082019050919050565b60006020820190508181036000830152615b4c81615b10565b9050919050565b7f4f776e61626c653a2063616c6c6572206973206e6f7420746865206f776e6572600082015250565b6000615b8960208361431d565b9150615b9482615b53565b602082019050919050565b60006020820190508181036000830152615bb881615b7c565b9050919050565b7f4552433732313a20617070726f766520746f2063616c6c657200000000000000600082015250565b6000615bf560198361431d565b9150615c0082615bbf565b602082019050919050565b60006020820190508181036000830152615c2481615be8565b9050919050565b7f4552433732313a207472616e7366657220746f206e6f6e20455243373231526560008201527f63656976657220696d706c656d656e7465720000000000000000000000000000602082015250565b6000615c8760328361431d565b9150615c9282615c2b565b604082019050919050565b60006020820190508181036000830152615cb681615c7a565b9050919050565b7f4e487b7100000000000000000000000000000000000000000000000000000000600052601260045260246000fd5b7f455243373231456e756d657261626c653a20636f6e736563757469766520747260008201527f616e7366657273206e6f7420737570706f727465640000000000000000000000602082015250565b6000615d4860358361431d565b9150615d5382615cec565b604082019050919050565b60006020820190508181036000830152615d7781615d3b565b9050919050565b600081519050919050565b600082825260208201905092915050565b6000615da582615d7e565b615daf8185615d89565b9350615dbf81856020860161432e565b615dc8816140d9565b840191505092915050565b6000608082019050615de8600083018761441b565b615df5602083018661441b565b615e0260408301856144b1565b8181036060830152615e148184615d9a565b905095945050505050565b600081519050615e2e8161400a565b92915050565b600060208284031215615e4a57615e49613fd4565b5b6000615e5884828501615e1f565b91505092915050565b7f4e487b7100000000000000000000000000000000000000000000000000000000600052603160045260246000fdfea2646970667358221220bec8f59bdbb625f3958fe365d2c67d078dda3029f5c67cbce92a2aa5b5ac6d3c64736f6c63430008090033",
  "linkReferences": {},
  "deployedLinkReferences": {}
}