{
  "_format": "hh-sol-artifact-1",
  "contractName": "Company",
  "sourceName": "contracts/companies/Generic/Company.sol",
  "abi": [
    {
      "inputs": [
        {
          "internalType": "address",
          "name": "_repository",
          "type": "address"
        },
        {
          "internalType": "address",
          "name": "_stringNFT",
          "type": "address"
        },
        {
          "internalType": "address",
          "name": "_coinContractAddress",
          "type": "address"
        },
        {
          "internalType": "address",
          "name": "_rewardContract",
          "type": "address"
        },
        {
          "internalType": "string",
          "name": "_name",
          "type": "string"
        },
        {
          "internalType": "uint64",
          "name": "_companyId",
          "type": "uint64"
        }
      ],
      "stateMutability": "nonpayable",
      "type": "constructor"
    },
    {
      "inputs": [
        {
          "internalType": "address",
          "name": "_employee",
          "type": "address"
        },
        {
          "internalType": "uint64",
          "name": "_companyId",
          "type": "uint64"
        },
        {
          "internalType": "string",
          "name": "_metadata",
          "type": "string"
        },
        {
          "internalType": "uint8",
          "name": "_level",
          "type": "uint8"
        }
      ],
      "name": "addEmployee",
      "outputs": [
        {
          "internalType": "uint64",
          "name": "",
          "type": "uint64"
        }
      ],
      "stateMutability": "nonpayable",
      "type": "function"
    },
    {
      "inputs": [
        {
          "internalType": "string",
          "name": "_metadata",
          "type": "string"
        }
      ],
      "name": "addProduct",
      "outputs": [],
      "stateMutability": "nonpayable",
      "type": "function"
    },
    {
      "inputs": [],
      "name": "getAllEmployees",
      "outputs": [
        {
          "internalType": "address[]",
          "name": "",
          "type": "address[]"
        },
        {
          "internalType": "string[]",
          "name": "",
          "type": "string[]"
        },
        {
          "internalType": "uint8[]",
          "name": "",
          "type": "uint8[]"
        }
      ],
      "stateMutability": "view",
      "type": "function"
    },
    {
      "inputs": [],
      "name": "getAllProducts",
      "outputs": [
        {
          "internalType": "uint128[]",
          "name": "",
          "type": "uint128[]"
        },
        {
          "internalType": "string[]",
          "name": "",
          "type": "string[]"
        }
      ],
      "stateMutability": "view",
      "type": "function"
    },
    {
      "inputs": [
        {
          "internalType": "uint64",
          "name": "_id",
          "type": "uint64"
        }
      ],
      "name": "getProductById",
      "outputs": [
        {
          "internalType": "string",
          "name": "",
          "type": "string"
        }
      ],
      "stateMutability": "view",
      "type": "function"
    },
    {
      "inputs": [],
      "name": "getRewardBalance",
      "outputs": [
        {
          "internalType": "uint256",
          "name": "",
          "type": "uint256"
        }
      ],
      "stateMutability": "view",
      "type": "function"
    },
    {
      "inputs": [],
      "name": "getStakedBalance",
      "outputs": [
        {
          "internalType": "uint256",
          "name": "",
          "type": "uint256"
        }
      ],
      "stateMutability": "view",
      "type": "function"
    },
    {
      "inputs": [
        {
          "internalType": "address",
          "name": "_stakeRepository",
          "type": "address"
        }
      ],
      "name": "initializeStakeRepository",
      "outputs": [],
      "stateMutability": "nonpayable",
      "type": "function"
    },
    {
      "inputs": [
        {
          "internalType": "uint128",
          "name": "_productId",
          "type": "uint128"
        },
        {
          "internalType": "uint128",
          "name": "_amount",
          "type": "uint128"
        }
      ],
      "name": "mintNewProduct",
      "outputs": [],
      "stateMutability": "nonpayable",
      "type": "function"
    },
    {
      "inputs": [
        {
          "internalType": "uint128",
          "name": "_amount",
          "type": "uint128"
        }
      ],
      "name": "stake",
      "outputs": [],
      "stateMutability": "nonpayable",
      "type": "function"
    },
    {
      "inputs": [
        {
          "internalType": "uint128",
          "name": "_amount",
          "type": "uint128"
        }
      ],
      "name": "withdraw",
      "outputs": [],
      "stateMutability": "nonpayable",
      "type": "function"
    }
  ],
  "bytecode": "0x60806040523480156200001157600080fd5b5060405162001439380380620014398339810160408190526200003491620001cc565b600080546001600160a01b0388166001600160a01b03199182168117909255600180549091169091179055815162000074906006906020850190620000db565b50600780546001600160401b039092166001600160401b031990921691909117905550600580546001600160a01b039485166001600160a01b0319918216179091556003805493851693821693909317909255600480549190931691161790555062000344565b828054620000e99062000307565b90600052602060002090601f0160209004810192826200010d576000855562000158565b82601f106200012857805160ff191683800117855562000158565b8280016001018555821562000158579182015b82811115620001585782518255916020019190600101906200013b565b50620001669291506200016a565b5090565b5b808211156200016657600081556001016200016b565b80516001600160a01b03811681146200019957600080fd5b919050565b634e487b7160e01b600052604160045260246000fd5b80516001600160401b03811681146200019957600080fd5b60008060008060008060c08789031215620001e657600080fd5b620001f18762000181565b955060206200020281890162000181565b9550620002126040890162000181565b9450620002226060890162000181565b60808901519094506001600160401b03808211156200024057600080fd5b818a0191508a601f8301126200025557600080fd5b8151818111156200026a576200026a6200019e565b604051601f8201601f19908116603f011681019083821181831017156200029557620002956200019e565b816040528281528d86848701011115620002ae57600080fd5b600093505b82841015620002d25784840186015181850187015292850192620002b3565b82841115620002e45760008684830101525b809750505050505050620002fb60a08801620001b4565b90509295509295509295565b600181811c908216806200031c57607f821691505b602082108114156200033e57634e487b7160e01b600052602260045260246000fd5b50919050565b6110e580620003546000396000f3fe608060405234801561001057600080fd5b50600436106100a95760003560e01c80637696586711610071578063769658671461014357806388fe2be81461014b5780638917d17a1461015e57806396d754cd14610171578063dfe00c5114610184578063e3366fed1461019757600080fd5b806302387a7b146100ae57806302ee3a52146100c35780635909978e146100e25780635e42b4551461010d5780636082b65714610123575b600080fd5b6100c16100bc3660046108f0565b6101ae565b005b6100cb6102af565b6040516100d99291906109c2565b60405180910390f35b6100f56100f0366004610b25565b610344565b6040516001600160401b0390911681526020016100d9565b6101156103c2565b6040519081526020016100d9565b610136610131366004610b97565b61044d565b6040516100d99190610bb2565b6101156104dc565b6100c16101593660046108f0565b610521565b6100c161016c366004610bc5565b6105d0565b6100c161017f366004610bfe565b610732565b6100c1610192366004610c1b565b6107d9565b61019f61083e565b6040516100d993929190610c57565b600254604051630161d2ab60e51b81526001600160801b03831660048201526001600160a01b0390911690632c3a556090602401600060405180830381600087803b1580156101fc57600080fd5b505af1158015610210573d6000803e3d6000fd5b50506003546002546040516323b872dd60e01b81526001600160a01b0391821660048201523360248201526001600160801b0386166044820152911692506323b872dd91506064015b602060405180830381600087803b15801561027357600080fd5b505af1158015610287573d6000803e3d6000fd5b505050506040513d601f19601f820116820180604052508101906102ab9190610cf3565b5050565b606080600160009054906101000a90046001600160a01b03166001600160a01b03166302ee3a526040518163ffffffff1660e01b815260040160006040518083038186803b15801561030057600080fd5b505afa158015610314573d6000803e3d6000fd5b505050506040513d6000823e601f3d908101601f1916820160405261033c9190810190610e07565b915091509091565b600154604051632c84cbc760e11b81526000916001600160a01b031690635909978e9061037b908890889088908890600401610ecb565b600060405180830381600087803b15801561039557600080fd5b505af11580156103a9573d6000803e3d6000fd5b50506007546001600160401b0316979650505050505050565b60025460408051635e42b45560e01b815290516000926001600160a01b031691635e42b455916004808301926020929190829003018186803b15801561040757600080fd5b505afa15801561041b573d6000803e3d6000fd5b505050506040513d601f19601f8201168201806040525081019061043f9190610f12565b6001600160801b0316905090565b600154604051636082b65760e01b81526001600160401b03831660048201526060916001600160a01b031690636082b6579060240160006040518083038186803b15801561049a57600080fd5b505afa1580156104ae573d6000803e3d6000fd5b505050506040513d6000823e601f3d908101601f191682016040526104d69190810190610f2f565b92915050565b6002546040805163a4e15db960e01b815290516000926001600160a01b03169163a4e15db9916004808301926020929190829003018186803b15801561040757600080fd5b60025460405163261b628760e21b81526001600160801b03831660048201526001600160a01b039091169063986d8a1c90602401600060405180830381600087803b15801561056f57600080fd5b505af1158015610583573d6000803e3d6000fd5b50506003546002546040516323b872dd60e01b81523360048201526001600160a01b0391821660248201526001600160801b0386166044820152911692506323b872dd9150606401610259565b60055460405163c21ab7f960e01b81523360048201526000916001600160a01b03169063c21ab7f990602401602060405180830381600087803b15801561061657600080fd5b505af115801561062a573d6000803e3d6000fd5b505050506040513d601f19601f8201168201806040525081019061064e9190610f12565b6001546040516363c9363d60e01b81526001600160801b038084166004830152861660248201529192506001600160a01b0316906363c9363d90604401600060405180830381600087803b1580156106a557600080fd5b505af11580156106b9573d6000803e3d6000fd5b505060048054604051630feb993960e41b81526001600160801b038087169382019390935291861660248301526001600160a01b0316925063feb993909150604401600060405180830381600087803b15801561071557600080fd5b505af1158015610729573d6000803e3d6000fd5b50505050505050565b600754600160401b900460ff161561079e5760405162461bcd60e51b815260206004820152602560248201527f546869732066756e6374696f6e2063616e206f6e6c792062652063616c6c6564604482015264206f6e636560d81b606482015260840160405180910390fd5b600280546001600160a01b039092166001600160a01b03199092169190911790556007805468ff00000000000000001916600160401b179055565b60015460405163dfe00c5160e01b81526001600160a01b039091169063dfe00c5190610809908490600401610bb2565b600060405180830381600087803b15801561082357600080fd5b505af1158015610837573d6000803e3d6000fd5b5050505050565b6060806060600160009054906101000a90046001600160a01b03166001600160a01b031663e3366fed6040518163ffffffff1660e01b815260040160006040518083038186803b15801561089157600080fd5b505afa1580156108a5573d6000803e3d6000fd5b505050506040513d6000823e601f3d908101601f191682016040526108cd9190810190610fc7565b925092509250909192565b6001600160801b03811681146108ed57600080fd5b50565b60006020828403121561090257600080fd5b813561090d816108d8565b9392505050565b60005b8381101561092f578181015183820152602001610917565b8381111561093e576000848401525b50505050565b6000815180845261095c816020860160208601610914565b601f01601f19169290920160200192915050565b6000815180845260208085019450848260051b860182860160005b858110156109b55783830389526109a3838351610944565b9885019892509084019060010161098b565b5090979650505050505050565b604080825283519082018190526000906020906060840190828701845b82811015610a045781516001600160801b0316845292840192908401906001016109df565b50505083810382850152610a188186610970565b9695505050505050565b6001600160a01b03811681146108ed57600080fd5b80356001600160401b0381168114610a4e57600080fd5b919050565b634e487b7160e01b600052604160045260246000fd5b604051601f8201601f191681016001600160401b0381118282101715610a9157610a91610a53565b604052919050565b60006001600160401b03821115610ab257610ab2610a53565b50601f01601f191660200190565b600082601f830112610ad157600080fd5b8135610ae4610adf82610a99565b610a69565b818152846020838601011115610af957600080fd5b816020850160208301376000918101602001919091529392505050565b60ff811681146108ed57600080fd5b60008060008060808587031215610b3b57600080fd5b8435610b4681610a22565b9350610b5460208601610a37565b925060408501356001600160401b03811115610b6f57600080fd5b610b7b87828801610ac0565b9250506060850135610b8c81610b16565b939692955090935050565b600060208284031215610ba957600080fd5b61090d82610a37565b60208152600061090d6020830184610944565b60008060408385031215610bd857600080fd5b8235610be3816108d8565b91506020830135610bf3816108d8565b809150509250929050565b600060208284031215610c1057600080fd5b813561090d81610a22565b600060208284031215610c2d57600080fd5b81356001600160401b03811115610c4357600080fd5b610c4f84828501610ac0565b949350505050565b606080825284519082018190526000906020906080840190828801845b82811015610c995781516001600160a01b031684529284019290840190600101610c74565b50505083810382850152610cad8187610970565b8481036040860152855180825283870192509083019060005b81811015610ce557835160ff1683529284019291840191600101610cc6565b509098975050505050505050565b600060208284031215610d0557600080fd5b8151801515811461090d57600080fd5b60006001600160401b03821115610d2e57610d2e610a53565b5060051b60200190565b600082601f830112610d4957600080fd5b8151610d57610adf82610a99565b818152846020838601011115610d6c57600080fd5b610c4f826020830160208701610914565b600082601f830112610d8e57600080fd5b81516020610d9e610adf83610d15565b82815260059290921b84018101918181019086841115610dbd57600080fd5b8286015b84811015610dfc5780516001600160401b03811115610de05760008081fd5b610dee8986838b0101610d38565b845250918301918301610dc1565b509695505050505050565b60008060408385031215610e1a57600080fd5b82516001600160401b0380821115610e3157600080fd5b818501915085601f830112610e4557600080fd5b81516020610e55610adf83610d15565b82815260059290921b84018101918181019089841115610e7457600080fd5b948201945b83861015610e9b578551610e8c816108d8565b82529482019490820190610e79565b91880151919650909350505080821115610eb457600080fd5b50610ec185828601610d7d565b9150509250929050565b6001600160a01b03851681526001600160401b0384166020820152608060408201819052600090610efe90830185610944565b905060ff8316606083015295945050505050565b600060208284031215610f2457600080fd5b815161090d816108d8565b600060208284031215610f4157600080fd5b81516001600160401b03811115610f5757600080fd5b610c4f84828501610d38565b600082601f830112610f7457600080fd5b81516020610f84610adf83610d15565b82815260059290921b84018101918181019086841115610fa357600080fd5b8286015b84811015610dfc578051610fba81610b16565b8352918301918301610fa7565b600080600060608486031215610fdc57600080fd5b83516001600160401b0380821115610ff357600080fd5b818601915086601f83011261100757600080fd5b81516020611017610adf83610d15565b82815260059290921b8401810191818101908a84111561103657600080fd5b948201945b8386101561105d57855161104e81610a22565b8252948201949082019061103b565b9189015191975090935050508082111561107657600080fd5b61108287838801610d7d565b9350604086015191508082111561109857600080fd5b506110a586828701610f63565b915050925092509256fea2646970667358221220e89e22f1eaed0fa7e97f39d788f85f93b76f033f69ea6d253f5b313b5996b9be64736f6c63430008090033",
  "linkReferences": {},
  "deployedLinkReferences": {}
}