{
  "_format": "hh-sol-artifact-1",
  "contractName": "CompanyFactory",
  "sourceName": "contracts/CompanyFactory.sol",
  "abi": [
    {
      "inputs": [
        {
          "internalType": "address",
          "name": "_registry",
          "type": "address"
        },
        {
          "internalType": "address",
          "name": "_coinContractAddress",
          "type": "address"
        },
        {
          "internalType": "address",
          "name": "_rewardContract",
          "type": "address"
        },
        {
          "internalType": "address",
          "name": "_stringNFT",
          "type": "address"
        }
      ],
      "stateMutability": "nonpayable",
      "type": "constructor"
    },
    {
      "anonymous": false,
      "inputs": [
        {
          "indexed": true,
          "internalType": "address",
          "name": "previousOwner",
          "type": "address"
        },
        {
          "indexed": true,
          "internalType": "address",
          "name": "newOwner",
          "type": "address"
        }
      ],
      "name": "OwnershipTransferred",
      "type": "event"
    },
    {
      "inputs": [
        {
          "internalType": "string",
          "name": "_companyName",
          "type": "string"
        },
        {
          "internalType": "address",
          "name": "_adminAddress",
          "type": "address"
        }
      ],
      "name": "createCompany",
      "outputs": [],
      "stateMutability": "nonpayable",
      "type": "function"
    },
    {
      "inputs": [],
      "name": "getCompanies",
      "outputs": [
        {
          "internalType": "address[]",
          "name": "",
          "type": "address[]"
        }
      ],
      "stateMutability": "view",
      "type": "function"
    },
    {
      "inputs": [],
      "name": "owner",
      "outputs": [
        {
          "internalType": "address",
          "name": "",
          "type": "address"
        }
      ],
      "stateMutability": "view",
      "type": "function"
    },
    {
      "inputs": [],
      "name": "renounceOwnership",
      "outputs": [],
      "stateMutability": "nonpayable",
      "type": "function"
    },
    {
      "inputs": [
        {
          "internalType": "address",
          "name": "newOwner",
          "type": "address"
        }
      ],
      "name": "transferOwnership",
      "outputs": [],
      "stateMutability": "nonpayable",
      "type": "function"
    },
    {
      "inputs": [
        {
          "internalType": "address",
          "name": "_oldAddress",
          "type": "address"
        },
        {
          "internalType": "address",
          "name": "_newAddress",
          "type": "address"
        }
      ],
      "name": "updateCompanyImplementation",
      "outputs": [],
      "stateMutability": "nonpayable",
      "type": "function"
    }
  ],
  "bytecode": "0x6080604052600280546001600160401b031916905534801561002057600080fd5b5060405161342838038061342883398101604081905261003f9161011c565b610048336100b0565b600380546001600160a01b03199081166001600160a01b039586161790915560028054600160401b600160e01b031916680100000000000000009686169690960295909517909455600480548516918416919091179055600580549093169116179055610170565b600080546001600160a01b038381166001600160a01b0319831681178455604051919092169283917f8be0079c531659141344cd1fd0a4f28419497f9722a3daafe3b4186f6b6457e09190a35050565b80516001600160a01b038116811461011757600080fd5b919050565b6000806000806080858703121561013257600080fd5b61013b85610100565b935061014960208601610100565b925061015760408601610100565b915061016560608601610100565b905092959194509250565b6132a98061017f6000396000f3fe60806040523480156200001157600080fd5b50600436106200006a5760003560e01c80630c0b6691146200006f578063715018a614620000915780638da5cb5b146200009d578063dce8a0f514620000b9578063f22f2a1a14620000d0578063f2fde38b14620000e7575b600080fd5b62000079620000fe565b604051620000889190620006c3565b60405180910390f35b6200009b62000162565b005b6000546040516001600160a01b03909116815260200162000088565b6200009b620000ca3660046200072f565b6200017a565b6200009b620000e13660046200077d565b62000188565b6200009b620000f836600462000842565b6200056e565b606060018054806020026020016040519081016040528092919081815260200182805480156200015857602002820191906000526020600020905b81546001600160a01b0316815260019091019060200180831162000139575b5050505050905090565b6200016c620005ed565b62000178600062000649565b565b62000184620005ed565b5050565b62000192620005ed565b6000604051620001a29062000699565b604051809103906000f080158015620001bf573d6000803e3d6000fd5b5060045460035460055460025460405194955060009486946001600160a01b03908116948116931691899167ffffffffffffffff909116906200020290620006a7565b62000213969594939291906200089a565b604051809103906000f08015801562000230573d6000803e3d6000fd5b50600254604051632c84cbc760e11b81526001600160a01b03868116600483015267ffffffffffffffff90921660248201526080604482015260006084820152600a6064820152919250821690635909978e9060a401602060405180830381600087803b158015620002a157600080fd5b505af1158015620002b6573d6000803e3d6000fd5b505050506040513d601f19601f82011682018060405250810190620002dc91906200090d565b5060035460405163095ea7b360e01b81526001600160a01b038381166004830152683635c9adc5dea0000060248301529091169063095ea7b390604401602060405180830381600087803b1580156200033457600080fd5b505af115801562000349573d6000803e3d6000fd5b505050506040513d601f19601f820116820180604052508101906200036f919062000939565b506000816040516200038190620006b5565b6001600160a01b039091168152602001604051809103906000f080158015620003ae573d6000803e3d6000fd5b506040516396d754cd60e01b81526001600160a01b038083166004830152919250908316906396d754cd90602401600060405180830381600087803b158015620003f757600080fd5b505af11580156200040c573d6000803e3d6000fd5b50506002546040516001600160a01b0386811660248301523360448301526000945068010000000000000000909204909116915060640160408051601f198184030181529181526020820180516001600160e01b03166385a0e59d60e01b179052516200047a91906200095d565b6000604051808303816000865af19150503d8060008114620004b9576040519150601f19603f3d011682016040523d82523d6000602084013e620004be565b606091505b5050905080620005235760405162461bcd60e51b815260206004820152602560248201527f4661696c656420746f2061646420636f6d70616e7920746f2074686520726567604482015264697374727960d81b60648201526084015b60405180910390fd5b6002805467ffffffffffffffff169060006200053f836200097b565b91906101000a81548167ffffffffffffffff021916908367ffffffffffffffff16021790555050505050505050565b62000578620005ed565b6001600160a01b038116620005df5760405162461bcd60e51b815260206004820152602660248201527f4f776e61626c653a206e6577206f776e657220697320746865207a65726f206160448201526564647265737360d01b60648201526084016200051a565b620005ea8162000649565b50565b6000546001600160a01b03163314620001785760405162461bcd60e51b815260206004820181905260248201527f4f776e61626c653a2063616c6c6572206973206e6f7420746865206f776e657260448201526064016200051a565b600080546001600160a01b038381166001600160a01b0319831681178455604051919092169283917f8be0079c531659141344cd1fd0a4f28419497f9722a3daafe3b4186f6b6457e09190a35050565b61109180620009b383390190565b6114398062001a4483390190565b6103f78062002e7d83390190565b6020808252825182820181905260009190848201906040850190845b81811015620007065783516001600160a01b031683529284019291840191600101620006df565b50909695505050505050565b80356001600160a01b03811681146200072a57600080fd5b919050565b600080604083850312156200074357600080fd5b6200074e8362000712565b91506200075e6020840162000712565b90509250929050565b634e487b7160e01b600052604160045260246000fd5b600080604083850312156200079157600080fd5b823567ffffffffffffffff80821115620007aa57600080fd5b818501915085601f830112620007bf57600080fd5b813581811115620007d457620007d462000767565b604051601f8201601f19908116603f01168101908382118183101715620007ff57620007ff62000767565b816040528281528860208487010111156200081957600080fd5b8260208601602083013760006020848301015280965050505050506200075e6020840162000712565b6000602082840312156200085557600080fd5b620008608262000712565b9392505050565b60005b83811015620008845781810151838201526020016200086a565b8381111562000894576000848401525b50505050565b600060018060a01b0380891683528088166020840152808716604084015280861660608401525060c0608083015283518060c0840152620008e38160e085016020880162000867565b67ffffffffffffffff9390931660a083015250601f91909101601f19160160e00195945050505050565b6000602082840312156200092057600080fd5b815167ffffffffffffffff811681146200086057600080fd5b6000602082840312156200094c57600080fd5b815180151581146200086057600080fd5b600082516200097181846020870162000867565b9190910192915050565b600067ffffffffffffffff80831681811415620009a857634e487b7160e01b600052601160045260246000fd5b600101939250505056fe608060405234801561001057600080fd5b50600780546001600160a01b031916301790556008805462010000600160801b031916905561104d806100446000396000f3fe608060405234801561001057600080fd5b506004361061009e5760003560e01c806363c9363d1161006657806363c9363d1461015b5780639f64bd48146101ba578063dfe00c51146101fb578063e3366fed1461020e578063f72106331461022557600080fd5b806302ee3a52146100a35780632f73ddc9146100c257806338bfc421146100e25780635909978e146101265780636082b6571461013b575b600080fd5b6100ab6102a0565b6040516100b9929190610c3a565b60405180910390f35b6100d56100d0366004610c84565b6104cb565b6040516100b99190610ca6565b61010e6100f0366004610c84565b6001600160801b039081166000908152600560205260409020541690565b6040516001600160801b0390911681526020016100b9565b610139610134366004610d8b565b610569565b005b61014e610149366004610e02565b610695565b6040516100b99190610e1d565b610139610169366004610e30565b6001600160801b03908116600090815260066020908152604082208054600180820183559184529190922060028204018054929091166010026101000a808402199092169390921602919091179055565b6101e96101c8366004610e63565b6001600160a01b031660009081526020819052604090206002015460ff1690565b60405160ff90911681526020016100b9565b610139610209366004610e7e565b610738565b61021661080b565b6040516100b993929190610ebb565b6008546102659061ffff8082169162010000810463ffffffff169166010000000000008204169068010000000000000000900467ffffffffffffffff1684565b6040805161ffff958616815263ffffffff949094166020850152919093169082015267ffffffffffffffff90911660608201526080016100b9565b606080600060048054905067ffffffffffffffff8111156102c3576102c3610ce8565b6040519080825280602002602001820160405280156102f657816020015b60608152602001906001900390816102e15790505b50905060005b6004546001600160801b038216101561043a57600360006004836001600160801b03168154811061032f5761032f610f57565b90600052602060002090600291828204019190066010029054906101000a90046001600160801b03166001600160801b03166001600160801b03168152602001908152602001600020805461038390610f6d565b80601f01602080910402602001604051908101604052809291908181526020018280546103af90610f6d565b80156103fc5780601f106103d1576101008083540402835291602001916103fc565b820191906000526020600020905b8154815290600101906020018083116103df57829003601f168201915b505050505082826001600160801b03168151811061041c5761041c610f57565b6020026020010181905250808061043290610fbe565b9150506102fc565b50600481818054806020026020016040519081016040528092919081815260200182805480156104bb57602002820191906000526020600020906000905b82829054906101000a90046001600160801b03166001600160801b031681526020019060100190602082600f010492830192600103820291508084116104785790505b5050505050915092509250509091565b6001600160801b03811660009081526006602090815260409182902080548351818402810184019094528084526060939283018282801561055d57602002820191906000526020600020906000905b82829054906101000a90046001600160801b03166001600160801b031681526020019060100190602082600f0104928301926001038202915080841161051a5790505b50505050509050919050565b604080516080810182526001600160a01b0380871680835267ffffffffffffffff808816602080860191825285870189815260ff89166060880152600094855284825296909320855181549251909316600160a01b026001600160e01b0319909216929094169190911717825592518051929391926105ee9260018501920190610ab8565b50606091909101516002909101805460ff191660ff9092169190911790556001805480820182556000919091527fb10e2d527612073b26eecdfd717e6a320cf44b4afac2b0732d9fcbe2b7fa0cf60180546001600160a01b0319166001600160a01b038616179055600880546601000000000000900461ffff1690600661067483610fe5565b91906101000a81548161ffff021916908361ffff1602179055505050505050565b67ffffffffffffffff811660009081526003602052604090208054606091906106bd90610f6d565b80601f01602080910402602001604051908101604052809291908181526020018280546106e990610f6d565b801561055d5780601f1061070b5761010080835404028352916020019161055d565b820191906000526020600020905b8154815290600101906020018083116107195750939695505050505050565b60085462010000900463ffffffff166000908152600360209081526040909120825161076692840190610ab8565b5060088054600480546001818101835560009290925260028082047f8a35acfbc15ff81a39ae7d344fd709f28e8600b4aa8c65c6b64bfe7fe36bd19b018054601093909416929092026101000a63ffffffff6201000095869004811682026001600160801b0390920219909416179091558354929092041691906107e983610ffd565b91906101000a81548163ffffffff021916908363ffffffff1602179055505050565b6060806060600060018054905067ffffffffffffffff81111561083057610830610ce8565b60405190808252806020026020018201604052801561086357816020015b606081526020019060019003908161084e5790505b5060015490915060009067ffffffffffffffff81111561088557610885610ce8565b6040519080825280602002602001820160405280156108ae578160200160208202803683370190505b50905060005b6001546001600160801b0382161015610a4a576000806001836001600160801b0316815481106108e6576108e6610f57565b60009182526020808320909101546001600160a01b031683528201929092526040019020600101805461091890610f6d565b80601f016020809104026020016040519081016040528092919081815260200182805461094490610f6d565b80156109915780601f1061096657610100808354040283529160200191610991565b820191906000526020600020905b81548152906001019060200180831161097457829003601f168201915b505050505083826001600160801b0316815181106109b1576109b1610f57565b60200260200101819052506000806001836001600160801b0316815481106109db576109db610f57565b60009182526020808320909101546001600160a01b03168352820192909252604001902060020154825160ff9091169083906001600160801b038416908110610a2657610a26610f57565b60ff9092166020928302919091019091015280610a4281610fbe565b9150506108b4565b506001828282805480602002602001604051908101604052809291908181526020018280548015610aa457602002820191906000526020600020905b81546001600160a01b03168152600190910190602001808311610a86575b505050505092509450945094505050909192565b828054610ac490610f6d565b90600052602060002090601f016020900481019282610ae65760008555610b2c565b82601f10610aff57805160ff1916838001178555610b2c565b82800160010185558215610b2c579182015b82811115610b2c578251825591602001919060010190610b11565b50610b38929150610b3c565b5090565b5b80821115610b385760008155600101610b3d565b600081518084526020808501945080840160005b83811015610b8a5781516001600160801b031687529582019590820190600101610b65565b509495945050505050565b6000815180845260005b81811015610bbb57602081850181015186830182015201610b9f565b81811115610bcd576000602083870101525b50601f01601f19169290920160200192915050565b600082825180855260208086019550808260051b84010181860160005b84811015610c2d57601f19868403018952610c1b838351610b95565b98840198925090830190600101610bff565b5090979650505050505050565b604081526000610c4d6040830185610b51565b8281036020840152610c5f8185610be2565b95945050505050565b80356001600160801b0381168114610c7f57600080fd5b919050565b600060208284031215610c9657600080fd5b610c9f82610c68565b9392505050565b602081526000610c9f6020830184610b51565b80356001600160a01b0381168114610c7f57600080fd5b803567ffffffffffffffff81168114610c7f57600080fd5b634e487b7160e01b600052604160045260246000fd5b600082601f830112610d0f57600080fd5b813567ffffffffffffffff80821115610d2a57610d2a610ce8565b604051601f8301601f19908116603f01168101908282118183101715610d5257610d52610ce8565b81604052838152866020858801011115610d6b57600080fd5b836020870160208301376000602085830101528094505050505092915050565b60008060008060808587031215610da157600080fd5b610daa85610cb9565b9350610db860208601610cd0565b9250604085013567ffffffffffffffff811115610dd457600080fd5b610de087828801610cfe565b925050606085013560ff81168114610df757600080fd5b939692955090935050565b600060208284031215610e1457600080fd5b610c9f82610cd0565b602081526000610c9f6020830184610b95565b60008060408385031215610e4357600080fd5b610e4c83610c68565b9150610e5a60208401610c68565b90509250929050565b600060208284031215610e7557600080fd5b610c9f82610cb9565b600060208284031215610e9057600080fd5b813567ffffffffffffffff811115610ea757600080fd5b610eb384828501610cfe565b949350505050565b606080825284519082018190526000906020906080840190828801845b82811015610efd5781516001600160a01b031684529284019290840190600101610ed8565b50505083810382850152610f118187610be2565b8481036040860152855180825283870192509083019060005b81811015610f4957835160ff1683529284019291840191600101610f2a565b509098975050505050505050565b634e487b7160e01b600052603260045260246000fd5b600181811c90821680610f8157607f821691505b60208210811415610fa257634e487b7160e01b600052602260045260246000fd5b50919050565b634e487b7160e01b600052601160045260246000fd5b60006001600160801b0380831681811415610fdb57610fdb610fa8565b6001019392505050565b600061ffff80831681811415610fdb57610fdb610fa8565b600063ffffffff80831681811415610fdb57610fdb610fa856fea26469706673582212208ca5192ad5249f8f4e8e2beb4d94ca10bcac7144359200821bb0be5f43a5797e64736f6c6343000809003360806040523480156200001157600080fd5b5060405162001439380380620014398339810160408190526200003491620001cc565b600080546001600160a01b0388166001600160a01b03199182168117909255600180549091169091179055815162000074906006906020850190620000db565b50600780546001600160401b039092166001600160401b031990921691909117905550600580546001600160a01b039485166001600160a01b0319918216179091556003805493851693821693909317909255600480549190931691161790555062000344565b828054620000e99062000307565b90600052602060002090601f0160209004810192826200010d576000855562000158565b82601f106200012857805160ff191683800117855562000158565b8280016001018555821562000158579182015b82811115620001585782518255916020019190600101906200013b565b50620001669291506200016a565b5090565b5b808211156200016657600081556001016200016b565b80516001600160a01b03811681146200019957600080fd5b919050565b634e487b7160e01b600052604160045260246000fd5b80516001600160401b03811681146200019957600080fd5b60008060008060008060c08789031215620001e657600080fd5b620001f18762000181565b955060206200020281890162000181565b9550620002126040890162000181565b9450620002226060890162000181565b60808901519094506001600160401b03808211156200024057600080fd5b818a0191508a601f8301126200025557600080fd5b8151818111156200026a576200026a6200019e565b604051601f8201601f19908116603f011681019083821181831017156200029557620002956200019e565b816040528281528d86848701011115620002ae57600080fd5b600093505b82841015620002d25784840186015181850187015292850192620002b3565b82841115620002e45760008684830101525b809750505050505050620002fb60a08801620001b4565b90509295509295509295565b600181811c908216806200031c57607f821691505b602082108114156200033e57634e487b7160e01b600052602260045260246000fd5b50919050565b6110e580620003546000396000f3fe608060405234801561001057600080fd5b50600436106100a95760003560e01c80637696586711610071578063769658671461014357806388fe2be81461014b5780638917d17a1461015e57806396d754cd14610171578063dfe00c5114610184578063e3366fed1461019757600080fd5b806302387a7b146100ae57806302ee3a52146100c35780635909978e146100e25780635e42b4551461010d5780636082b65714610123575b600080fd5b6100c16100bc3660046108f0565b6101ae565b005b6100cb6102af565b6040516100d99291906109c2565b60405180910390f35b6100f56100f0366004610b25565b610344565b6040516001600160401b0390911681526020016100d9565b6101156103c2565b6040519081526020016100d9565b610136610131366004610b97565b61044d565b6040516100d99190610bb2565b6101156104dc565b6100c16101593660046108f0565b610521565b6100c161016c366004610bc5565b6105d0565b6100c161017f366004610bfe565b610732565b6100c1610192366004610c1b565b6107d9565b61019f61083e565b6040516100d993929190610c57565b600254604051630161d2ab60e51b81526001600160801b03831660048201526001600160a01b0390911690632c3a556090602401600060405180830381600087803b1580156101fc57600080fd5b505af1158015610210573d6000803e3d6000fd5b50506003546002546040516323b872dd60e01b81526001600160a01b0391821660048201523360248201526001600160801b0386166044820152911692506323b872dd91506064015b602060405180830381600087803b15801561027357600080fd5b505af1158015610287573d6000803e3d6000fd5b505050506040513d601f19601f820116820180604052508101906102ab9190610cf3565b5050565b606080600160009054906101000a90046001600160a01b03166001600160a01b03166302ee3a526040518163ffffffff1660e01b815260040160006040518083038186803b15801561030057600080fd5b505afa158015610314573d6000803e3d6000fd5b505050506040513d6000823e601f3d908101601f1916820160405261033c9190810190610e07565b915091509091565b600154604051632c84cbc760e11b81526000916001600160a01b031690635909978e9061037b908890889088908890600401610ecb565b600060405180830381600087803b15801561039557600080fd5b505af11580156103a9573d6000803e3d6000fd5b50506007546001600160401b0316979650505050505050565b60025460408051635e42b45560e01b815290516000926001600160a01b031691635e42b455916004808301926020929190829003018186803b15801561040757600080fd5b505afa15801561041b573d6000803e3d6000fd5b505050506040513d601f19601f8201168201806040525081019061043f9190610f12565b6001600160801b0316905090565b600154604051636082b65760e01b81526001600160401b03831660048201526060916001600160a01b031690636082b6579060240160006040518083038186803b15801561049a57600080fd5b505afa1580156104ae573d6000803e3d6000fd5b505050506040513d6000823e601f3d908101601f191682016040526104d69190810190610f2f565b92915050565b6002546040805163a4e15db960e01b815290516000926001600160a01b03169163a4e15db9916004808301926020929190829003018186803b15801561040757600080fd5b60025460405163261b628760e21b81526001600160801b03831660048201526001600160a01b039091169063986d8a1c90602401600060405180830381600087803b15801561056f57600080fd5b505af1158015610583573d6000803e3d6000fd5b50506003546002546040516323b872dd60e01b81523360048201526001600160a01b0391821660248201526001600160801b0386166044820152911692506323b872dd9150606401610259565b60055460405163c21ab7f960e01b81523360048201526000916001600160a01b03169063c21ab7f990602401602060405180830381600087803b15801561061657600080fd5b505af115801561062a573d6000803e3d6000fd5b505050506040513d601f19601f8201168201806040525081019061064e9190610f12565b6001546040516363c9363d60e01b81526001600160801b038084166004830152861660248201529192506001600160a01b0316906363c9363d90604401600060405180830381600087803b1580156106a557600080fd5b505af11580156106b9573d6000803e3d6000fd5b505060048054604051630feb993960e41b81526001600160801b038087169382019390935291861660248301526001600160a01b0316925063feb993909150604401600060405180830381600087803b15801561071557600080fd5b505af1158015610729573d6000803e3d6000fd5b50505050505050565b600754600160401b900460ff161561079e5760405162461bcd60e51b815260206004820152602560248201527f546869732066756e6374696f6e2063616e206f6e6c792062652063616c6c6564604482015264206f6e636560d81b606482015260840160405180910390fd5b600280546001600160a01b039092166001600160a01b03199092169190911790556007805468ff00000000000000001916600160401b179055565b60015460405163dfe00c5160e01b81526001600160a01b039091169063dfe00c5190610809908490600401610bb2565b600060405180830381600087803b15801561082357600080fd5b505af1158015610837573d6000803e3d6000fd5b5050505050565b6060806060600160009054906101000a90046001600160a01b03166001600160a01b031663e3366fed6040518163ffffffff1660e01b815260040160006040518083038186803b15801561089157600080fd5b505afa1580156108a5573d6000803e3d6000fd5b505050506040513d6000823e601f3d908101601f191682016040526108cd9190810190610fc7565b925092509250909192565b6001600160801b03811681146108ed57600080fd5b50565b60006020828403121561090257600080fd5b813561090d816108d8565b9392505050565b60005b8381101561092f578181015183820152602001610917565b8381111561093e576000848401525b50505050565b6000815180845261095c816020860160208601610914565b601f01601f19169290920160200192915050565b6000815180845260208085019450848260051b860182860160005b858110156109b55783830389526109a3838351610944565b9885019892509084019060010161098b565b5090979650505050505050565b604080825283519082018190526000906020906060840190828701845b82811015610a045781516001600160801b0316845292840192908401906001016109df565b50505083810382850152610a188186610970565b9695505050505050565b6001600160a01b03811681146108ed57600080fd5b80356001600160401b0381168114610a4e57600080fd5b919050565b634e487b7160e01b600052604160045260246000fd5b604051601f8201601f191681016001600160401b0381118282101715610a9157610a91610a53565b604052919050565b60006001600160401b03821115610ab257610ab2610a53565b50601f01601f191660200190565b600082601f830112610ad157600080fd5b8135610ae4610adf82610a99565b610a69565b818152846020838601011115610af957600080fd5b816020850160208301376000918101602001919091529392505050565b60ff811681146108ed57600080fd5b60008060008060808587031215610b3b57600080fd5b8435610b4681610a22565b9350610b5460208601610a37565b925060408501356001600160401b03811115610b6f57600080fd5b610b7b87828801610ac0565b9250506060850135610b8c81610b16565b939692955090935050565b600060208284031215610ba957600080fd5b61090d82610a37565b60208152600061090d6020830184610944565b60008060408385031215610bd857600080fd5b8235610be3816108d8565b91506020830135610bf3816108d8565b809150509250929050565b600060208284031215610c1057600080fd5b813561090d81610a22565b600060208284031215610c2d57600080fd5b81356001600160401b03811115610c4357600080fd5b610c4f84828501610ac0565b949350505050565b606080825284519082018190526000906020906080840190828801845b82811015610c995781516001600160a01b031684529284019290840190600101610c74565b50505083810382850152610cad8187610970565b8481036040860152855180825283870192509083019060005b81811015610ce557835160ff1683529284019291840191600101610cc6565b509098975050505050505050565b600060208284031215610d0557600080fd5b8151801515811461090d57600080fd5b60006001600160401b03821115610d2e57610d2e610a53565b5060051b60200190565b600082601f830112610d4957600080fd5b8151610d57610adf82610a99565b818152846020838601011115610d6c57600080fd5b610c4f826020830160208701610914565b600082601f830112610d8e57600080fd5b81516020610d9e610adf83610d15565b82815260059290921b84018101918181019086841115610dbd57600080fd5b8286015b84811015610dfc5780516001600160401b03811115610de05760008081fd5b610dee8986838b0101610d38565b845250918301918301610dc1565b509695505050505050565b60008060408385031215610e1a57600080fd5b82516001600160401b0380821115610e3157600080fd5b818501915085601f830112610e4557600080fd5b81516020610e55610adf83610d15565b82815260059290921b84018101918181019089841115610e7457600080fd5b948201945b83861015610e9b578551610e8c816108d8565b82529482019490820190610e79565b91880151919650909350505080821115610eb457600080fd5b50610ec185828601610d7d565b9150509250929050565b6001600160a01b03851681526001600160401b0384166020820152608060408201819052600090610efe90830185610944565b905060ff8316606083015295945050505050565b600060208284031215610f2457600080fd5b815161090d816108d8565b600060208284031215610f4157600080fd5b81516001600160401b03811115610f5757600080fd5b610c4f84828501610d38565b600082601f830112610f7457600080fd5b81516020610f84610adf83610d15565b82815260059290921b84018101918181019086841115610fa357600080fd5b8286015b84811015610dfc578051610fba81610b16565b8352918301918301610fa7565b600080600060608486031215610fdc57600080fd5b83516001600160401b0380821115610ff357600080fd5b818601915086601f83011261100757600080fd5b81516020611017610adf83610d15565b82815260059290921b8401810191818101908a84111561103657600080fd5b948201945b8386101561105d57855161104e81610a22565b8252948201949082019061103b565b9189015191975090935050508082111561107657600080fd5b61108287838801610d7d565b9350604086015191508082111561109857600080fd5b506110a586828701610f63565b915050925092509256fea2646970667358221220e89e22f1eaed0fa7e97f39d788f85f93b76f033f69ea6d253f5b313b5996b9be64736f6c63430008090033608060405234801561001057600080fd5b506040516103f73803806103f783398101604081905261002f9161007c565b6001600160a01b03166000818152600160208190526040909120805460ff19169091179055600280546001600160401b0319169055600380546001600160a01b03191690911790556100ac565b60006020828403121561008e57600080fd5b81516001600160a01b03811681146100a557600080fd5b9392505050565b61033c806100bb6000396000f3fe608060405234801561001057600080fd5b50600436106100625760003560e01c80632c3a5560146100675780635e42b4551461007c578063986d8a1c146100ad578063a4e15db9146100c0578063c2201d2f146100d1578063f7210633146100e2575b600080fd5b61007a61007536600461020a565b61010f565b005b600054600160801b90046001600160801b03165b6040516001600160801b0390911681526020015b60405180910390f35b61007a6100bb36600461020a565b610153565b6000546001600160801b0316610090565b61007a6100df36600461020a565b50565b6002546100f69067ffffffffffffffff1681565b60405167ffffffffffffffff90911681526020016100a4565b60008054829190819061012c9084906001600160801b0316610250565b92506101000a8154816001600160801b0302191690836001600160801b0316021790555050565b6000606461016283605a610278565b61016c91906102a7565b9050600061017a8284610250565b60008054919250839181906101999084906001600160801b03166102db565b92506101000a8154816001600160801b0302191690836001600160801b0316021790555080600060108282829054906101000a90046001600160801b03166101e191906102db565b92506101000a8154816001600160801b0302191690836001600160801b03160217905550505050565b60006020828403121561021c57600080fd5b81356001600160801b038116811461023357600080fd5b9392505050565b634e487b7160e01b600052601160045260246000fd5b60006001600160801b03838116908316818110156102705761027061023a565b039392505050565b60006001600160801b038083168185168183048111821515161561029e5761029e61023a565b02949350505050565b60006001600160801b03808416806102cf57634e487b7160e01b600052601260045260246000fd5b92169190910492915050565b60006001600160801b038083168185168083038211156102fd576102fd61023a565b0194935050505056fea2646970667358221220d3e8e6139ddf47fea27c93cd3fecd23f49d0280afc0844befac688211ac2dec564736f6c63430008090033a2646970667358221220da30a89326b22ec8d2f6c05cb564c096265e3529caf8da96eb6c08bfa4c3874a64736f6c63430008090033",
  "linkReferences": {},
  "deployedLinkReferences": {}
}