{
  "_format": "hh-sol-artifact-1",
  "contractName": "Company",
  "sourceName": "contracts/companies/Generic/Company.sol",
  "abi": [
    {
      "inputs": [
        {
          "internalType": "address",
          "name": "_repository",
          "type": "address"
        },
        {
          "internalType": "address",
          "name": "_stringNFT",
          "type": "address"
        },
        {
          "internalType": "contract IERC20",
          "name": "_coinContractAddress",
          "type": "address"
        },
        {
          "internalType": "address",
          "name": "_rewardContract",
          "type": "address"
        },
        {
          "internalType": "string",
          "name": "_name",
          "type": "string"
        },
        {
          "internalType": "uint64",
          "name": "_companyId",
          "type": "uint64"
        }
      ],
      "stateMutability": "nonpayable",
      "type": "constructor"
    },
    {
      "inputs": [
        {
          "internalType": "address",
          "name": "_employee",
          "type": "address"
        },
        {
          "internalType": "uint64",
          "name": "_companyId",
          "type": "uint64"
        },
        {
          "internalType": "string",
          "name": "_metadata",
          "type": "string"
        },
        {
          "internalType": "uint8",
          "name": "_level",
          "type": "uint8"
        }
      ],
      "name": "addEmployee",
      "outputs": [
        {
          "internalType": "uint64",
          "name": "",
          "type": "uint64"
        }
      ],
      "stateMutability": "nonpayable",
      "type": "function"
    },
    {
      "inputs": [
        {
          "internalType": "string",
          "name": "_metadata",
          "type": "string"
        }
      ],
      "name": "addProduct",
      "outputs": [],
      "stateMutability": "nonpayable",
      "type": "function"
    },
    {
      "inputs": [
        {
          "internalType": "address",
          "name": "account",
          "type": "address"
        }
      ],
      "name": "balanceOf",
      "outputs": [
        {
          "internalType": "uint256",
          "name": "",
          "type": "uint256"
        }
      ],
      "stateMutability": "view",
      "type": "function"
    },
    {
      "inputs": [],
      "name": "getAllEmployees",
      "outputs": [
        {
          "internalType": "address[]",
          "name": "",
          "type": "address[]"
        },
        {
          "internalType": "string[]",
          "name": "",
          "type": "string[]"
        },
        {
          "internalType": "uint8[]",
          "name": "",
          "type": "uint8[]"
        }
      ],
      "stateMutability": "view",
      "type": "function"
    },
    {
      "inputs": [],
      "name": "getAllProducts",
      "outputs": [
        {
          "internalType": "uint128[]",
          "name": "",
          "type": "uint128[]"
        },
        {
          "internalType": "string[]",
          "name": "",
          "type": "string[]"
        }
      ],
      "stateMutability": "view",
      "type": "function"
    },
    {
      "inputs": [
        {
          "internalType": "uint64",
          "name": "_id",
          "type": "uint64"
        }
      ],
      "name": "getProductById",
      "outputs": [
        {
          "internalType": "string",
          "name": "",
          "type": "string"
        }
      ],
      "stateMutability": "view",
      "type": "function"
    },
    {
      "inputs": [],
      "name": "getRewardBalance",
      "outputs": [
        {
          "internalType": "uint256",
          "name": "",
          "type": "uint256"
        }
      ],
      "stateMutability": "view",
      "type": "function"
    },
    {
      "inputs": [],
      "name": "getStakedBalance",
      "outputs": [
        {
          "internalType": "uint256",
          "name": "",
          "type": "uint256"
        }
      ],
      "stateMutability": "view",
      "type": "function"
    },
    {
      "inputs": [
        {
          "internalType": "address",
          "name": "_stakeRepository",
          "type": "address"
        }
      ],
      "name": "initializeStakeRepository",
      "outputs": [],
      "stateMutability": "nonpayable",
      "type": "function"
    },
    {
      "inputs": [
        {
          "internalType": "uint128",
          "name": "_productId",
          "type": "uint128"
        },
        {
          "internalType": "uint128",
          "name": "_amount",
          "type": "uint128"
        }
      ],
      "name": "mintNewProduct",
      "outputs": [],
      "stateMutability": "nonpayable",
      "type": "function"
    },
    {
      "inputs": [
        {
          "internalType": "uint256",
          "name": "amount",
          "type": "uint256"
        }
      ],
      "name": "stake",
      "outputs": [],
      "stateMutability": "nonpayable",
      "type": "function"
    },
    {
      "inputs": [],
      "name": "stringCoin",
      "outputs": [
        {
          "internalType": "contract IERC20",
          "name": "",
          "type": "address"
        }
      ],
      "stateMutability": "view",
      "type": "function"
    },
    {
      "inputs": [
        {
          "internalType": "uint256",
          "name": "amount",
          "type": "uint256"
        }
      ],
      "name": "withdraw",
      "outputs": [],
      "stateMutability": "nonpayable",
      "type": "function"
    }
  ],
  "bytecode": "0x60806040523480156200001157600080fd5b5060405162001598380380620015988339810160408190526200003491620001d1565b600080546001600160a01b0388166001600160a01b0319918216811790925560018055600280549091169091179055815162000078906007906020850190620000df565b50600880546001600160401b039092166001600160401b031990921691909117905550600680546001600160a01b039485166001600160a01b0319918216179091556004805493851693821693909317909255600580549190931691161790555062000355565b828054620000ed9062000318565b90600052602060002090601f0160209004810192826200011157600085556200015c565b82601f106200012c57805160ff19168380011785556200015c565b828001600101855582156200015c579182015b828111156200015c5782518255916020019190600101906200013f565b506200016a9291506200016e565b5090565b5b808211156200016a57600081556001016200016f565b6001600160a01b03811681146200019b57600080fd5b50565b634e487b7160e01b600052604160045260246000fd5b80516001600160401b0381168114620001cc57600080fd5b919050565b60008060008060008060c08789031215620001eb57600080fd5b8651620001f88162000185565b809650506020808801516200020d8162000185565b6040890151909650620002208162000185565b6060890151909550620002338162000185565b60808901519094506001600160401b03808211156200025157600080fd5b818a0191508a601f8301126200026657600080fd5b8151818111156200027b576200027b6200019e565b604051601f8201601f19908116603f01168101908382118183101715620002a657620002a66200019e565b816040528281528d86848701011115620002bf57600080fd5b600093505b82841015620002e35784840186015181850187015292850192620002c4565b82841115620002f55760008684830101525b8097505050505050506200030c60a08801620001b4565b90509295509295509295565b600181811c908216806200032d57607f821691505b602082108114156200034f57634e487b7160e01b600052602260045260246000fd5b50919050565b61123380620003656000396000f3fe608060405234801561001057600080fd5b50600436106100cf5760003560e01c8063769658671161008c578063a694fc3a11610066578063a694fc3a146101c0578063c329d9b4146101d3578063dfe00c51146101fe578063e3366fed1461021157600080fd5b806376965867146101925780638917d17a1461019a57806396d754cd146101ad57600080fd5b806302ee3a52146100d45780632e1a7d4d146100f35780635909978e146101085780635e42b455146101335780636082b6571461014957806370a0823114610169575b600080fd5b6100dc610228565b6040516100ea929190610a96565b60405180910390f35b610106610101366004610af6565b6102bd565b005b61011b610116366004610c12565b6103f0565b6040516001600160401b0390911681526020016100ea565b61013b61046e565b6040519081526020016100ea565b61015c610157366004610c84565b6104f9565b6040516100ea9190610ca6565b61013b610177366004610cb9565b6001600160a01b031660009081526009602052604090205490565b61013b610588565b6101066101a8366004610ceb565b6105cd565b6101066101bb366004610cb9565b61072d565b6101066101ce366004610af6565b6107d0565b6004546101e6906001600160a01b031681565b6040516001600160a01b0390911681526020016100ea565b61010661020c366004610d24565b61088f565b6102196108f4565b6040516100ea93929190610d60565b606080600260009054906101000a90046001600160a01b03166001600160a01b03166302ee3a526040518163ffffffff1660e01b815260040160006040518083038186803b15801561027957600080fd5b505afa15801561028d573d6000803e3d6000fd5b505050506040513d6000823e601f3d908101601f191682016040526102b59190810190610eee565b915091509091565b6102c561098e565b3360009081526009602052604090205481111561033a5760405162461bcd60e51b815260206004820152602860248201527f5769746864726177616c20616d6f756e742065786365656473207374616b65646044820152672062616c616e636560c01b60648201526084015b60405180910390fd5b3360009081526009602052604081208054839290610359908490610fc8565b90915550506004805460405163a9059cbb60e01b81523392810192909252602482018390526001600160a01b03169063a9059cbb90604401602060405180830381600087803b1580156103ab57600080fd5b505af11580156103bf573d6000803e3d6000fd5b505050506040513d601f19601f820116820180604052508101906103e39190610fdf565b506103ed60018055565b50565b600254604051632c84cbc760e11b81526000916001600160a01b031690635909978e90610427908890889088908890600401611001565b600060405180830381600087803b15801561044157600080fd5b505af1158015610455573d6000803e3d6000fd5b50506008546001600160401b0316979650505050505050565b60035460408051635e42b45560e01b815290516000926001600160a01b031691635e42b455916004808301926020929190829003018186803b1580156104b357600080fd5b505afa1580156104c7573d6000803e3d6000fd5b505050506040513d601f19601f820116820180604052508101906104eb9190611048565b6001600160801b0316905090565b600254604051636082b65760e01b81526001600160401b03831660048201526060916001600160a01b031690636082b6579060240160006040518083038186803b15801561054657600080fd5b505afa15801561055a573d6000803e3d6000fd5b505050506040513d6000823e601f3d908101601f191682016040526105829190810190611065565b92915050565b6003546040805163a4e15db960e01b815290516000926001600160a01b03169163a4e15db9916004808301926020929190829003018186803b1580156104b357600080fd5b60065460405163c21ab7f960e01b81523360048201526000916001600160a01b03169063c21ab7f990602401602060405180830381600087803b15801561061357600080fd5b505af1158015610627573d6000803e3d6000fd5b505050506040513d601f19601f8201168201806040525081019061064b9190611048565b6002546040516363c9363d60e01b81526001600160801b038084166004830152861660248201529192506001600160a01b0316906363c9363d90604401600060405180830381600087803b1580156106a257600080fd5b505af11580156106b6573d6000803e3d6000fd5b5050600554604051630feb993960e41b81526001600160801b038086166004830152861660248201526001600160a01b03909116925063feb993909150604401600060405180830381600087803b15801561071057600080fd5b505af1158015610724573d6000803e3d6000fd5b50505050505050565b600854600160401b900460ff16156107955760405162461bcd60e51b815260206004820152602560248201527f546869732066756e6374696f6e2063616e206f6e6c792062652063616c6c6564604482015264206f6e636560d81b6064820152608401610331565b600380546001600160a01b039092166001600160a01b03199092169190911790556008805468ff00000000000000001916600160401b179055565b6107d861098e565b600480546040516323b872dd60e01b81523392810192909252306024830152604482018390526001600160a01b0316906323b872dd90606401602060405180830381600087803b15801561082b57600080fd5b505af115801561083f573d6000803e3d6000fd5b505050506040513d601f19601f820116820180604052508101906108639190610fdf565b503360009081526009602052604081208054839290610883908490611099565b90915550506001805550565b60025460405163dfe00c5160e01b81526001600160a01b039091169063dfe00c51906108bf908490600401610ca6565b600060405180830381600087803b1580156108d957600080fd5b505af11580156108ed573d6000803e3d6000fd5b5050505050565b6060806060600260009054906101000a90046001600160a01b03166001600160a01b031663e3366fed6040518163ffffffff1660e01b815260040160006040518083038186803b15801561094757600080fd5b505afa15801561095b573d6000803e3d6000fd5b505050506040513d6000823e601f3d908101601f191682016040526109839190810190611115565b925092509250909192565b600260015414156109e15760405162461bcd60e51b815260206004820152601f60248201527f5265656e7472616e637947756172643a207265656e7472616e742063616c6c006044820152606401610331565b6002600155565b60005b83811015610a035781810151838201526020016109eb565b83811115610a12576000848401525b50505050565b60008151808452610a308160208601602086016109e8565b601f01601f19169290920160200192915050565b6000815180845260208085019450848260051b860182860160005b85811015610a89578383038952610a77838351610a18565b98850198925090840190600101610a5f565b5090979650505050505050565b604080825283519082018190526000906020906060840190828701845b82811015610ad85781516001600160801b031684529284019290840190600101610ab3565b50505083810382850152610aec8186610a44565b9695505050505050565b600060208284031215610b0857600080fd5b5035919050565b6001600160a01b03811681146103ed57600080fd5b80356001600160401b0381168114610b3b57600080fd5b919050565b634e487b7160e01b600052604160045260246000fd5b604051601f8201601f191681016001600160401b0381118282101715610b7e57610b7e610b40565b604052919050565b60006001600160401b03821115610b9f57610b9f610b40565b50601f01601f191660200190565b600082601f830112610bbe57600080fd5b8135610bd1610bcc82610b86565b610b56565b818152846020838601011115610be657600080fd5b816020850160208301376000918101602001919091529392505050565b60ff811681146103ed57600080fd5b60008060008060808587031215610c2857600080fd5b8435610c3381610b0f565b9350610c4160208601610b24565b925060408501356001600160401b03811115610c5c57600080fd5b610c6887828801610bad565b9250506060850135610c7981610c03565b939692955090935050565b600060208284031215610c9657600080fd5b610c9f82610b24565b9392505050565b602081526000610c9f6020830184610a18565b600060208284031215610ccb57600080fd5b8135610c9f81610b0f565b6001600160801b03811681146103ed57600080fd5b60008060408385031215610cfe57600080fd5b8235610d0981610cd6565b91506020830135610d1981610cd6565b809150509250929050565b600060208284031215610d3657600080fd5b81356001600160401b03811115610d4c57600080fd5b610d5884828501610bad565b949350505050565b606080825284519082018190526000906020906080840190828801845b82811015610da25781516001600160a01b031684529284019290840190600101610d7d565b50505083810382850152610db68187610a44565b8481036040860152855180825283870192509083019060005b81811015610dee57835160ff1683529284019291840191600101610dcf565b509098975050505050505050565b60006001600160401b03821115610e1557610e15610b40565b5060051b60200190565b600082601f830112610e3057600080fd5b8151610e3e610bcc82610b86565b818152846020838601011115610e5357600080fd5b610d588260208301602087016109e8565b600082601f830112610e7557600080fd5b81516020610e85610bcc83610dfc565b82815260059290921b84018101918181019086841115610ea457600080fd5b8286015b84811015610ee35780516001600160401b03811115610ec75760008081fd5b610ed58986838b0101610e1f565b845250918301918301610ea8565b509695505050505050565b60008060408385031215610f0157600080fd5b82516001600160401b0380821115610f1857600080fd5b818501915085601f830112610f2c57600080fd5b81516020610f3c610bcc83610dfc565b82815260059290921b84018101918181019089841115610f5b57600080fd5b948201945b83861015610f82578551610f7381610cd6565b82529482019490820190610f60565b91880151919650909350505080821115610f9b57600080fd5b50610fa885828601610e64565b9150509250929050565b634e487b7160e01b600052601160045260246000fd5b600082821015610fda57610fda610fb2565b500390565b600060208284031215610ff157600080fd5b81518015158114610c9f57600080fd5b6001600160a01b03851681526001600160401b038416602082015260806040820181905260009061103490830185610a18565b905060ff8316606083015295945050505050565b60006020828403121561105a57600080fd5b8151610c9f81610cd6565b60006020828403121561107757600080fd5b81516001600160401b0381111561108d57600080fd5b610d5884828501610e1f565b600082198211156110ac576110ac610fb2565b500190565b600082601f8301126110c257600080fd5b815160206110d2610bcc83610dfc565b82815260059290921b840181019181810190868411156110f157600080fd5b8286015b84811015610ee357805161110881610c03565b83529183019183016110f5565b60008060006060848603121561112a57600080fd5b83516001600160401b038082111561114157600080fd5b818601915086601f83011261115557600080fd5b81516020611165610bcc83610dfc565b82815260059290921b8401810191818101908a84111561118457600080fd5b948201945b838610156111ab57855161119c81610b0f565b82529482019490820190611189565b918901519197509093505050808211156111c457600080fd5b6111d087838801610e64565b935060408601519150808211156111e657600080fd5b506111f3868287016110b1565b915050925092509256fea26469706673582212203a66e822233c588e2de94451601ace7defa9368cd4fcf9ab120ad8ade2f2b73364736f6c63430008090033",
  "linkReferences": {},
  "deployedLinkReferences": {}
}