{
  "_format": "hh-sol-artifact-1",
  "contractName": "CompanyFactory",
  "sourceName": "contracts/CompanyFactory.sol",
  "abi": [
    {
      "inputs": [
        {
          "internalType": "address",
          "name": "_registry",
          "type": "address"
        },
        {
          "internalType": "address",
          "name": "_coinContractAddress",
          "type": "address"
        },
        {
          "internalType": "address",
          "name": "_rewardContract",
          "type": "address"
        },
        {
          "internalType": "address",
          "name": "_stringNFT",
          "type": "address"
        }
      ],
      "stateMutability": "nonpayable",
      "type": "constructor"
    },
    {
      "anonymous": false,
      "inputs": [
        {
          "indexed": true,
          "internalType": "address",
          "name": "previousOwner",
          "type": "address"
        },
        {
          "indexed": true,
          "internalType": "address",
          "name": "newOwner",
          "type": "address"
        }
      ],
      "name": "OwnershipTransferred",
      "type": "event"
    },
    {
      "inputs": [
        {
          "internalType": "string",
          "name": "_companyName",
          "type": "string"
        },
        {
          "internalType": "address",
          "name": "_adminAddress",
          "type": "address"
        }
      ],
      "name": "createCompany",
      "outputs": [],
      "stateMutability": "nonpayable",
      "type": "function"
    },
    {
      "inputs": [],
      "name": "getCompanies",
      "outputs": [
        {
          "internalType": "address[]",
          "name": "",
          "type": "address[]"
        }
      ],
      "stateMutability": "view",
      "type": "function"
    },
    {
      "inputs": [],
      "name": "owner",
      "outputs": [
        {
          "internalType": "address",
          "name": "",
          "type": "address"
        }
      ],
      "stateMutability": "view",
      "type": "function"
    },
    {
      "inputs": [],
      "name": "renounceOwnership",
      "outputs": [],
      "stateMutability": "nonpayable",
      "type": "function"
    },
    {
      "inputs": [
        {
          "internalType": "address",
          "name": "newOwner",
          "type": "address"
        }
      ],
      "name": "transferOwnership",
      "outputs": [],
      "stateMutability": "nonpayable",
      "type": "function"
    },
    {
      "inputs": [
        {
          "internalType": "address",
          "name": "_oldAddress",
          "type": "address"
        },
        {
          "internalType": "address",
          "name": "_newAddress",
          "type": "address"
        }
      ],
      "name": "updateCompanyImplementation",
      "outputs": [],
      "stateMutability": "nonpayable",
      "type": "function"
    }
  ],
  "bytecode": "0x6080604052600280546001600160401b031916905534801561002057600080fd5b5060405161358738038061358783398101604081905261003f9161011c565b610048336100b0565b600380546001600160a01b03199081166001600160a01b039586161790915560028054600160401b600160e01b031916680100000000000000009686169690960295909517909455600480548516918416919091179055600580549093169116179055610170565b600080546001600160a01b038381166001600160a01b0319831681178455604051919092169283917f8be0079c531659141344cd1fd0a4f28419497f9722a3daafe3b4186f6b6457e09190a35050565b80516001600160a01b038116811461011757600080fd5b919050565b6000806000806080858703121561013257600080fd5b61013b85610100565b935061014960208601610100565b925061015760408601610100565b915061016560608601610100565b905092959194509250565b6134088061017f6000396000f3fe60806040523480156200001157600080fd5b50600436106200006a5760003560e01c80630c0b6691146200006f578063715018a614620000915780638da5cb5b146200009d578063dce8a0f514620000b9578063f22f2a1a14620000d0578063f2fde38b14620000e7575b600080fd5b62000079620000fe565b604051620000889190620006c3565b60405180910390f35b6200009b62000162565b005b6000546040516001600160a01b03909116815260200162000088565b6200009b620000ca3660046200072f565b6200017a565b6200009b620000e13660046200077d565b62000188565b6200009b620000f836600462000842565b6200056e565b606060018054806020026020016040519081016040528092919081815260200182805480156200015857602002820191906000526020600020905b81546001600160a01b0316815260019091019060200180831162000139575b5050505050905090565b6200016c620005ed565b62000178600062000649565b565b62000184620005ed565b5050565b62000192620005ed565b6000604051620001a29062000699565b604051809103906000f080158015620001bf573d6000803e3d6000fd5b5060045460035460055460025460405194955060009486946001600160a01b03908116948116931691899167ffffffffffffffff909116906200020290620006a7565b62000213969594939291906200089a565b604051809103906000f08015801562000230573d6000803e3d6000fd5b50600254604051632c84cbc760e11b81526001600160a01b03868116600483015267ffffffffffffffff90921660248201526080604482015260006084820152600a6064820152919250821690635909978e9060a401602060405180830381600087803b158015620002a157600080fd5b505af1158015620002b6573d6000803e3d6000fd5b505050506040513d601f19601f82011682018060405250810190620002dc91906200090d565b5060035460405163095ea7b360e01b81526001600160a01b038381166004830152683635c9adc5dea0000060248301529091169063095ea7b390604401602060405180830381600087803b1580156200033457600080fd5b505af115801562000349573d6000803e3d6000fd5b505050506040513d601f19601f820116820180604052508101906200036f919062000939565b506000816040516200038190620006b5565b6001600160a01b039091168152602001604051809103906000f080158015620003ae573d6000803e3d6000fd5b506040516396d754cd60e01b81526001600160a01b038083166004830152919250908316906396d754cd90602401600060405180830381600087803b158015620003f757600080fd5b505af11580156200040c573d6000803e3d6000fd5b50506002546040516001600160a01b0386811660248301523360448301526000945068010000000000000000909204909116915060640160408051601f198184030181529181526020820180516001600160e01b03166385a0e59d60e01b179052516200047a91906200095d565b6000604051808303816000865af19150503d8060008114620004b9576040519150601f19603f3d011682016040523d82523d6000602084013e620004be565b606091505b5050905080620005235760405162461bcd60e51b815260206004820152602560248201527f4661696c656420746f2061646420636f6d70616e7920746f2074686520726567604482015264697374727960d81b60648201526084015b60405180910390fd5b6002805467ffffffffffffffff169060006200053f836200097b565b91906101000a81548167ffffffffffffffff021916908367ffffffffffffffff16021790555050505050505050565b62000578620005ed565b6001600160a01b038116620005df5760405162461bcd60e51b815260206004820152602660248201527f4f776e61626c653a206e6577206f776e657220697320746865207a65726f206160448201526564647265737360d01b60648201526084016200051a565b620005ea8162000649565b50565b6000546001600160a01b03163314620001785760405162461bcd60e51b815260206004820181905260248201527f4f776e61626c653a2063616c6c6572206973206e6f7420746865206f776e657260448201526064016200051a565b600080546001600160a01b038381166001600160a01b0319831681178455604051919092169283917f8be0079c531659141344cd1fd0a4f28419497f9722a3daafe3b4186f6b6457e09190a35050565b61109180620009b383390190565b6115988062001a4483390190565b6103f78062002fdc83390190565b6020808252825182820181905260009190848201906040850190845b81811015620007065783516001600160a01b031683529284019291840191600101620006df565b50909695505050505050565b80356001600160a01b03811681146200072a57600080fd5b919050565b600080604083850312156200074357600080fd5b6200074e8362000712565b91506200075e6020840162000712565b90509250929050565b634e487b7160e01b600052604160045260246000fd5b600080604083850312156200079157600080fd5b823567ffffffffffffffff80821115620007aa57600080fd5b818501915085601f830112620007bf57600080fd5b813581811115620007d457620007d462000767565b604051601f8201601f19908116603f01168101908382118183101715620007ff57620007ff62000767565b816040528281528860208487010111156200081957600080fd5b8260208601602083013760006020848301015280965050505050506200075e6020840162000712565b6000602082840312156200085557600080fd5b620008608262000712565b9392505050565b60005b83811015620008845781810151838201526020016200086a565b8381111562000894576000848401525b50505050565b600060018060a01b0380891683528088166020840152808716604084015280861660608401525060c0608083015283518060c0840152620008e38160e085016020880162000867565b67ffffffffffffffff9390931660a083015250601f91909101601f19160160e00195945050505050565b6000602082840312156200092057600080fd5b815167ffffffffffffffff811681146200086057600080fd5b6000602082840312156200094c57600080fd5b815180151581146200086057600080fd5b600082516200097181846020870162000867565b9190910192915050565b600067ffffffffffffffff80831681811415620009a857634e487b7160e01b600052601160045260246000fd5b600101939250505056fe608060405234801561001057600080fd5b50600780546001600160a01b031916301790556008805462010000600160801b031916905561104d806100446000396000f3fe608060405234801561001057600080fd5b506004361061009e5760003560e01c806363c9363d1161006657806363c9363d1461015b5780639f64bd48146101ba578063dfe00c51146101fb578063e3366fed1461020e578063f72106331461022557600080fd5b806302ee3a52146100a35780632f73ddc9146100c257806338bfc421146100e25780635909978e146101265780636082b6571461013b575b600080fd5b6100ab6102a0565b6040516100b9929190610c3a565b60405180910390f35b6100d56100d0366004610c84565b6104cb565b6040516100b99190610ca6565b61010e6100f0366004610c84565b6001600160801b039081166000908152600560205260409020541690565b6040516001600160801b0390911681526020016100b9565b610139610134366004610d8b565b610569565b005b61014e610149366004610e02565b610695565b6040516100b99190610e1d565b610139610169366004610e30565b6001600160801b03908116600090815260066020908152604082208054600180820183559184529190922060028204018054929091166010026101000a808402199092169390921602919091179055565b6101e96101c8366004610e63565b6001600160a01b031660009081526020819052604090206002015460ff1690565b60405160ff90911681526020016100b9565b610139610209366004610e7e565b610738565b61021661080b565b6040516100b993929190610ebb565b6008546102659061ffff8082169162010000810463ffffffff169166010000000000008204169068010000000000000000900467ffffffffffffffff1684565b6040805161ffff958616815263ffffffff949094166020850152919093169082015267ffffffffffffffff90911660608201526080016100b9565b606080600060048054905067ffffffffffffffff8111156102c3576102c3610ce8565b6040519080825280602002602001820160405280156102f657816020015b60608152602001906001900390816102e15790505b50905060005b6004546001600160801b038216101561043a57600360006004836001600160801b03168154811061032f5761032f610f57565b90600052602060002090600291828204019190066010029054906101000a90046001600160801b03166001600160801b03166001600160801b03168152602001908152602001600020805461038390610f6d565b80601f01602080910402602001604051908101604052809291908181526020018280546103af90610f6d565b80156103fc5780601f106103d1576101008083540402835291602001916103fc565b820191906000526020600020905b8154815290600101906020018083116103df57829003601f168201915b505050505082826001600160801b03168151811061041c5761041c610f57565b6020026020010181905250808061043290610fbe565b9150506102fc565b50600481818054806020026020016040519081016040528092919081815260200182805480156104bb57602002820191906000526020600020906000905b82829054906101000a90046001600160801b03166001600160801b031681526020019060100190602082600f010492830192600103820291508084116104785790505b5050505050915092509250509091565b6001600160801b03811660009081526006602090815260409182902080548351818402810184019094528084526060939283018282801561055d57602002820191906000526020600020906000905b82829054906101000a90046001600160801b03166001600160801b031681526020019060100190602082600f0104928301926001038202915080841161051a5790505b50505050509050919050565b604080516080810182526001600160a01b0380871680835267ffffffffffffffff808816602080860191825285870189815260ff89166060880152600094855284825296909320855181549251909316600160a01b026001600160e01b0319909216929094169190911717825592518051929391926105ee9260018501920190610ab8565b50606091909101516002909101805460ff191660ff9092169190911790556001805480820182556000919091527fb10e2d527612073b26eecdfd717e6a320cf44b4afac2b0732d9fcbe2b7fa0cf60180546001600160a01b0319166001600160a01b038616179055600880546601000000000000900461ffff1690600661067483610fe5565b91906101000a81548161ffff021916908361ffff1602179055505050505050565b67ffffffffffffffff811660009081526003602052604090208054606091906106bd90610f6d565b80601f01602080910402602001604051908101604052809291908181526020018280546106e990610f6d565b801561055d5780601f1061070b5761010080835404028352916020019161055d565b820191906000526020600020905b8154815290600101906020018083116107195750939695505050505050565b60085462010000900463ffffffff166000908152600360209081526040909120825161076692840190610ab8565b5060088054600480546001818101835560009290925260028082047f8a35acfbc15ff81a39ae7d344fd709f28e8600b4aa8c65c6b64bfe7fe36bd19b018054601093909416929092026101000a63ffffffff6201000095869004811682026001600160801b0390920219909416179091558354929092041691906107e983610ffd565b91906101000a81548163ffffffff021916908363ffffffff1602179055505050565b6060806060600060018054905067ffffffffffffffff81111561083057610830610ce8565b60405190808252806020026020018201604052801561086357816020015b606081526020019060019003908161084e5790505b5060015490915060009067ffffffffffffffff81111561088557610885610ce8565b6040519080825280602002602001820160405280156108ae578160200160208202803683370190505b50905060005b6001546001600160801b0382161015610a4a576000806001836001600160801b0316815481106108e6576108e6610f57565b60009182526020808320909101546001600160a01b031683528201929092526040019020600101805461091890610f6d565b80601f016020809104026020016040519081016040528092919081815260200182805461094490610f6d565b80156109915780601f1061096657610100808354040283529160200191610991565b820191906000526020600020905b81548152906001019060200180831161097457829003601f168201915b505050505083826001600160801b0316815181106109b1576109b1610f57565b60200260200101819052506000806001836001600160801b0316815481106109db576109db610f57565b60009182526020808320909101546001600160a01b03168352820192909252604001902060020154825160ff9091169083906001600160801b038416908110610a2657610a26610f57565b60ff9092166020928302919091019091015280610a4281610fbe565b9150506108b4565b506001828282805480602002602001604051908101604052809291908181526020018280548015610aa457602002820191906000526020600020905b81546001600160a01b03168152600190910190602001808311610a86575b505050505092509450945094505050909192565b828054610ac490610f6d565b90600052602060002090601f016020900481019282610ae65760008555610b2c565b82601f10610aff57805160ff1916838001178555610b2c565b82800160010185558215610b2c579182015b82811115610b2c578251825591602001919060010190610b11565b50610b38929150610b3c565b5090565b5b80821115610b385760008155600101610b3d565b600081518084526020808501945080840160005b83811015610b8a5781516001600160801b031687529582019590820190600101610b65565b509495945050505050565b6000815180845260005b81811015610bbb57602081850181015186830182015201610b9f565b81811115610bcd576000602083870101525b50601f01601f19169290920160200192915050565b600082825180855260208086019550808260051b84010181860160005b84811015610c2d57601f19868403018952610c1b838351610b95565b98840198925090830190600101610bff565b5090979650505050505050565b604081526000610c4d6040830185610b51565b8281036020840152610c5f8185610be2565b95945050505050565b80356001600160801b0381168114610c7f57600080fd5b919050565b600060208284031215610c9657600080fd5b610c9f82610c68565b9392505050565b602081526000610c9f6020830184610b51565b80356001600160a01b0381168114610c7f57600080fd5b803567ffffffffffffffff81168114610c7f57600080fd5b634e487b7160e01b600052604160045260246000fd5b600082601f830112610d0f57600080fd5b813567ffffffffffffffff80821115610d2a57610d2a610ce8565b604051601f8301601f19908116603f01168101908282118183101715610d5257610d52610ce8565b81604052838152866020858801011115610d6b57600080fd5b836020870160208301376000602085830101528094505050505092915050565b60008060008060808587031215610da157600080fd5b610daa85610cb9565b9350610db860208601610cd0565b9250604085013567ffffffffffffffff811115610dd457600080fd5b610de087828801610cfe565b925050606085013560ff81168114610df757600080fd5b939692955090935050565b600060208284031215610e1457600080fd5b610c9f82610cd0565b602081526000610c9f6020830184610b95565b60008060408385031215610e4357600080fd5b610e4c83610c68565b9150610e5a60208401610c68565b90509250929050565b600060208284031215610e7557600080fd5b610c9f82610cb9565b600060208284031215610e9057600080fd5b813567ffffffffffffffff811115610ea757600080fd5b610eb384828501610cfe565b949350505050565b606080825284519082018190526000906020906080840190828801845b82811015610efd5781516001600160a01b031684529284019290840190600101610ed8565b50505083810382850152610f118187610be2565b8481036040860152855180825283870192509083019060005b81811015610f4957835160ff1683529284019291840191600101610f2a565b509098975050505050505050565b634e487b7160e01b600052603260045260246000fd5b600181811c90821680610f8157607f821691505b60208210811415610fa257634e487b7160e01b600052602260045260246000fd5b50919050565b634e487b7160e01b600052601160045260246000fd5b60006001600160801b0380831681811415610fdb57610fdb610fa8565b6001019392505050565b600061ffff80831681811415610fdb57610fdb610fa8565b600063ffffffff80831681811415610fdb57610fdb610fa856fea26469706673582212208ca5192ad5249f8f4e8e2beb4d94ca10bcac7144359200821bb0be5f43a5797e64736f6c6343000809003360806040523480156200001157600080fd5b5060405162001598380380620015988339810160408190526200003491620001d1565b600080546001600160a01b0388166001600160a01b0319918216811790925560018055600280549091169091179055815162000078906007906020850190620000df565b50600880546001600160401b039092166001600160401b031990921691909117905550600680546001600160a01b039485166001600160a01b0319918216179091556004805493851693821693909317909255600580549190931691161790555062000355565b828054620000ed9062000318565b90600052602060002090601f0160209004810192826200011157600085556200015c565b82601f106200012c57805160ff19168380011785556200015c565b828001600101855582156200015c579182015b828111156200015c5782518255916020019190600101906200013f565b506200016a9291506200016e565b5090565b5b808211156200016a57600081556001016200016f565b6001600160a01b03811681146200019b57600080fd5b50565b634e487b7160e01b600052604160045260246000fd5b80516001600160401b0381168114620001cc57600080fd5b919050565b60008060008060008060c08789031215620001eb57600080fd5b8651620001f88162000185565b809650506020808801516200020d8162000185565b6040890151909650620002208162000185565b6060890151909550620002338162000185565b60808901519094506001600160401b03808211156200025157600080fd5b818a0191508a601f8301126200026657600080fd5b8151818111156200027b576200027b6200019e565b604051601f8201601f19908116603f01168101908382118183101715620002a657620002a66200019e565b816040528281528d86848701011115620002bf57600080fd5b600093505b82841015620002e35784840186015181850187015292850192620002c4565b82841115620002f55760008684830101525b8097505050505050506200030c60a08801620001b4565b90509295509295509295565b600181811c908216806200032d57607f821691505b602082108114156200034f57634e487b7160e01b600052602260045260246000fd5b50919050565b61123380620003656000396000f3fe608060405234801561001057600080fd5b50600436106100cf5760003560e01c8063769658671161008c578063a694fc3a11610066578063a694fc3a146101c0578063c329d9b4146101d3578063dfe00c51146101fe578063e3366fed1461021157600080fd5b806376965867146101925780638917d17a1461019a57806396d754cd146101ad57600080fd5b806302ee3a52146100d45780632e1a7d4d146100f35780635909978e146101085780635e42b455146101335780636082b6571461014957806370a0823114610169575b600080fd5b6100dc610228565b6040516100ea929190610a96565b60405180910390f35b610106610101366004610af6565b6102bd565b005b61011b610116366004610c12565b6103f0565b6040516001600160401b0390911681526020016100ea565b61013b61046e565b6040519081526020016100ea565b61015c610157366004610c84565b6104f9565b6040516100ea9190610ca6565b61013b610177366004610cb9565b6001600160a01b031660009081526009602052604090205490565b61013b610588565b6101066101a8366004610ceb565b6105cd565b6101066101bb366004610cb9565b61072d565b6101066101ce366004610af6565b6107d0565b6004546101e6906001600160a01b031681565b6040516001600160a01b0390911681526020016100ea565b61010661020c366004610d24565b61088f565b6102196108f4565b6040516100ea93929190610d60565b606080600260009054906101000a90046001600160a01b03166001600160a01b03166302ee3a526040518163ffffffff1660e01b815260040160006040518083038186803b15801561027957600080fd5b505afa15801561028d573d6000803e3d6000fd5b505050506040513d6000823e601f3d908101601f191682016040526102b59190810190610eee565b915091509091565b6102c561098e565b3360009081526009602052604090205481111561033a5760405162461bcd60e51b815260206004820152602860248201527f5769746864726177616c20616d6f756e742065786365656473207374616b65646044820152672062616c616e636560c01b60648201526084015b60405180910390fd5b3360009081526009602052604081208054839290610359908490610fc8565b90915550506004805460405163a9059cbb60e01b81523392810192909252602482018390526001600160a01b03169063a9059cbb90604401602060405180830381600087803b1580156103ab57600080fd5b505af11580156103bf573d6000803e3d6000fd5b505050506040513d601f19601f820116820180604052508101906103e39190610fdf565b506103ed60018055565b50565b600254604051632c84cbc760e11b81526000916001600160a01b031690635909978e90610427908890889088908890600401611001565b600060405180830381600087803b15801561044157600080fd5b505af1158015610455573d6000803e3d6000fd5b50506008546001600160401b0316979650505050505050565b60035460408051635e42b45560e01b815290516000926001600160a01b031691635e42b455916004808301926020929190829003018186803b1580156104b357600080fd5b505afa1580156104c7573d6000803e3d6000fd5b505050506040513d601f19601f820116820180604052508101906104eb9190611048565b6001600160801b0316905090565b600254604051636082b65760e01b81526001600160401b03831660048201526060916001600160a01b031690636082b6579060240160006040518083038186803b15801561054657600080fd5b505afa15801561055a573d6000803e3d6000fd5b505050506040513d6000823e601f3d908101601f191682016040526105829190810190611065565b92915050565b6003546040805163a4e15db960e01b815290516000926001600160a01b03169163a4e15db9916004808301926020929190829003018186803b1580156104b357600080fd5b60065460405163c21ab7f960e01b81523360048201526000916001600160a01b03169063c21ab7f990602401602060405180830381600087803b15801561061357600080fd5b505af1158015610627573d6000803e3d6000fd5b505050506040513d601f19601f8201168201806040525081019061064b9190611048565b6002546040516363c9363d60e01b81526001600160801b038084166004830152861660248201529192506001600160a01b0316906363c9363d90604401600060405180830381600087803b1580156106a257600080fd5b505af11580156106b6573d6000803e3d6000fd5b5050600554604051630feb993960e41b81526001600160801b038086166004830152861660248201526001600160a01b03909116925063feb993909150604401600060405180830381600087803b15801561071057600080fd5b505af1158015610724573d6000803e3d6000fd5b50505050505050565b600854600160401b900460ff16156107955760405162461bcd60e51b815260206004820152602560248201527f546869732066756e6374696f6e2063616e206f6e6c792062652063616c6c6564604482015264206f6e636560d81b6064820152608401610331565b600380546001600160a01b039092166001600160a01b03199092169190911790556008805468ff00000000000000001916600160401b179055565b6107d861098e565b600480546040516323b872dd60e01b81523392810192909252306024830152604482018390526001600160a01b0316906323b872dd90606401602060405180830381600087803b15801561082b57600080fd5b505af115801561083f573d6000803e3d6000fd5b505050506040513d601f19601f820116820180604052508101906108639190610fdf565b503360009081526009602052604081208054839290610883908490611099565b90915550506001805550565b60025460405163dfe00c5160e01b81526001600160a01b039091169063dfe00c51906108bf908490600401610ca6565b600060405180830381600087803b1580156108d957600080fd5b505af11580156108ed573d6000803e3d6000fd5b5050505050565b6060806060600260009054906101000a90046001600160a01b03166001600160a01b031663e3366fed6040518163ffffffff1660e01b815260040160006040518083038186803b15801561094757600080fd5b505afa15801561095b573d6000803e3d6000fd5b505050506040513d6000823e601f3d908101601f191682016040526109839190810190611115565b925092509250909192565b600260015414156109e15760405162461bcd60e51b815260206004820152601f60248201527f5265656e7472616e637947756172643a207265656e7472616e742063616c6c006044820152606401610331565b6002600155565b60005b83811015610a035781810151838201526020016109eb565b83811115610a12576000848401525b50505050565b60008151808452610a308160208601602086016109e8565b601f01601f19169290920160200192915050565b6000815180845260208085019450848260051b860182860160005b85811015610a89578383038952610a77838351610a18565b98850198925090840190600101610a5f565b5090979650505050505050565b604080825283519082018190526000906020906060840190828701845b82811015610ad85781516001600160801b031684529284019290840190600101610ab3565b50505083810382850152610aec8186610a44565b9695505050505050565b600060208284031215610b0857600080fd5b5035919050565b6001600160a01b03811681146103ed57600080fd5b80356001600160401b0381168114610b3b57600080fd5b919050565b634e487b7160e01b600052604160045260246000fd5b604051601f8201601f191681016001600160401b0381118282101715610b7e57610b7e610b40565b604052919050565b60006001600160401b03821115610b9f57610b9f610b40565b50601f01601f191660200190565b600082601f830112610bbe57600080fd5b8135610bd1610bcc82610b86565b610b56565b818152846020838601011115610be657600080fd5b816020850160208301376000918101602001919091529392505050565b60ff811681146103ed57600080fd5b60008060008060808587031215610c2857600080fd5b8435610c3381610b0f565b9350610c4160208601610b24565b925060408501356001600160401b03811115610c5c57600080fd5b610c6887828801610bad565b9250506060850135610c7981610c03565b939692955090935050565b600060208284031215610c9657600080fd5b610c9f82610b24565b9392505050565b602081526000610c9f6020830184610a18565b600060208284031215610ccb57600080fd5b8135610c9f81610b0f565b6001600160801b03811681146103ed57600080fd5b60008060408385031215610cfe57600080fd5b8235610d0981610cd6565b91506020830135610d1981610cd6565b809150509250929050565b600060208284031215610d3657600080fd5b81356001600160401b03811115610d4c57600080fd5b610d5884828501610bad565b949350505050565b606080825284519082018190526000906020906080840190828801845b82811015610da25781516001600160a01b031684529284019290840190600101610d7d565b50505083810382850152610db68187610a44565b8481036040860152855180825283870192509083019060005b81811015610dee57835160ff1683529284019291840191600101610dcf565b509098975050505050505050565b60006001600160401b03821115610e1557610e15610b40565b5060051b60200190565b600082601f830112610e3057600080fd5b8151610e3e610bcc82610b86565b818152846020838601011115610e5357600080fd5b610d588260208301602087016109e8565b600082601f830112610e7557600080fd5b81516020610e85610bcc83610dfc565b82815260059290921b84018101918181019086841115610ea457600080fd5b8286015b84811015610ee35780516001600160401b03811115610ec75760008081fd5b610ed58986838b0101610e1f565b845250918301918301610ea8565b509695505050505050565b60008060408385031215610f0157600080fd5b82516001600160401b0380821115610f1857600080fd5b818501915085601f830112610f2c57600080fd5b81516020610f3c610bcc83610dfc565b82815260059290921b84018101918181019089841115610f5b57600080fd5b948201945b83861015610f82578551610f7381610cd6565b82529482019490820190610f60565b91880151919650909350505080821115610f9b57600080fd5b50610fa885828601610e64565b9150509250929050565b634e487b7160e01b600052601160045260246000fd5b600082821015610fda57610fda610fb2565b500390565b600060208284031215610ff157600080fd5b81518015158114610c9f57600080fd5b6001600160a01b03851681526001600160401b038416602082015260806040820181905260009061103490830185610a18565b905060ff8316606083015295945050505050565b60006020828403121561105a57600080fd5b8151610c9f81610cd6565b60006020828403121561107757600080fd5b81516001600160401b0381111561108d57600080fd5b610d5884828501610e1f565b600082198211156110ac576110ac610fb2565b500190565b600082601f8301126110c257600080fd5b815160206110d2610bcc83610dfc565b82815260059290921b840181019181810190868411156110f157600080fd5b8286015b84811015610ee357805161110881610c03565b83529183019183016110f5565b60008060006060848603121561112a57600080fd5b83516001600160401b038082111561114157600080fd5b818601915086601f83011261115557600080fd5b81516020611165610bcc83610dfc565b82815260059290921b8401810191818101908a84111561118457600080fd5b948201945b838610156111ab57855161119c81610b0f565b82529482019490820190611189565b918901519197509093505050808211156111c457600080fd5b6111d087838801610e64565b935060408601519150808211156111e657600080fd5b506111f3868287016110b1565b915050925092509256fea26469706673582212203a66e822233c588e2de94451601ace7defa9368cd4fcf9ab120ad8ade2f2b73364736f6c63430008090033608060405234801561001057600080fd5b506040516103f73803806103f783398101604081905261002f9161007c565b6001600160a01b03166000818152600160208190526040909120805460ff19169091179055600280546001600160401b0319169055600380546001600160a01b03191690911790556100ac565b60006020828403121561008e57600080fd5b81516001600160a01b03811681146100a557600080fd5b9392505050565b61033c806100bb6000396000f3fe608060405234801561001057600080fd5b50600436106100625760003560e01c80632c3a5560146100675780635e42b4551461007c578063986d8a1c146100ad578063a4e15db9146100c0578063c2201d2f146100d1578063f7210633146100e2575b600080fd5b61007a61007536600461020a565b61010f565b005b600054600160801b90046001600160801b03165b6040516001600160801b0390911681526020015b60405180910390f35b61007a6100bb36600461020a565b610153565b6000546001600160801b0316610090565b61007a6100df36600461020a565b50565b6002546100f69067ffffffffffffffff1681565b60405167ffffffffffffffff90911681526020016100a4565b60008054829190819061012c9084906001600160801b0316610250565b92506101000a8154816001600160801b0302191690836001600160801b0316021790555050565b6000606461016283605a610278565b61016c91906102a7565b9050600061017a8284610250565b60008054919250839181906101999084906001600160801b03166102db565b92506101000a8154816001600160801b0302191690836001600160801b0316021790555080600060108282829054906101000a90046001600160801b03166101e191906102db565b92506101000a8154816001600160801b0302191690836001600160801b03160217905550505050565b60006020828403121561021c57600080fd5b81356001600160801b038116811461023357600080fd5b9392505050565b634e487b7160e01b600052601160045260246000fd5b60006001600160801b03838116908316818110156102705761027061023a565b039392505050565b60006001600160801b038083168185168183048111821515161561029e5761029e61023a565b02949350505050565b60006001600160801b03808416806102cf57634e487b7160e01b600052601260045260246000fd5b92169190910492915050565b60006001600160801b038083168185168083038211156102fd576102fd61023a565b0194935050505056fea2646970667358221220a015a249d65a6e9cce2d6263d2171559b5897915dc2567a5ec6df84f8958a09b64736f6c63430008090033a26469706673582212207c055164f2d3705054a379c845fc7595a24b72c6ef070b5b4f4cd46c338e362764736f6c63430008090033",
  "linkReferences": {},
  "deployedLinkReferences": {}
}