{
  "_format": "hh-sol-artifact-1",
  "contractName": "Registry",
  "sourceName": "contracts/Registry.sol",
  "abi": [
    {
      "inputs": [
        {
          "internalType": "address",
          "name": "employee",
          "type": "address"
        },
        {
          "internalType": "uint64",
          "name": "companyId",
          "type": "uint64"
        }
      ],
      "name": "addEmployee",
      "outputs": [],
      "stateMutability": "nonpayable",
      "type": "function"
    },
    {
      "inputs": [
        {
          "internalType": "uint64",
          "name": "",
          "type": "uint64"
        }
      ],
      "name": "companies",
      "outputs": [
        {
          "internalType": "address",
          "name": "",
          "type": "address"
        }
      ],
      "stateMutability": "view",
      "type": "function"
    },
    {
      "inputs": [
        {
          "internalType": "address",
          "name": "companyContract",
          "type": "address"
        },
        {
          "internalType": "address",
          "name": "_sender",
          "type": "address"
        }
      ],
      "name": "createCompany",
      "outputs": [],
      "stateMutability": "nonpayable",
      "type": "function"
    },
    {
      "inputs": [
        {
          "internalType": "address",
          "name": "",
          "type": "address"
        }
      ],
      "name": "employeeToCompany",
      "outputs": [
        {
          "internalType": "uint64",
          "name": "",
          "type": "uint64"
        }
      ],
      "stateMutability": "view",
      "type": "function"
    },
    {
      "inputs": [
        {
          "internalType": "address",
          "name": "employee",
          "type": "address"
        }
      ],
      "name": "getCompanyForEmployee",
      "outputs": [
        {
          "internalType": "address",
          "name": "",
          "type": "address"
        }
      ],
      "stateMutability": "view",
      "type": "function"
    },
    {
      "inputs": [],
      "name": "numOfCompanies",
      "outputs": [
        {
          "internalType": "uint64",
          "name": "",
          "type": "uint64"
        }
      ],
      "stateMutability": "view",
      "type": "function"
    },
    {
      "inputs": [
        {
          "internalType": "uint64",
          "name": "companyId",
          "type": "uint64"
        },
        {
          "internalType": "address",
          "name": "newCompanyContract",
          "type": "address"
        }
      ],
      "name": "upgradeCompanyContract",
      "outputs": [],
      "stateMutability": "nonpayable",
      "type": "function"
    }
  ],
  "bytecode": "0x6080604052600280546001600160401b031916905534801561002057600080fd5b506103fb806100306000396000f3fe608060405234801561001057600080fd5b506004361061007d5760003560e01c806394fb77b81161005b57806394fb77b81461010a578063a1cdbb9814610153578063c440eadf1461017d578063e0b8cc35146101bf57600080fd5b80630b302fd414610082578063365b3a60146100b457806385a0e59d146100f5575b600080fd5b6002546100969067ffffffffffffffff1681565b60405167ffffffffffffffff90911681526020015b60405180910390f35b6100dd6100c23660046102c2565b6000602081905290815260409020546001600160a01b031681565b6040516001600160a01b0390911681526020016100ab565b6101086101033660046102fb565b610207565b005b61010861011836600461032e565b6001600160a01b03919091166000908152600160205260409020805467ffffffffffffffff191667ffffffffffffffff909216919091179055565b610096610161366004610358565b60016020526000908152604090205467ffffffffffffffff1681565b6100dd61018b366004610358565b6001600160a01b0390811660009081526001602090815260408083205467ffffffffffffffff168352908290529020541690565b6101086101cd366004610373565b67ffffffffffffffff91909116600090815260208190526040902080546001600160a01b0319166001600160a01b03909216919091179055565b6002805467ffffffffffffffff90811660009081526020818152604080832080546001600160a01b03808a166001600160a01b0319909216919091179091558554908716845260019092528220805467ffffffffffffffff19169184169190911790558254909116919061027a8361038f565b91906101000a81548167ffffffffffffffff021916908367ffffffffffffffff160217905550505050565b803567ffffffffffffffff811681146102bd57600080fd5b919050565b6000602082840312156102d457600080fd5b6102dd826102a5565b9392505050565b80356001600160a01b03811681146102bd57600080fd5b6000806040838503121561030e57600080fd5b610317836102e4565b9150610325602084016102e4565b90509250929050565b6000806040838503121561034157600080fd5b61034a836102e4565b9150610325602084016102a5565b60006020828403121561036a57600080fd5b6102dd826102e4565b6000806040838503121561038657600080fd5b610317836102a5565b600067ffffffffffffffff808316818114156103bb57634e487b7160e01b600052601160045260246000fd5b600101939250505056fea264697066735822122063c6890b09937e7c9a6ff78609fe77b1e0efa63914ff3effeee74cff224e9f1164736f6c63430008090033",
  "linkReferences": {},
  "deployedLinkReferences": {}
}