{
  "_format": "hh-sol-artifact-1",
  "contractName": "Repository",
  "sourceName": "contracts/companies/Generic/Repository.sol",
  "abi": [
    {
      "inputs": [],
      "stateMutability": "nonpayable",
      "type": "constructor"
    },
    {
      "inputs": [
        {
          "internalType": "address",
          "name": "_employee",
          "type": "address"
        },
        {
          "internalType": "uint64",
          "name": "_companyId",
          "type": "uint64"
        },
        {
          "internalType": "string",
          "name": "_metadata",
          "type": "string"
        },
        {
          "internalType": "uint8",
          "name": "_level",
          "type": "uint8"
        }
      ],
      "name": "addEmployee",
      "outputs": [],
      "stateMutability": "nonpayable",
      "type": "function"
    },
    {
      "inputs": [
        {
          "internalType": "uint128",
          "name": "_tokenId",
          "type": "uint128"
        },
        {
          "internalType": "uint128",
          "name": "_productId",
          "type": "uint128"
        }
      ],
      "name": "addNewProductToken",
      "outputs": [],
      "stateMutability": "nonpayable",
      "type": "function"
    },
    {
      "inputs": [
        {
          "internalType": "string",
          "name": "_metadata",
          "type": "string"
        }
      ],
      "name": "addProduct",
      "outputs": [],
      "stateMutability": "nonpayable",
      "type": "function"
    },
    {
      "inputs": [],
      "name": "counters",
      "outputs": [
        {
          "internalType": "uint16",
          "name": "companyCount",
          "type": "uint16"
        },
        {
          "internalType": "uint32",
          "name": "productCount",
          "type": "uint32"
        },
        {
          "internalType": "uint16",
          "name": "employeeCount",
          "type": "uint16"
        },
        {
          "internalType": "uint64",
          "name": "tokenIdCount",
          "type": "uint64"
        }
      ],
      "stateMutability": "view",
      "type": "function"
    },
    {
      "inputs": [],
      "name": "getAllEmployees",
      "outputs": [
        {
          "internalType": "address[]",
          "name": "",
          "type": "address[]"
        },
        {
          "internalType": "string[]",
          "name": "",
          "type": "string[]"
        },
        {
          "internalType": "uint8[]",
          "name": "",
          "type": "uint8[]"
        }
      ],
      "stateMutability": "view",
      "type": "function"
    },
    {
      "inputs": [],
      "name": "getAllProducts",
      "outputs": [
        {
          "internalType": "uint128[]",
          "name": "",
          "type": "uint128[]"
        },
        {
          "internalType": "string[]",
          "name": "",
          "type": "string[]"
        }
      ],
      "stateMutability": "view",
      "type": "function"
    },
    {
      "inputs": [
        {
          "internalType": "address",
          "name": "_employee",
          "type": "address"
        }
      ],
      "name": "getAuthorization",
      "outputs": [
        {
          "internalType": "uint8",
          "name": "",
          "type": "uint8"
        }
      ],
      "stateMutability": "view",
      "type": "function"
    },
    {
      "inputs": [
        {
          "internalType": "uint64",
          "name": "_id",
          "type": "uint64"
        }
      ],
      "name": "getProductById",
      "outputs": [
        {
          "internalType": "string",
          "name": "",
          "type": "string"
        }
      ],
      "stateMutability": "view",
      "type": "function"
    },
    {
      "inputs": [
        {
          "internalType": "uint128",
          "name": "_productTokenId",
          "type": "uint128"
        }
      ],
      "name": "getProductTokenById",
      "outputs": [
        {
          "internalType": "uint128",
          "name": "",
          "type": "uint128"
        }
      ],
      "stateMutability": "view",
      "type": "function"
    },
    {
      "inputs": [
        {
          "internalType": "uint128",
          "name": "_productId",
          "type": "uint128"
        }
      ],
      "name": "getProductTokensForProductId",
      "outputs": [
        {
          "internalType": "uint128[]",
          "name": "",
          "type": "uint128[]"
        }
      ],
      "stateMutability": "view",
      "type": "function"
    }
  ],
  "bytecode": "0x608060405234801561001057600080fd5b50600780546001600160a01b031916301790556008805462010000600160801b031916905561104d806100446000396000f3fe608060405234801561001057600080fd5b506004361061009e5760003560e01c806363c9363d1161006657806363c9363d1461015b5780639f64bd48146101ba578063dfe00c51146101fb578063e3366fed1461020e578063f72106331461022557600080fd5b806302ee3a52146100a35780632f73ddc9146100c257806338bfc421146100e25780635909978e146101265780636082b6571461013b575b600080fd5b6100ab6102a0565b6040516100b9929190610c3a565b60405180910390f35b6100d56100d0366004610c84565b6104cb565b6040516100b99190610ca6565b61010e6100f0366004610c84565b6001600160801b039081166000908152600560205260409020541690565b6040516001600160801b0390911681526020016100b9565b610139610134366004610d8b565b610569565b005b61014e610149366004610e02565b610695565b6040516100b99190610e1d565b610139610169366004610e30565b6001600160801b03908116600090815260066020908152604082208054600180820183559184529190922060028204018054929091166010026101000a808402199092169390921602919091179055565b6101e96101c8366004610e63565b6001600160a01b031660009081526020819052604090206002015460ff1690565b60405160ff90911681526020016100b9565b610139610209366004610e7e565b610738565b61021661080b565b6040516100b993929190610ebb565b6008546102659061ffff8082169162010000810463ffffffff169166010000000000008204169068010000000000000000900467ffffffffffffffff1684565b6040805161ffff958616815263ffffffff949094166020850152919093169082015267ffffffffffffffff90911660608201526080016100b9565b606080600060048054905067ffffffffffffffff8111156102c3576102c3610ce8565b6040519080825280602002602001820160405280156102f657816020015b60608152602001906001900390816102e15790505b50905060005b6004546001600160801b038216101561043a57600360006004836001600160801b03168154811061032f5761032f610f57565b90600052602060002090600291828204019190066010029054906101000a90046001600160801b03166001600160801b03166001600160801b03168152602001908152602001600020805461038390610f6d565b80601f01602080910402602001604051908101604052809291908181526020018280546103af90610f6d565b80156103fc5780601f106103d1576101008083540402835291602001916103fc565b820191906000526020600020905b8154815290600101906020018083116103df57829003601f168201915b505050505082826001600160801b03168151811061041c5761041c610f57565b6020026020010181905250808061043290610fbe565b9150506102fc565b50600481818054806020026020016040519081016040528092919081815260200182805480156104bb57602002820191906000526020600020906000905b82829054906101000a90046001600160801b03166001600160801b031681526020019060100190602082600f010492830192600103820291508084116104785790505b5050505050915092509250509091565b6001600160801b03811660009081526006602090815260409182902080548351818402810184019094528084526060939283018282801561055d57602002820191906000526020600020906000905b82829054906101000a90046001600160801b03166001600160801b031681526020019060100190602082600f0104928301926001038202915080841161051a5790505b50505050509050919050565b604080516080810182526001600160a01b0380871680835267ffffffffffffffff808816602080860191825285870189815260ff89166060880152600094855284825296909320855181549251909316600160a01b026001600160e01b0319909216929094169190911717825592518051929391926105ee9260018501920190610ab8565b50606091909101516002909101805460ff191660ff9092169190911790556001805480820182556000919091527fb10e2d527612073b26eecdfd717e6a320cf44b4afac2b0732d9fcbe2b7fa0cf60180546001600160a01b0319166001600160a01b038616179055600880546601000000000000900461ffff1690600661067483610fe5565b91906101000a81548161ffff021916908361ffff1602179055505050505050565b67ffffffffffffffff811660009081526003602052604090208054606091906106bd90610f6d565b80601f01602080910402602001604051908101604052809291908181526020018280546106e990610f6d565b801561055d5780601f1061070b5761010080835404028352916020019161055d565b820191906000526020600020905b8154815290600101906020018083116107195750939695505050505050565b60085462010000900463ffffffff166000908152600360209081526040909120825161076692840190610ab8565b5060088054600480546001818101835560009290925260028082047f8a35acfbc15ff81a39ae7d344fd709f28e8600b4aa8c65c6b64bfe7fe36bd19b018054601093909416929092026101000a63ffffffff6201000095869004811682026001600160801b0390920219909416179091558354929092041691906107e983610ffd565b91906101000a81548163ffffffff021916908363ffffffff1602179055505050565b6060806060600060018054905067ffffffffffffffff81111561083057610830610ce8565b60405190808252806020026020018201604052801561086357816020015b606081526020019060019003908161084e5790505b5060015490915060009067ffffffffffffffff81111561088557610885610ce8565b6040519080825280602002602001820160405280156108ae578160200160208202803683370190505b50905060005b6001546001600160801b0382161015610a4a576000806001836001600160801b0316815481106108e6576108e6610f57565b60009182526020808320909101546001600160a01b031683528201929092526040019020600101805461091890610f6d565b80601f016020809104026020016040519081016040528092919081815260200182805461094490610f6d565b80156109915780601f1061096657610100808354040283529160200191610991565b820191906000526020600020905b81548152906001019060200180831161097457829003601f168201915b505050505083826001600160801b0316815181106109b1576109b1610f57565b60200260200101819052506000806001836001600160801b0316815481106109db576109db610f57565b60009182526020808320909101546001600160a01b03168352820192909252604001902060020154825160ff9091169083906001600160801b038416908110610a2657610a26610f57565b60ff9092166020928302919091019091015280610a4281610fbe565b9150506108b4565b506001828282805480602002602001604051908101604052809291908181526020018280548015610aa457602002820191906000526020600020905b81546001600160a01b03168152600190910190602001808311610a86575b505050505092509450945094505050909192565b828054610ac490610f6d565b90600052602060002090601f016020900481019282610ae65760008555610b2c565b82601f10610aff57805160ff1916838001178555610b2c565b82800160010185558215610b2c579182015b82811115610b2c578251825591602001919060010190610b11565b50610b38929150610b3c565b5090565b5b80821115610b385760008155600101610b3d565b600081518084526020808501945080840160005b83811015610b8a5781516001600160801b031687529582019590820190600101610b65565b509495945050505050565b6000815180845260005b81811015610bbb57602081850181015186830182015201610b9f565b81811115610bcd576000602083870101525b50601f01601f19169290920160200192915050565b600082825180855260208086019550808260051b84010181860160005b84811015610c2d57601f19868403018952610c1b838351610b95565b98840198925090830190600101610bff565b5090979650505050505050565b604081526000610c4d6040830185610b51565b8281036020840152610c5f8185610be2565b95945050505050565b80356001600160801b0381168114610c7f57600080fd5b919050565b600060208284031215610c9657600080fd5b610c9f82610c68565b9392505050565b602081526000610c9f6020830184610b51565b80356001600160a01b0381168114610c7f57600080fd5b803567ffffffffffffffff81168114610c7f57600080fd5b634e487b7160e01b600052604160045260246000fd5b600082601f830112610d0f57600080fd5b813567ffffffffffffffff80821115610d2a57610d2a610ce8565b604051601f8301601f19908116603f01168101908282118183101715610d5257610d52610ce8565b81604052838152866020858801011115610d6b57600080fd5b836020870160208301376000602085830101528094505050505092915050565b60008060008060808587031215610da157600080fd5b610daa85610cb9565b9350610db860208601610cd0565b9250604085013567ffffffffffffffff811115610dd457600080fd5b610de087828801610cfe565b925050606085013560ff81168114610df757600080fd5b939692955090935050565b600060208284031215610e1457600080fd5b610c9f82610cd0565b602081526000610c9f6020830184610b95565b60008060408385031215610e4357600080fd5b610e4c83610c68565b9150610e5a60208401610c68565b90509250929050565b600060208284031215610e7557600080fd5b610c9f82610cb9565b600060208284031215610e9057600080fd5b813567ffffffffffffffff811115610ea757600080fd5b610eb384828501610cfe565b949350505050565b606080825284519082018190526000906020906080840190828801845b82811015610efd5781516001600160a01b031684529284019290840190600101610ed8565b50505083810382850152610f118187610be2565b8481036040860152855180825283870192509083019060005b81811015610f4957835160ff1683529284019291840191600101610f2a565b509098975050505050505050565b634e487b7160e01b600052603260045260246000fd5b600181811c90821680610f8157607f821691505b60208210811415610fa257634e487b7160e01b600052602260045260246000fd5b50919050565b634e487b7160e01b600052601160045260246000fd5b60006001600160801b0380831681811415610fdb57610fdb610fa8565b6001019392505050565b600061ffff80831681811415610fdb57610fdb610fa8565b600063ffffffff80831681811415610fdb57610fdb610fa856fea26469706673582212208ca5192ad5249f8f4e8e2beb4d94ca10bcac7144359200821bb0be5f43a5797e64736f6c63430008090033",
  "linkReferences": {},
  "deployedLinkReferences": {}
}