{
  "_format": "hh-sol-artifact-1",
  "contractName": "Rewards",
  "sourceName": "contracts/Rewards.sol",
  "abi": [
    {
      "inputs": [
        {
          "internalType": "address",
          "name": "_coinAddress",
          "type": "address"
        },
        {
          "internalType": "address",
          "name": "_nftAddress",
          "type": "address"
        }
      ],
      "stateMutability": "nonpayable",
      "type": "constructor"
    },
    {
      "inputs": [],
      "name": "NoTokenFound",
      "type": "error"
    },
    {
      "inputs": [],
      "name": "NotYourToken",
      "type": "error"
    },
    {
      "inputs": [
        {
          "internalType": "uint128",
          "name": "_tokenId",
          "type": "uint128"
        },
        {
          "internalType": "uint128",
          "name": "_amount",
          "type": "uint128"
        }
      ],
      "name": "add",
      "outputs": [],
      "stateMutability": "nonpayable",
      "type": "function"
    },
    {
      "inputs": [
        {
          "internalType": "uint128",
          "name": "_tokenId",
          "type": "uint128"
        },
        {
          "internalType": "uint128",
          "name": "_amount",
          "type": "uint128"
        }
      ],
      "name": "claim",
      "outputs": [],
      "stateMutability": "nonpayable",
      "type": "function"
    },
    {
      "inputs": [
        {
          "internalType": "uint128",
          "name": "_tokenId",
          "type": "uint128"
        },
        {
          "internalType": "uint128",
          "name": "_amount",
          "type": "uint128"
        },
        {
          "internalType": "address",
          "name": "_to",
          "type": "address"
        }
      ],
      "name": "transferReward",
      "outputs": [],
      "stateMutability": "nonpayable",
      "type": "function"
    }
  ],
  "bytecode": "0x608060405234801561001057600080fd5b5060405161089538038061089583398101604081905261002f9161007f565b600080546001600160a01b039283166001600160a01b031991821617909155600280549390921692169190911790556100b2565b80516001600160a01b038116811461007a57600080fd5b919050565b6000806040838503121561009257600080fd5b61009b83610063565b91506100a960208401610063565b90509250929050565b6107d4806100c16000396000f3fe608060405234801561001057600080fd5b50600436106100415760003560e01c806306bdbe1d146100465780630be503c71461005b578063feb993901461006e575b600080fd5b610059610054366004610648565b610081565b005b610059610069366004610693565b61033b565b61005961007c366004610648565b610412565b6000546040516331a9108f60e11b81526001600160801b038416600482018190529133916001600160a01b0390911690636352211e9060240160206040518083038186803b1580156100d257600080fd5b505afa1580156100e6573d6000803e3d6000fd5b505050506040513d601f19601f8201168201806040525081019061010a91906106da565b6001600160a01b03161461013157604051630247f98760e21b815260040160405180910390fd5b600054604051634f558e7960e01b8152600481018390526001600160a01b0390911690634f558e799060240160206040518083038186803b15801561017557600080fd5b505afa158015610189573d6000803e3d6000fd5b505050506040513d601f19601f820116820180604052508101906101ad91906106fe565b6101ca576040516327a4dca160e11b815260040160405180910390fd5b6001600160801b03838116600090815260016020526040902054908316111561023a5760405162461bcd60e51b815260206004820152601d60248201527f496e73756666696369656e74207265776172647320746f20636c61696d00000060448201526064015b60405180910390fd5b816001600160801b031660016000856001600160801b03168152602001908152602001600020600082825461026f9190610736565b909155505060025460405163a9059cbb60e01b81526001600160a01b039091169063a9059cbb906102a6903390869060040161074d565b602060405180830381600087803b1580156102c057600080fd5b505af11580156102d4573d6000803e3d6000fd5b505050506040513d601f19601f820116820180604052508101906102f891906106fe565b6103365760405162461bcd60e51b815260206004820152600f60248201526e151c985b9cd9995c8819985a5b1959608a1b6044820152606401610231565b505050565b6001600160801b0383811660009081526001602052604090205490831611156103a65760405162461bcd60e51b815260206004820181905260248201527f496e73756666696369656e74207265776172647320746f207472616e736665726044820152606401610231565b816001600160801b031660016000856001600160801b0316815260200190815260200160002060008282546103db9190610736565b909155505060025460405163a9059cbb60e01b81526001600160a01b039091169063a9059cbb906102a6908490869060040161074d565b6001600160801b03828116600090815260016020526040902090821690556002546001600160a01b031663095ea7b33361045484670de0b6b3a764000061076f565b6040518363ffffffff1660e01b815260040161047192919061074d565b602060405180830381600087803b15801561048b57600080fd5b505af115801561049f573d6000803e3d6000fd5b505050506040513d601f19601f820116820180604052508101906104c391906106fe565b506002546001600160a01b031663095ea7b3306104e884670de0b6b3a764000061076f565b6040518363ffffffff1660e01b815260040161050592919061074d565b602060405180830381600087803b15801561051f57600080fd5b505af1158015610533573d6000803e3d6000fd5b505050506040513d601f19601f8201168201806040525081019061055791906106fe565b506002546040516323b872dd60e01b81523360048201523060248201526001600160801b03831660448201526001600160a01b03909116906323b872dd90606401602060405180830381600087803b1580156105b257600080fd5b505af11580156105c6573d6000803e3d6000fd5b505050506040513d601f19601f820116820180604052508101906105ea91906106fe565b6106285760405162461bcd60e51b815260206004820152600f60248201526e151c985b9cd9995c8819985a5b1959608a1b6044820152606401610231565b5050565b80356001600160801b038116811461064357600080fd5b919050565b6000806040838503121561065b57600080fd5b6106648361062c565b91506106726020840161062c565b90509250929050565b6001600160a01b038116811461069057600080fd5b50565b6000806000606084860312156106a857600080fd5b6106b18461062c565b92506106bf6020850161062c565b915060408401356106cf8161067b565b809150509250925092565b6000602082840312156106ec57600080fd5b81516106f78161067b565b9392505050565b60006020828403121561071057600080fd5b815180151581146106f757600080fd5b634e487b7160e01b600052601160045260246000fd5b60008282101561074857610748610720565b500390565b6001600160a01b039290921682526001600160801b0316602082015260400190565b60006001600160801b038083168185168183048111821515161561079557610795610720565b0294935050505056fea26469706673582212205c37ba5edd5e20e19daad8beaa3fe5fcc2a53dfc6eb8a155d277c34e355e017564736f6c63430008090033",
  "linkReferences": {},
  "deployedLinkReferences": {}
}