{
  "_format": "hh-sol-artifact-1",
  "contractName": "StakeRepository",
  "sourceName": "contracts/companies/staking/StakeRepository.sol",
  "abi": [
    {
      "inputs": [
        {
          "internalType": "address",
          "name": "_companyContract",
          "type": "address"
        }
      ],
      "stateMutability": "nonpayable",
      "type": "constructor"
    },
    {
      "inputs": [
        {
          "internalType": "uint128",
          "name": "_amount",
          "type": "uint128"
        }
      ],
      "name": "addStakedBalance",
      "outputs": [],
      "stateMutability": "nonpayable",
      "type": "function"
    },
    {
      "inputs": [],
      "name": "counters",
      "outputs": [
        {
          "internalType": "uint64",
          "name": "placeholder",
          "type": "uint64"
        }
      ],
      "stateMutability": "view",
      "type": "function"
    },
    {
      "inputs": [],
      "name": "getRewardBalance",
      "outputs": [
        {
          "internalType": "uint128",
          "name": "",
          "type": "uint128"
        }
      ],
      "stateMutability": "view",
      "type": "function"
    },
    {
      "inputs": [],
      "name": "getStakedAmount",
      "outputs": [
        {
          "internalType": "uint128",
          "name": "",
          "type": "uint128"
        }
      ],
      "stateMutability": "view",
      "type": "function"
    },
    {
      "inputs": [
        {
          "internalType": "uint128",
          "name": "_amount",
          "type": "uint128"
        }
      ],
      "name": "withdrawReward",
      "outputs": [],
      "stateMutability": "nonpayable",
      "type": "function"
    },
    {
      "inputs": [
        {
          "internalType": "uint128",
          "name": "_amount",
          "type": "uint128"
        }
      ],
      "name": "withdrawStakedAmount",
      "outputs": [],
      "stateMutability": "nonpayable",
      "type": "function"
    }
  ],
  "bytecode": "0x608060405234801561001057600080fd5b506040516103f73803806103f783398101604081905261002f9161007c565b6001600160a01b03166000818152600160208190526040909120805460ff19169091179055600280546001600160401b0319169055600380546001600160a01b03191690911790556100ac565b60006020828403121561008e57600080fd5b81516001600160a01b03811681146100a557600080fd5b9392505050565b61033c806100bb6000396000f3fe608060405234801561001057600080fd5b50600436106100625760003560e01c80632c3a5560146100675780635e42b4551461007c578063986d8a1c146100ad578063a4e15db9146100c0578063c2201d2f146100d1578063f7210633146100e2575b600080fd5b61007a61007536600461020a565b61010f565b005b600054600160801b90046001600160801b03165b6040516001600160801b0390911681526020015b60405180910390f35b61007a6100bb36600461020a565b610153565b6000546001600160801b0316610090565b61007a6100df36600461020a565b50565b6002546100f69067ffffffffffffffff1681565b60405167ffffffffffffffff90911681526020016100a4565b60008054829190819061012c9084906001600160801b0316610250565b92506101000a8154816001600160801b0302191690836001600160801b0316021790555050565b6000606461016283605a610278565b61016c91906102a7565b9050600061017a8284610250565b60008054919250839181906101999084906001600160801b03166102db565b92506101000a8154816001600160801b0302191690836001600160801b0316021790555080600060108282829054906101000a90046001600160801b03166101e191906102db565b92506101000a8154816001600160801b0302191690836001600160801b03160217905550505050565b60006020828403121561021c57600080fd5b81356001600160801b038116811461023357600080fd5b9392505050565b634e487b7160e01b600052601160045260246000fd5b60006001600160801b03838116908316818110156102705761027061023a565b039392505050565b60006001600160801b038083168185168183048111821515161561029e5761029e61023a565b02949350505050565b60006001600160801b03808416806102cf57634e487b7160e01b600052601260045260246000fd5b92169190910492915050565b60006001600160801b038083168185168083038211156102fd576102fd61023a565b0194935050505056fea2646970667358221220a015a249d65a6e9cce2d6263d2171559b5897915dc2567a5ec6df84f8958a09b64736f6c63430008090033",
  "linkReferences": {},
  "deployedLinkReferences": {}
}