{
  "_format": "hh-sol-artifact-1",
  "contractName": "StringStake",
  "sourceName": "contracts/StringStake.sol",
  "abi": [
    {
      "inputs": [
        {
          "internalType": "contract IERC20",
          "name": "_stakingToken",
          "type": "address"
        }
      ],
      "stateMutability": "nonpayable",
      "type": "constructor"
    },
    {
      "inputs": [
        {
          "internalType": "address",
          "name": "account",
          "type": "address"
        }
      ],
      "name": "balanceOf",
      "outputs": [
        {
          "internalType": "uint256",
          "name": "",
          "type": "uint256"
        }
      ],
      "stateMutability": "view",
      "type": "function"
    },
    {
      "inputs": [
        {
          "internalType": "uint256",
          "name": "amount",
          "type": "uint256"
        }
      ],
      "name": "stake",
      "outputs": [],
      "stateMutability": "nonpayable",
      "type": "function"
    },
    {
      "inputs": [],
      "name": "stakingToken",
      "outputs": [
        {
          "internalType": "contract IERC20",
          "name": "",
          "type": "address"
        }
      ],
      "stateMutability": "view",
      "type": "function"
    },
    {
      "inputs": [
        {
          "internalType": "uint256",
          "name": "amount",
          "type": "uint256"
        }
      ],
      "name": "withdraw",
      "outputs": [],
      "stateMutability": "nonpayable",
      "type": "function"
    }
  ],
  "bytecode": "0x608060405234801561001057600080fd5b506040516104aa3803806104aa83398101604081905261002f91610059565b6001600081905580546001600160a01b0319166001600160a01b0392909216919091179055610089565b60006020828403121561006b57600080fd5b81516001600160a01b038116811461008257600080fd5b9392505050565b610412806100986000396000f3fe608060405234801561001057600080fd5b506004361061004c5760003560e01c80632e1a7d4d1461005157806370a082311461006657806372f702f3146100a2578063a694fc3a146100cd575b600080fd5b61006461005f36600461032c565b6100e0565b005b61008f610074366004610345565b6001600160a01b031660009081526002602052604090205490565b6040519081526020015b60405180910390f35b6001546100b5906001600160a01b031681565b6040516001600160a01b039091168152602001610099565b6100646100db36600461032c565b610213565b6100e86102d2565b3360009081526002602052604090205481111561015d5760405162461bcd60e51b815260206004820152602860248201527f5769746864726177616c20616d6f756e742065786365656473207374616b65646044820152672062616c616e636560c01b60648201526084015b60405180910390fd5b336000908152600260205260408120805483929061017c90849061038b565b909155505060015460405163a9059cbb60e01b8152336004820152602481018390526001600160a01b039091169063a9059cbb90604401602060405180830381600087803b1580156101cd57600080fd5b505af11580156101e1573d6000803e3d6000fd5b505050506040513d601f19601f8201168201806040525081019061020591906103a2565b506102106001600055565b50565b61021b6102d2565b6001546040516323b872dd60e01b8152336004820152306024820152604481018390526001600160a01b03909116906323b872dd90606401602060405180830381600087803b15801561026d57600080fd5b505af1158015610281573d6000803e3d6000fd5b505050506040513d601f19601f820116820180604052508101906102a591906103a2565b5033600090815260026020526040812080548392906102c59084906103c4565b9091555050600160005550565b600260005414156103255760405162461bcd60e51b815260206004820152601f60248201527f5265656e7472616e637947756172643a207265656e7472616e742063616c6c006044820152606401610154565b6002600055565b60006020828403121561033e57600080fd5b5035919050565b60006020828403121561035757600080fd5b81356001600160a01b038116811461036e57600080fd5b9392505050565b634e487b7160e01b600052601160045260246000fd5b60008282101561039d5761039d610375565b500390565b6000602082840312156103b457600080fd5b8151801515811461036e57600080fd5b600082198211156103d7576103d7610375565b50019056fea2646970667358221220bc617dd380104d1b1d3785d7a2439da9abe58f954b7eb2c9b52068da74b62a6b64736f6c63430008090033",
  "linkReferences": {},
  "deployedLinkReferences": {}
}