{
  "_format": "hh-sol-artifact-1",
  "contractName": "StringNFT",
  "sourceName": "contracts/StringNFT.sol",
  "abi": [
    {
      "inputs": [],
      "stateMutability": "nonpayable",
      "type": "constructor"
    },
    {
      "anonymous": false,
      "inputs": [
        {
          "indexed": true,
          "internalType": "address",
          "name": "owner",
          "type": "address"
        },
        {
          "indexed": true,
          "internalType": "address",
          "name": "approved",
          "type": "address"
        },
        {
          "indexed": true,
          "internalType": "uint256",
          "name": "tokenId",
          "type": "uint256"
        }
      ],
      "name": "Approval",
      "type": "event"
    },
    {
      "anonymous": false,
      "inputs": [
        {
          "indexed": true,
          "internalType": "address",
          "name": "owner",
          "type": "address"
        },
        {
          "indexed": true,
          "internalType": "address",
          "name": "operator",
          "type": "address"
        },
        {
          "indexed": false,
          "internalType": "bool",
          "name": "approved",
          "type": "bool"
        }
      ],
      "name": "ApprovalForAll",
      "type": "event"
    },
    {
      "anonymous": false,
      "inputs": [
        {
          "indexed": true,
          "internalType": "address",
          "name": "from",
          "type": "address"
        },
        {
          "indexed": true,
          "internalType": "address",
          "name": "to",
          "type": "address"
        },
        {
          "indexed": true,
          "internalType": "uint256",
          "name": "tokenId",
          "type": "uint256"
        }
      ],
      "name": "Transfer",
      "type": "event"
    },
    {
      "inputs": [
        {
          "internalType": "address",
          "name": "to",
          "type": "address"
        },
        {
          "internalType": "uint256",
          "name": "tokenId",
          "type": "uint256"
        }
      ],
      "name": "approve",
      "outputs": [],
      "stateMutability": "nonpayable",
      "type": "function"
    },
    {
      "inputs": [
        {
          "internalType": "address",
          "name": "owner",
          "type": "address"
        }
      ],
      "name": "balanceOf",
      "outputs": [
        {
          "internalType": "uint256",
          "name": "",
          "type": "uint256"
        }
      ],
      "stateMutability": "view",
      "type": "function"
    },
    {
      "inputs": [],
      "name": "buy",
      "outputs": [],
      "stateMutability": "nonpayable",
      "type": "function"
    },
    {
      "inputs": [
        {
          "internalType": "address",
          "name": "_sender",
          "type": "address"
        }
      ],
      "name": "createToken",
      "outputs": [
        {
          "internalType": "uint128",
          "name": "",
          "type": "uint128"
        }
      ],
      "stateMutability": "nonpayable",
      "type": "function"
    },
    {
      "inputs": [
        {
          "internalType": "uint256",
          "name": "tokenId",
          "type": "uint256"
        }
      ],
      "name": "exists",
      "outputs": [
        {
          "internalType": "bool",
          "name": "",
          "type": "bool"
        }
      ],
      "stateMutability": "view",
      "type": "function"
    },
    {
      "inputs": [
        {
          "internalType": "uint256",
          "name": "tokenId",
          "type": "uint256"
        }
      ],
      "name": "getApproved",
      "outputs": [
        {
          "internalType": "address",
          "name": "",
          "type": "address"
        }
      ],
      "stateMutability": "view",
      "type": "function"
    },
    {
      "inputs": [
        {
          "internalType": "address",
          "name": "owner",
          "type": "address"
        },
        {
          "internalType": "address",
          "name": "operator",
          "type": "address"
        }
      ],
      "name": "isApprovedForAll",
      "outputs": [
        {
          "internalType": "bool",
          "name": "",
          "type": "bool"
        }
      ],
      "stateMutability": "view",
      "type": "function"
    },
    {
      "inputs": [],
      "name": "name",
      "outputs": [
        {
          "internalType": "string",
          "name": "",
          "type": "string"
        }
      ],
      "stateMutability": "view",
      "type": "function"
    },
    {
      "inputs": [
        {
          "internalType": "uint256",
          "name": "tokenId",
          "type": "uint256"
        }
      ],
      "name": "ownerOf",
      "outputs": [
        {
          "internalType": "address",
          "name": "",
          "type": "address"
        }
      ],
      "stateMutability": "view",
      "type": "function"
    },
    {
      "inputs": [
        {
          "internalType": "address",
          "name": "from",
          "type": "address"
        },
        {
          "internalType": "address",
          "name": "to",
          "type": "address"
        },
        {
          "internalType": "uint256",
          "name": "tokenId",
          "type": "uint256"
        }
      ],
      "name": "safeTransferFrom",
      "outputs": [],
      "stateMutability": "nonpayable",
      "type": "function"
    },
    {
      "inputs": [
        {
          "internalType": "address",
          "name": "from",
          "type": "address"
        },
        {
          "internalType": "address",
          "name": "to",
          "type": "address"
        },
        {
          "internalType": "uint256",
          "name": "tokenId",
          "type": "uint256"
        },
        {
          "internalType": "bytes",
          "name": "data",
          "type": "bytes"
        }
      ],
      "name": "safeTransferFrom",
      "outputs": [],
      "stateMutability": "nonpayable",
      "type": "function"
    },
    {
      "inputs": [
        {
          "internalType": "address",
          "name": "operator",
          "type": "address"
        },
        {
          "internalType": "bool",
          "name": "approved",
          "type": "bool"
        }
      ],
      "name": "setApprovalForAll",
      "outputs": [],
      "stateMutability": "nonpayable",
      "type": "function"
    },
    {
      "inputs": [
        {
          "internalType": "bytes4",
          "name": "interfaceId",
          "type": "bytes4"
        }
      ],
      "name": "supportsInterface",
      "outputs": [
        {
          "internalType": "bool",
          "name": "",
          "type": "bool"
        }
      ],
      "stateMutability": "view",
      "type": "function"
    },
    {
      "inputs": [],
      "name": "symbol",
      "outputs": [
        {
          "internalType": "string",
          "name": "",
          "type": "string"
        }
      ],
      "stateMutability": "view",
      "type": "function"
    },
    {
      "inputs": [
        {
          "internalType": "uint256",
          "name": "tokenId",
          "type": "uint256"
        }
      ],
      "name": "tokenURI",
      "outputs": [
        {
          "internalType": "string",
          "name": "",
          "type": "string"
        }
      ],
      "stateMutability": "view",
      "type": "function"
    },
    {
      "inputs": [
        {
          "internalType": "address",
          "name": "from",
          "type": "address"
        },
        {
          "internalType": "address",
          "name": "to",
          "type": "address"
        },
        {
          "internalType": "uint256",
          "name": "tokenId",
          "type": "uint256"
        }
      ],
      "name": "transferFrom",
      "outputs": [],
      "stateMutability": "nonpayable",
      "type": "function"
    }
  ],
  "bytecode": "0x6080604052600680546001600160801b03191690553480156200002157600080fd5b50604080518082018252600981526814dd1c9a5b99d3919560ba1b60208083019182528351808501909452600684526514d51493919560d21b908401528151919291620000719160009162000090565b5080516200008790600190602084019062000090565b50505062000173565b8280546200009e9062000136565b90600052602060002090601f016020900481019282620000c257600085556200010d565b82601f10620000dd57805160ff19168380011785556200010d565b828001600101855582156200010d579182015b828111156200010d578251825591602001919060010190620000f0565b506200011b9291506200011f565b5090565b5b808211156200011b576000815560010162000120565b600181811c908216806200014b57607f821691505b602082108114156200016d57634e487b7160e01b600052602260045260246000fd5b50919050565b6113be80620001836000396000f3fe608060405234801561001057600080fd5b50600436106101005760003560e01c806370a0823111610097578063b88d4fde11610066578063b88d4fde1461020a578063c21ab7f91461021d578063c87b56dd14610248578063e985e9c51461025b57600080fd5b806370a08231146101ce57806395d89b41146101ef578063a22cb465146101f7578063a6f2ae3a1461018057600080fd5b806323b872dd116100d357806323b872dd1461018257806342842e0e146101955780634f558e79146101a85780636352211e146101bb57600080fd5b806301ffc9a71461010557806306fdde031461012d578063081812fc14610142578063095ea7b31461016d575b600080fd5b610118610113366004610f11565b610297565b60405190151581526020015b60405180910390f35b6101356102e9565b6040516101249190610f86565b610155610150366004610f99565b61037b565b6040516001600160a01b039091168152602001610124565b61018061017b366004610fce565b6103a2565b005b610180610190366004610ff8565b6104bd565b6101806101a3366004610ff8565b6104ee565b6101186101b6366004610f99565b610509565b6101556101c9366004610f99565b610528565b6101e16101dc366004611034565b610588565b604051908152602001610124565b61013561060e565b61018061020536600461104f565b61061d565b6101806102183660046110a1565b61062c565b61023061022b366004611034565b610664565b6040516001600160801b039091168152602001610124565b610135610256366004610f99565b6106c5565b61011861026936600461117d565b6001600160a01b03918216600090815260056020908152604080832093909416825291909152205460ff1690565b60006001600160e01b031982166380ac58cd60e01b14806102c857506001600160e01b03198216635b5e139f60e01b145b806102e357506301ffc9a760e01b6001600160e01b03198316145b92915050565b6060600080546102f8906111b0565b80601f0160208091040260200160405190810160405280929190818152602001828054610324906111b0565b80156103715780601f1061034657610100808354040283529160200191610371565b820191906000526020600020905b81548152906001019060200180831161035457829003601f168201915b5050505050905090565b600061038682610739565b506000908152600460205260409020546001600160a01b031690565b60006103ad82610528565b9050806001600160a01b0316836001600160a01b031614156104205760405162461bcd60e51b815260206004820152602160248201527f4552433732313a20617070726f76616c20746f2063757272656e74206f776e656044820152603960f91b60648201526084015b60405180910390fd5b336001600160a01b038216148061043c575061043c8133610269565b6104ae5760405162461bcd60e51b815260206004820152603d60248201527f4552433732313a20617070726f76652063616c6c6572206973206e6f7420746f60448201527f6b656e206f776e6572206f7220617070726f76656420666f7220616c6c0000006064820152608401610417565b6104b8838361079b565b505050565b6104c73382610809565b6104e35760405162461bcd60e51b8152600401610417906111eb565b6104b8838383610888565b6104b88383836040518060200160405280600081525061062c565b6000818152600260205260408120546001600160a01b031615156102e3565b6000818152600260205260408120546001600160a01b0316806102e35760405162461bcd60e51b8152602060048201526018602482015277115490cdcc8c4e881a5b9d985b1a59081d1bdad95b88125160421b6044820152606401610417565b60006001600160a01b0382166105f25760405162461bcd60e51b815260206004820152602960248201527f4552433732313a2061646472657373207a65726f206973206e6f7420612076616044820152683634b21037bbb732b960b91b6064820152608401610417565b506001600160a01b031660009081526003602052604090205490565b6060600180546102f8906111b0565b6106283383836109ec565b5050565b6106363383610809565b6106525760405162461bcd60e51b8152600401610417906111eb565b61065e84848484610abb565b50505050565b6006805460009160019183906106849084906001600160801b0316611238565b82546101009290920a6001600160801b038181021990931691831602179091556006546106b49250849116610aee565b50506006546001600160801b031690565b60606106d082610739565b60006106e760408051602081019091526000815290565b905060008151116107075760405180602001604052806000815250610732565b8061071184610c79565b604051602001610722929190611271565b6040516020818303038152906040525b9392505050565b6000818152600260205260409020546001600160a01b03166107985760405162461bcd60e51b8152602060048201526018602482015277115490cdcc8c4e881a5b9d985b1a59081d1bdad95b88125160421b6044820152606401610417565b50565b600081815260046020526040902080546001600160a01b0319166001600160a01b03841690811790915581906107d082610528565b6001600160a01b03167f8c5be1e5ebec7d5bd14f71427d1e84f3dd0314c0f7b2291e5b200ac8c7c3b92560405160405180910390a45050565b60008061081583610528565b9050806001600160a01b0316846001600160a01b0316148061085c57506001600160a01b0380821660009081526005602090815260408083209388168352929052205460ff165b806108805750836001600160a01b03166108758461037b565b6001600160a01b0316145b949350505050565b826001600160a01b031661089b82610528565b6001600160a01b0316146108c15760405162461bcd60e51b815260040161041790611297565b6001600160a01b0382166109235760405162461bcd60e51b8152602060048201526024808201527f4552433732313a207472616e7366657220746f20746865207a65726f206164646044820152637265737360e01b6064820152608401610417565b826001600160a01b031661093682610528565b6001600160a01b03161461095c5760405162461bcd60e51b815260040161041790611297565b600081815260046020908152604080832080546001600160a01b03199081169091556001600160a01b0387811680865260038552838620805460001901905590871680865283862080546001019055868652600290945282852080549092168417909155905184937fddf252ad1be2c89b69c2b068fc378daa952ba7f163c4a11628f55a4df523b3ef91a4505050565b816001600160a01b0316836001600160a01b03161415610a4e5760405162461bcd60e51b815260206004820152601960248201527f4552433732313a20617070726f766520746f2063616c6c6572000000000000006044820152606401610417565b6001600160a01b03838116600081815260056020908152604080832094871680845294825291829020805460ff191686151590811790915591519182527f17307eab39ab6107e8899845ad3d59bd9653f200f220920489ca2b5937696c31910160405180910390a3505050565b610ac6848484610888565b610ad284848484610d16565b61065e5760405162461bcd60e51b8152600401610417906112dc565b6001600160a01b038216610b445760405162461bcd60e51b815260206004820181905260248201527f4552433732313a206d696e7420746f20746865207a65726f20616464726573736044820152606401610417565b6000818152600260205260409020546001600160a01b031615610ba95760405162461bcd60e51b815260206004820152601c60248201527f4552433732313a20746f6b656e20616c7265616479206d696e746564000000006044820152606401610417565b6000818152600260205260409020546001600160a01b031615610c0e5760405162461bcd60e51b815260206004820152601c60248201527f4552433732313a20746f6b656e20616c7265616479206d696e746564000000006044820152606401610417565b6001600160a01b038216600081815260036020908152604080832080546001019055848352600290915280822080546001600160a01b0319168417905551839291907fddf252ad1be2c89b69c2b068fc378daa952ba7f163c4a11628f55a4df523b3ef908290a45050565b60606000610c8683610e23565b600101905060008167ffffffffffffffff811115610ca657610ca661108b565b6040519080825280601f01601f191660200182016040528015610cd0576020820181803683370190505b5090508181016020015b600019016f181899199a1a9b1b9c1cb0b131b232b360811b600a86061a8153600a8504945084610d0957610d0e565b610cda565b509392505050565b60006001600160a01b0384163b15610e1857604051630a85bd0160e11b81526001600160a01b0385169063150b7a0290610d5a90339089908890889060040161132e565b602060405180830381600087803b158015610d7457600080fd5b505af1925050508015610da4575060408051601f3d908101601f19168201909252610da19181019061136b565b60015b610dfe573d808015610dd2576040519150601f19603f3d011682016040523d82523d6000602084013e610dd7565b606091505b508051610df65760405162461bcd60e51b8152600401610417906112dc565b805181602001fd5b6001600160e01b031916630a85bd0160e11b149050610880565b506001949350505050565b60008072184f03e93ff9f4daa797ed6e38ed64bf6a1f0160401b8310610e625772184f03e93ff9f4daa797ed6e38ed64bf6a1f0160401b830492506040015b6d04ee2d6d415b85acef81000000008310610e8e576d04ee2d6d415b85acef8100000000830492506020015b662386f26fc100008310610eac57662386f26fc10000830492506010015b6305f5e1008310610ec4576305f5e100830492506008015b6127108310610ed857612710830492506004015b60648310610eea576064830492506002015b600a83106102e35760010192915050565b6001600160e01b03198116811461079857600080fd5b600060208284031215610f2357600080fd5b813561073281610efb565b60005b83811015610f49578181015183820152602001610f31565b8381111561065e5750506000910152565b60008151808452610f72816020860160208601610f2e565b601f01601f19169290920160200192915050565b6020815260006107326020830184610f5a565b600060208284031215610fab57600080fd5b5035919050565b80356001600160a01b0381168114610fc957600080fd5b919050565b60008060408385031215610fe157600080fd5b610fea83610fb2565b946020939093013593505050565b60008060006060848603121561100d57600080fd5b61101684610fb2565b925061102460208501610fb2565b9150604084013590509250925092565b60006020828403121561104657600080fd5b61073282610fb2565b6000806040838503121561106257600080fd5b61106b83610fb2565b91506020830135801515811461108057600080fd5b809150509250929050565b634e487b7160e01b600052604160045260246000fd5b600080600080608085870312156110b757600080fd5b6110c085610fb2565b93506110ce60208601610fb2565b925060408501359150606085013567ffffffffffffffff808211156110f257600080fd5b818701915087601f83011261110657600080fd5b8135818111156111185761111861108b565b604051601f8201601f19908116603f011681019083821181831017156111405761114061108b565b816040528281528a602084870101111561115957600080fd5b82602086016020830137600060208483010152809550505050505092959194509250565b6000806040838503121561119057600080fd5b61119983610fb2565b91506111a760208401610fb2565b90509250929050565b600181811c908216806111c457607f821691505b602082108114156111e557634e487b7160e01b600052602260045260246000fd5b50919050565b6020808252602d908201527f4552433732313a2063616c6c6572206973206e6f7420746f6b656e206f776e6560408201526c1c881bdc88185c1c1c9bdd9959609a1b606082015260800190565b60006001600160801b0380831681851680830382111561126857634e487b7160e01b600052601160045260246000fd5b01949350505050565b60008351611283818460208801610f2e565b835190830190611268818360208801610f2e565b60208082526025908201527f4552433732313a207472616e736665722066726f6d20696e636f72726563742060408201526437bbb732b960d91b606082015260800190565b60208082526032908201527f4552433732313a207472616e7366657220746f206e6f6e20455243373231526560408201527131b2b4bb32b91034b6b83632b6b2b73a32b960711b606082015260800190565b6001600160a01b038581168252841660208201526040810183905260806060820181905260009061136190830184610f5a565b9695505050505050565b60006020828403121561137d57600080fd5b815161073281610efb56fea2646970667358221220e52b3a08e3dada960d0ad3d171afc7bdbd2cc6edbf120e4b5133ba3859dc53db64736f6c63430008090033",
  "linkReferences": {},
  "deployedLinkReferences": {}
}