{
  "_format": "hh-sol-artifact-1",
  "contractName": "StringNFT",
  "sourceName": "contracts/_String.sol",
  "abi": [
    {
      "inputs": [],
      "stateMutability": "nonpayable",
      "type": "constructor"
    },
    {
      "inputs": [],
      "name": "MintTooMuchError",
      "type": "error"
    },
    {
      "inputs": [],
      "name": "NeceNiOvo",
      "type": "error"
    },
    {
      "inputs": [],
      "name": "NotAuthorized",
      "type": "error"
    },
    {
      "inputs": [],
      "name": "ProductDoesntExist",
      "type": "error"
    },
    {
      "anonymous": false,
      "inputs": [
        {
          "indexed": true,
          "internalType": "address",
          "name": "owner",
          "type": "address"
        },
        {
          "indexed": true,
          "internalType": "address",
          "name": "approved",
          "type": "address"
        },
        {
          "indexed": true,
          "internalType": "uint256",
          "name": "tokenId",
          "type": "uint256"
        }
      ],
      "name": "Approval",
      "type": "event"
    },
    {
      "anonymous": false,
      "inputs": [
        {
          "indexed": true,
          "internalType": "address",
          "name": "owner",
          "type": "address"
        },
        {
          "indexed": true,
          "internalType": "address",
          "name": "operator",
          "type": "address"
        },
        {
          "indexed": false,
          "internalType": "bool",
          "name": "approved",
          "type": "bool"
        }
      ],
      "name": "ApprovalForAll",
      "type": "event"
    },
    {
      "anonymous": false,
      "inputs": [
        {
          "components": [
            {
              "internalType": "string",
              "name": "name",
              "type": "string"
            },
            {
              "internalType": "address[]",
              "name": "employees",
              "type": "address[]"
            },
            {
              "internalType": "uint32[]",
              "name": "products",
              "type": "uint32[]"
            },
            {
              "internalType": "uint32",
              "name": "productCount",
              "type": "uint32"
            },
            {
              "internalType": "bool",
              "name": "exists",
              "type": "bool"
            }
          ],
          "indexed": false,
          "internalType": "struct StringModel.Company",
          "name": "company",
          "type": "tuple"
        }
      ],
      "name": "CompanyData",
      "type": "event"
    },
    {
      "anonymous": false,
      "inputs": [
        {
          "indexed": true,
          "internalType": "address",
          "name": "previousOwner",
          "type": "address"
        },
        {
          "indexed": true,
          "internalType": "address",
          "name": "newOwner",
          "type": "address"
        }
      ],
      "name": "OwnershipTransferred",
      "type": "event"
    },
    {
      "anonymous": false,
      "inputs": [
        {
          "indexed": true,
          "internalType": "address",
          "name": "from",
          "type": "address"
        },
        {
          "indexed": true,
          "internalType": "address",
          "name": "to",
          "type": "address"
        },
        {
          "indexed": true,
          "internalType": "uint256",
          "name": "tokenId",
          "type": "uint256"
        }
      ],
      "name": "Transfer",
      "type": "event"
    },
    {
      "inputs": [],
      "name": "MAX_MINT_AMOUNT",
      "outputs": [
        {
          "internalType": "uint16",
          "name": "",
          "type": "uint16"
        }
      ],
      "stateMutability": "view",
      "type": "function"
    },
    {
      "inputs": [
        {
          "internalType": "string",
          "name": "_companyName",
          "type": "string"
        }
      ],
      "name": "addCompany",
      "outputs": [],
      "stateMutability": "nonpayable",
      "type": "function"
    },
    {
      "inputs": [
        {
          "internalType": "uint16",
          "name": "_companyId",
          "type": "uint16"
        },
        {
          "internalType": "address",
          "name": "_employeeAddress",
          "type": "address"
        },
        {
          "internalType": "uint8",
          "name": "_permissions",
          "type": "uint8"
        }
      ],
      "name": "addEmployeeToCompany",
      "outputs": [],
      "stateMutability": "nonpayable",
      "type": "function"
    },
    {
      "inputs": [
        {
          "internalType": "uint16",
          "name": "_companyId",
          "type": "uint16"
        },
        {
          "internalType": "string",
          "name": "_productName",
          "type": "string"
        },
        {
          "internalType": "string",
          "name": "_metadata",
          "type": "string"
        }
      ],
      "name": "addProductToCompany",
      "outputs": [],
      "stateMutability": "nonpayable",
      "type": "function"
    },
    {
      "inputs": [
        {
          "internalType": "address",
          "name": "to",
          "type": "address"
        },
        {
          "internalType": "uint256",
          "name": "tokenId",
          "type": "uint256"
        }
      ],
      "name": "approve",
      "outputs": [],
      "stateMutability": "nonpayable",
      "type": "function"
    },
    {
      "inputs": [
        {
          "internalType": "address",
          "name": "owner",
          "type": "address"
        }
      ],
      "name": "balanceOf",
      "outputs": [
        {
          "internalType": "uint256",
          "name": "",
          "type": "uint256"
        }
      ],
      "stateMutability": "view",
      "type": "function"
    },
    {
      "inputs": [
        {
          "internalType": "address",
          "name": "to",
          "type": "address"
        },
        {
          "internalType": "uint256[]",
          "name": "tokenIds",
          "type": "uint256[]"
        }
      ],
      "name": "bulkTransfer",
      "outputs": [],
      "stateMutability": "nonpayable",
      "type": "function"
    },
    {
      "inputs": [
        {
          "internalType": "uint32",
          "name": "_tokenId",
          "type": "uint32"
        }
      ],
      "name": "burn",
      "outputs": [],
      "stateMutability": "nonpayable",
      "type": "function"
    },
    {
      "inputs": [],
      "name": "counters",
      "outputs": [
        {
          "internalType": "uint16",
          "name": "companyCount",
          "type": "uint16"
        },
        {
          "internalType": "uint32",
          "name": "productCount",
          "type": "uint32"
        },
        {
          "internalType": "uint16",
          "name": "employeeCount",
          "type": "uint16"
        },
        {
          "internalType": "uint64",
          "name": "tokenIdCount",
          "type": "uint64"
        }
      ],
      "stateMutability": "view",
      "type": "function"
    },
    {
      "inputs": [],
      "name": "getAllCompanies",
      "outputs": [
        {
          "components": [
            {
              "internalType": "string",
              "name": "name",
              "type": "string"
            },
            {
              "internalType": "address[]",
              "name": "employees",
              "type": "address[]"
            },
            {
              "internalType": "uint32[]",
              "name": "products",
              "type": "uint32[]"
            },
            {
              "internalType": "uint32",
              "name": "productCount",
              "type": "uint32"
            },
            {
              "internalType": "bool",
              "name": "exists",
              "type": "bool"
            }
          ],
          "internalType": "struct StringModel.Company[]",
          "name": "",
          "type": "tuple[]"
        }
      ],
      "stateMutability": "view",
      "type": "function"
    },
    {
      "inputs": [
        {
          "internalType": "uint16",
          "name": "_companyId",
          "type": "uint16"
        }
      ],
      "name": "getAllEmployeesInCompany",
      "outputs": [
        {
          "components": [
            {
              "internalType": "address",
              "name": "employeeAddress",
              "type": "address"
            },
            {
              "internalType": "uint16",
              "name": "companyId",
              "type": "uint16"
            },
            {
              "internalType": "uint8",
              "name": "level",
              "type": "uint8"
            }
          ],
          "internalType": "struct StringModel.Employee[]",
          "name": "",
          "type": "tuple[]"
        }
      ],
      "stateMutability": "view",
      "type": "function"
    },
    {
      "inputs": [
        {
          "internalType": "uint16",
          "name": "_companyId",
          "type": "uint16"
        }
      ],
      "name": "getAllProducts",
      "outputs": [
        {
          "components": [
            {
              "internalType": "string",
              "name": "name",
              "type": "string"
            },
            {
              "internalType": "string",
              "name": "metadata",
              "type": "string"
            },
            {
              "internalType": "uint64[]",
              "name": "productTokens",
              "type": "uint64[]"
            },
            {
              "internalType": "bool",
              "name": "exists",
              "type": "bool"
            }
          ],
          "internalType": "struct StringModel.Product[]",
          "name": "",
          "type": "tuple[]"
        }
      ],
      "stateMutability": "view",
      "type": "function"
    },
    {
      "inputs": [
        {
          "internalType": "uint256",
          "name": "tokenId",
          "type": "uint256"
        }
      ],
      "name": "getApproved",
      "outputs": [
        {
          "internalType": "address",
          "name": "",
          "type": "address"
        }
      ],
      "stateMutability": "view",
      "type": "function"
    },
    {
      "inputs": [
        {
          "internalType": "uint16",
          "name": "_companyId",
          "type": "uint16"
        }
      ],
      "name": "getCompanyById",
      "outputs": [
        {
          "components": [
            {
              "internalType": "string",
              "name": "name",
              "type": "string"
            },
            {
              "internalType": "address[]",
              "name": "employees",
              "type": "address[]"
            },
            {
              "internalType": "uint32[]",
              "name": "products",
              "type": "uint32[]"
            },
            {
              "internalType": "uint32",
              "name": "productCount",
              "type": "uint32"
            },
            {
              "internalType": "bool",
              "name": "exists",
              "type": "bool"
            }
          ],
          "internalType": "struct StringModel.Company",
          "name": "",
          "type": "tuple"
        }
      ],
      "stateMutability": "view",
      "type": "function"
    },
    {
      "inputs": [
        {
          "internalType": "address",
          "name": "_employeeAddress",
          "type": "address"
        }
      ],
      "name": "getEmployee",
      "outputs": [
        {
          "components": [
            {
              "internalType": "address",
              "name": "employeeAddress",
              "type": "address"
            },
            {
              "internalType": "uint16",
              "name": "companyId",
              "type": "uint16"
            },
            {
              "internalType": "uint8",
              "name": "level",
              "type": "uint8"
            }
          ],
          "internalType": "struct StringModel.Employee",
          "name": "",
          "type": "tuple"
        }
      ],
      "stateMutability": "view",
      "type": "function"
    },
    {
      "inputs": [
        {
          "internalType": "uint64",
          "name": "_productId",
          "type": "uint64"
        }
      ],
      "name": "getProduct",
      "outputs": [
        {
          "components": [
            {
              "internalType": "string",
              "name": "name",
              "type": "string"
            },
            {
              "internalType": "string",
              "name": "metadata",
              "type": "string"
            },
            {
              "internalType": "uint64[]",
              "name": "productTokens",
              "type": "uint64[]"
            },
            {
              "internalType": "bool",
              "name": "exists",
              "type": "bool"
            }
          ],
          "internalType": "struct StringModel.Product",
          "name": "",
          "type": "tuple"
        }
      ],
      "stateMutability": "view",
      "type": "function"
    },
    {
      "inputs": [
        {
          "internalType": "address",
          "name": "owner",
          "type": "address"
        },
        {
          "internalType": "address",
          "name": "operator",
          "type": "address"
        }
      ],
      "name": "isApprovedForAll",
      "outputs": [
        {
          "internalType": "bool",
          "name": "",
          "type": "bool"
        }
      ],
      "stateMutability": "view",
      "type": "function"
    },
    {
      "inputs": [
        {
          "internalType": "uint32",
          "name": "_productId",
          "type": "uint32"
        }
      ],
      "name": "mint",
      "outputs": [],
      "stateMutability": "nonpayable",
      "type": "function"
    },
    {
      "inputs": [
        {
          "internalType": "uint64",
          "name": "_productId",
          "type": "uint64"
        },
        {
          "internalType": "uint16",
          "name": "amount",
          "type": "uint16"
        }
      ],
      "name": "mintBulk",
      "outputs": [],
      "stateMutability": "nonpayable",
      "type": "function"
    },
    {
      "inputs": [],
      "name": "name",
      "outputs": [
        {
          "internalType": "string",
          "name": "",
          "type": "string"
        }
      ],
      "stateMutability": "view",
      "type": "function"
    },
    {
      "inputs": [],
      "name": "owner",
      "outputs": [
        {
          "internalType": "address",
          "name": "",
          "type": "address"
        }
      ],
      "stateMutability": "view",
      "type": "function"
    },
    {
      "inputs": [
        {
          "internalType": "uint256",
          "name": "tokenId",
          "type": "uint256"
        }
      ],
      "name": "ownerOf",
      "outputs": [
        {
          "internalType": "address",
          "name": "",
          "type": "address"
        }
      ],
      "stateMutability": "view",
      "type": "function"
    },
    {
      "inputs": [
        {
          "internalType": "uint16",
          "name": "_companyId",
          "type": "uint16"
        }
      ],
      "name": "removeCompany",
      "outputs": [],
      "stateMutability": "nonpayable",
      "type": "function"
    },
    {
      "inputs": [
        {
          "internalType": "address",
          "name": "_employeeAddress",
          "type": "address"
        }
      ],
      "name": "removeEmployee",
      "outputs": [],
      "stateMutability": "nonpayable",
      "type": "function"
    },
    {
      "inputs": [
        {
          "internalType": "uint64",
          "name": "_productId",
          "type": "uint64"
        }
      ],
      "name": "removeProduct",
      "outputs": [],
      "stateMutability": "nonpayable",
      "type": "function"
    },
    {
      "inputs": [],
      "name": "renounceOwnership",
      "outputs": [],
      "stateMutability": "nonpayable",
      "type": "function"
    },
    {
      "inputs": [
        {
          "internalType": "address",
          "name": "from",
          "type": "address"
        },
        {
          "internalType": "address",
          "name": "to",
          "type": "address"
        },
        {
          "internalType": "uint256",
          "name": "tokenId",
          "type": "uint256"
        }
      ],
      "name": "safeTransferFrom",
      "outputs": [],
      "stateMutability": "nonpayable",
      "type": "function"
    },
    {
      "inputs": [
        {
          "internalType": "address",
          "name": "from",
          "type": "address"
        },
        {
          "internalType": "address",
          "name": "to",
          "type": "address"
        },
        {
          "internalType": "uint256",
          "name": "tokenId",
          "type": "uint256"
        },
        {
          "internalType": "bytes",
          "name": "data",
          "type": "bytes"
        }
      ],
      "name": "safeTransferFrom",
      "outputs": [],
      "stateMutability": "nonpayable",
      "type": "function"
    },
    {
      "inputs": [
        {
          "internalType": "address",
          "name": "operator",
          "type": "address"
        },
        {
          "internalType": "bool",
          "name": "approved",
          "type": "bool"
        }
      ],
      "name": "setApprovalForAll",
      "outputs": [],
      "stateMutability": "nonpayable",
      "type": "function"
    },
    {
      "inputs": [
        {
          "internalType": "bytes4",
          "name": "interfaceId",
          "type": "bytes4"
        }
      ],
      "name": "supportsInterface",
      "outputs": [
        {
          "internalType": "bool",
          "name": "",
          "type": "bool"
        }
      ],
      "stateMutability": "view",
      "type": "function"
    },
    {
      "inputs": [],
      "name": "symbol",
      "outputs": [
        {
          "internalType": "string",
          "name": "",
          "type": "string"
        }
      ],
      "stateMutability": "view",
      "type": "function"
    },
    {
      "inputs": [
        {
          "internalType": "uint256",
          "name": "index",
          "type": "uint256"
        }
      ],
      "name": "tokenByIndex",
      "outputs": [
        {
          "internalType": "uint256",
          "name": "",
          "type": "uint256"
        }
      ],
      "stateMutability": "view",
      "type": "function"
    },
    {
      "inputs": [
        {
          "internalType": "address",
          "name": "owner",
          "type": "address"
        },
        {
          "internalType": "uint256",
          "name": "index",
          "type": "uint256"
        }
      ],
      "name": "tokenOfOwnerByIndex",
      "outputs": [
        {
          "internalType": "uint256",
          "name": "",
          "type": "uint256"
        }
      ],
      "stateMutability": "view",
      "type": "function"
    },
    {
      "inputs": [
        {
          "internalType": "uint256",
          "name": "tokenId",
          "type": "uint256"
        }
      ],
      "name": "tokenURI",
      "outputs": [
        {
          "internalType": "string",
          "name": "",
          "type": "string"
        }
      ],
      "stateMutability": "view",
      "type": "function"
    },
    {
      "inputs": [],
      "name": "totalSupply",
      "outputs": [
        {
          "internalType": "uint256",
          "name": "",
          "type": "uint256"
        }
      ],
      "stateMutability": "view",
      "type": "function"
    },
    {
      "inputs": [
        {
          "internalType": "address",
          "name": "from",
          "type": "address"
        },
        {
          "internalType": "address",
          "name": "to",
          "type": "address"
        },
        {
          "internalType": "uint256",
          "name": "tokenId",
          "type": "uint256"
        }
      ],
      "name": "transferFrom",
      "outputs": [],
      "stateMutability": "nonpayable",
      "type": "function"
    },
    {
      "inputs": [
        {
          "internalType": "address",
          "name": "newOwner",
          "type": "address"
        }
      ],
      "name": "transferOwnership",
      "outputs": [],
      "stateMutability": "nonpayable",
      "type": "function"
    },
    {
      "inputs": [
        {
          "internalType": "address",
          "name": "to",
          "type": "address"
        },
        {
          "internalType": "uint256",
          "name": "_tokenId",
          "type": "uint256"
        }
      ],
      "name": "transferTo",
      "outputs": [],
      "stateMutability": "nonpayable",
      "type": "function"
    },
    {
      "inputs": [
        {
          "internalType": "address",
          "name": "targetWallet",
          "type": "address"
        }
      ],
      "name": "walletOfOwner",
      "outputs": [
        {
          "internalType": "uint256[]",
          "name": "",
          "type": "uint256[]"
        }
      ],
      "stateMutability": "view",
      "type": "function"
    }
  ],
  "bytecode": "0x60806040523480156200001157600080fd5b50604080518082018252600981526814dd1c9a5b99d3919560ba1b602080830191909152825180840190935260048084526314d3919560e21b9184019190915280546001600160801b0319169055906200006b336200009f565b815162000080906006906020850190620000f1565b50805162000096906007906020840190620000f1565b505050620001d4565b600580546001600160a01b038381166001600160a01b0319831681179093556040519116919082907f8be0079c531659141344cd1fd0a4f28419497f9722a3daafe3b4186f6b6457e090600090a35050565b828054620000ff9062000197565b90600052602060002090601f0160209004810192826200012357600085556200016e565b82601f106200013e57805160ff19168380011785556200016e565b828001600101855582156200016e579182015b828111156200016e57825182559160200191906001019062000151565b506200017c92915062000180565b5090565b5b808211156200017c576000815560010162000181565b600181811c90821680620001ac57607f821691505b60208210811415620001ce57634e487b7160e01b600052602260045260246000fd5b50919050565b6155bf80620001e46000396000f3fe608060405234801561001057600080fd5b506004361061023d5760003560e01c80637a5984c41161013b578063d108177a116100b8578063e985e9c51161007c578063e985e9c51461058e578063f2fde38b146105ca578063f7210633146105dd578063fa9b70181461064e578063fc4f19191461066a57600080fd5b8063d108177a14610522578063d28a476114610535578063d309047d14610548578063d6483d171461055b578063e904394c1461056e57600080fd5b8063a71bbebe116100ff578063a71bbebe146104b6578063b88d4fde146104c9578063bcf0d4c6146104dc578063c87b56dd146104fc578063ce037d821461050f57600080fd5b80637a5984c4146104645780637dcac47b146104775780638da5cb5b1461048a57806395d89b411461049b578063a22cb465146104a357600080fd5b806332648e09116101c95780634f6ccce71161018d5780634f6ccce7146104035780636352211e1461041657806370a0823114610429578063715018a61461043c57806377a36d741461044457600080fd5b806332648e091461031d578063408bf4c31461039b57806342842e0e146103b0578063438b6300146103c357806345242a1f146103e357600080fd5b806318160ddd1161021057806318160ddd146102bf57806323b872dd146102d1578063269f9eb0146102e45780632ccb1b30146102f75780632f745c591461030a57600080fd5b806301ffc9a71461024257806306fdde031461026a578063081812fc1461027f578063095ea7b3146102aa575b600080fd5b610255610250366004614a33565b61067d565b60405190151581526020015b60405180910390f35b6102726106a8565b6040516102619190614aa8565b61029261028d366004614abb565b61073a565b6040516001600160a01b039091168152602001610261565b6102bd6102b8366004614af0565b610761565b005b600e545b604051908152602001610261565b6102bd6102df366004614b1a565b61087c565b6102bd6102f2366004614c25565b6108ad565b6102bd610305366004614af0565b610e39565b6102c3610318366004614af0565b6110e3565b61038e61032b366004614c98565b6040805160608082018352600080835260208084018290529284018190526001600160a01b0394851681526001835283902083519182018452549384168152600160a01b840461ffff1691810191909152600160b01b90920460ff169082015290565b6040516102619190614cb3565b6103a3611179565b6040516102619190614dce565b6102bd6103be366004614b1a565b611415565b6103d66103d1366004614c98565b611430565b6040516102619190614e30565b6103f66103f1366004614e74565b6114d1565b6040516102619190614e8f565b6102c3610411366004614abb565b6116ca565b610292610424366004614abb565b61175d565b6102c3610437366004614c98565b6117bd565b6102bd611843565b610457610452366004614e74565b611857565b6040516102619190614f36565b6102bd610472366004614f8b565b611cf4565b6102bd610485366004614fc8565b611d06565b6005546001600160a01b0316610292565b61027261205f565b6102bd6104b1366004614ffb565b61206e565b6102bd6104c4366004614f8b565b61207d565b6102bd6104d7366004615037565b6124c4565b6104ef6104ea366004614e74565b6124f6565b60405161026191906150b2565b61027261050a366004614abb565b6127f1565b6102bd61051d366004614e74565b612865565b6102bd610530366004614c98565b6128e9565b6102bd610543366004615118565b612c39565b6102bd6105563660046151d0565b612f45565b6102bd61056936600461521d565b61339d565b61058161057c36600461528e565b6134df565b60405161026191906152a9565b61025561059c3660046152bc565b6001600160a01b039182166000908152600b6020908152604080832093909416825291909152205460ff1690565b6102bd6105d8366004614c98565b6136f3565b6004546106149061ffff8082169162010000810463ffffffff1691600160301b82041690600160401b90046001600160401b031684565b6040805161ffff958616815263ffffffff94909416602085015291909316908201526001600160401b039091166060820152608001610261565b6106576103e881565b60405161ffff9091168152602001610261565b6102bd61067836600461528e565b613769565b60006001600160e01b0319821663780e9d6360e01b14806106a257506106a282613b0d565b92915050565b6060600680546106b7906152e6565b80601f01602080910402602001604051908101604052809291908181526020018280546106e3906152e6565b80156107305780601f1061070557610100808354040283529160200191610730565b820191906000526020600020905b81548152906001019060200180831161071357829003601f168201915b5050505050905090565b600061074582613b5d565b506000908152600a60205260409020546001600160a01b031690565b600061076c8261175d565b9050806001600160a01b0316836001600160a01b031614156107df5760405162461bcd60e51b815260206004820152602160248201527f4552433732313a20617070726f76616c20746f2063757272656e74206f776e656044820152603960f91b60648201526084015b60405180910390fd5b336001600160a01b03821614806107fb57506107fb813361059c565b61086d5760405162461bcd60e51b815260206004820152603d60248201527f4552433732313a20617070726f76652063616c6c6572206973206e6f7420746f60448201527f6b656e206f776e6572206f7220617070726f76656420666f7220616c6c00000060648201526084016107d6565b6108778383613bbc565b505050565b6108863382613c2a565b6108a25760405162461bcd60e51b81526004016107d69061531b565b610877838383613ca9565b60016108c16005546001600160a01b031690565b6001600160a01b0316336001600160a01b03161415610a59576004805462010000900463ffffffff169060026108f68361537e565b91906101000a81548163ffffffff021916908363ffffffff16021790555050604051806080016040528084815260200183815260200160006001600160401b0381111561094557610945614b68565b60405190808252806020026020018201604052801561096e578160200160208202803683370190505b508152600160209182015260045462010000900463ffffffff16600090815260028252604090208251805191926109aa92849290910190614741565b5060208281015180516109c39260018501920190614741565b50604082015180516109df9160028401916020909101906147c5565b50606091909101516003909101805491151560ff1990921691909117905561ffff841660009081526020818152604082206004805460029092018054600181018255908552929093206008830401805460079093169093026101000a63ffffffff6201000090920482168102910219909116179055610cbb565b33600090815260016020908152604091829020825160608101845290546001600160a01b0381168252600160a01b810461ffff16928201839052600160b01b900460ff16928101929092521580610ab957508160ff16816040015160ff16105b15610ad75760405163ea8e4eb560e01b815260040160405180910390fd5b60208082015161ffff166000908152908190526040808220815160a08101909252805482908290610b07906152e6565b80601f0160208091040260200160405190810160405280929190818152602001828054610b33906152e6565b8015610b805780601f10610b5557610100808354040283529160200191610b80565b820191906000526020600020905b815481529060010190602001808311610b6357829003601f168201915b5050505050815260200160018201805480602002602001604051908101604052809291908181526020018280548015610be257602002820191906000526020600020905b81546001600160a01b03168152600190910190602001808311610bc4575b5050505050815260200160028201805480602002602001604051908101604052809291908181526020018280548015610c6657602002820191906000526020600020906000905b82829054906101000a900463ffffffff1663ffffffff1681526020019060040190602082600301049283019260010382029150808411610c295790505b50505091835250506003919091015463ffffffff81166020830152600160201b900460ff1615156040909101526080810151909150610cb85760405163eaa236ed60e01b815260040160405180910390fd5b50505b6004805462010000900463ffffffff16906002610cd78361537e565b91906101000a81548163ffffffff021916908363ffffffff16021790555050604051806080016040528084815260200183815260200160006001600160401b03811115610d2657610d26614b68565b604051908082528060200260200182016040528015610d4f578160200160208202803683370190505b508152600160209182015260045462010000900463ffffffff1660009081526002825260409020825180519192610d8b92849290910190614741565b506020828101518051610da49260018501920190614741565b5060408201518051610dc09160028401916020909101906147c5565b50606091909101516003909101805491151560ff1990921691909117905550505061ffff1660009081526020818152604082206004805460029092018054600181018255908552929093206008830401805460079093169093026101000a63ffffffff6201000090920482168102910219909116179055565b6000610e4d6005546001600160a01b031690565b6001600160a01b0316336001600160a01b03161415610e7657610e7133848461087c565b6110d8565b33600090815260016020908152604091829020825160608101845290546001600160a01b0381168252600160a01b810461ffff16928201839052600160b01b900460ff16928101929092521580610ed657508160ff16816040015160ff16105b15610ef45760405163ea8e4eb560e01b815260040160405180910390fd5b60208082015161ffff166000908152908190526040808220815160a08101909252805482908290610f24906152e6565b80601f0160208091040260200160405190810160405280929190818152602001828054610f50906152e6565b8015610f9d5780601f10610f7257610100808354040283529160200191610f9d565b820191906000526020600020905b815481529060010190602001808311610f8057829003601f168201915b5050505050815260200160018201805480602002602001604051908101604052809291908181526020018280548015610fff57602002820191906000526020600020905b81546001600160a01b03168152600190910190602001808311610fe1575b505050505081526020016002820180548060200260200160405190810160405280929190818152602001828054801561108357602002820191906000526020600020906000905b82829054906101000a900463ffffffff1663ffffffff16815260200190600401906020826003010492830192600103820291508084116110465790505b50505091835250506003919091015463ffffffff81166020830152600160201b900460ff16151560409091015260808101519091506110d55760405163eaa236ed60e01b815260040160405180910390fd5b50505b61087733848461087c565b60006110ee836117bd565b82106111505760405162461bcd60e51b815260206004820152602b60248201527f455243373231456e756d657261626c653a206f776e657220696e646578206f7560448201526a74206f6620626f756e647360a81b60648201526084016107d6565b506001600160a01b03919091166000908152600c60209081526040808320938352929052205490565b60045460609060009061ffff166001600160401b0381111561119d5761119d614b68565b60405190808252806020026020018201604052801561120857816020015b6111f56040518060a00160405280606081526020016060815260200160608152602001600063ffffffff1681526020016000151581525090565b8152602001906001900390816111bb5790505b50905060005b60045461ffff908116908216101561140f5761ffff811660009081526020819052604090819020815160a0810190925280548290829061124d906152e6565b80601f0160208091040260200160405190810160405280929190818152602001828054611279906152e6565b80156112c65780601f1061129b576101008083540402835291602001916112c6565b820191906000526020600020905b8154815290600101906020018083116112a957829003601f168201915b505050505081526020016001820180548060200260200160405190810160405280929190818152602001828054801561132857602002820191906000526020600020905b81546001600160a01b0316815260019091019060200180831161130a575b50505050508152602001600282018054806020026020016040519081016040528092919081815260200182805480156113ac57602002820191906000526020600020906000905b82829054906101000a900463ffffffff1663ffffffff168152602001906004019060208260030104928301926001038202915080841161136f5790505b50505091835250506003919091015463ffffffff81166020830152600160201b900460ff1615156040909101528251839061ffff84169081106113f1576113f16153a2565b60200260200101819052508080611407906153b8565b91505061120e565b50919050565b610877838383604051806020016040528060008152506124c4565b6060600061143d836117bd565b90506000816001600160401b0381111561145957611459614b68565b604051908082528060200260200182016040528015611482578160200160208202803683370190505b50905060005b828110156114c95761149a85826110e3565b8282815181106114ac576114ac6153a2565b6020908102919091010152806114c1816153d0565b915050611488565b509392505050565b61150b6040518060a00160405280606081526020016060815260200160608152602001600063ffffffff1681526020016000151581525090565b61ffff8216600090815260208190526040808220815160a08101909252805482908290611537906152e6565b80601f0160208091040260200160405190810160405280929190818152602001828054611563906152e6565b80156115b05780601f10611585576101008083540402835291602001916115b0565b820191906000526020600020905b81548152906001019060200180831161159357829003601f168201915b505050505081526020016001820180548060200260200160405190810160405280929190818152602001828054801561161257602002820191906000526020600020905b81546001600160a01b031681526001909101906020018083116115f4575b505050505081526020016002820180548060200260200160405190810160405280929190818152602001828054801561169657602002820191906000526020600020906000905b82829054906101000a900463ffffffff1663ffffffff16815260200190600401906020826003010492830192600103820291508084116116595790505b50505091835250506003919091015463ffffffff81166020830152600160201b900460ff1615156040909101529392505050565b60006116d5600e5490565b82106117385760405162461bcd60e51b815260206004820152602c60248201527f455243373231456e756d657261626c653a20676c6f62616c20696e646578206f60448201526b7574206f6620626f756e647360a01b60648201526084016107d6565b600e828154811061174b5761174b6153a2565b90600052602060002001549050919050565b6000818152600860205260408120546001600160a01b0316806106a25760405162461bcd60e51b8152602060048201526018602482015277115490cdcc8c4e881a5b9d985b1a59081d1bdad95b88125160421b60448201526064016107d6565b60006001600160a01b0382166118275760405162461bcd60e51b815260206004820152602960248201527f4552433732313a2061646472657373207a65726f206973206e6f7420612076616044820152683634b21037bbb732b960b91b60648201526084016107d6565b506001600160a01b031660009081526009602052604090205490565b61184b613e1a565b6118556000613e74565b565b606060008060008461ffff1661ffff1681526020019081526020016000206040518060a0016040529081600082018054611890906152e6565b80601f01602080910402602001604051908101604052809291908181526020018280546118bc906152e6565b80156119095780601f106118de57610100808354040283529160200191611909565b820191906000526020600020905b8154815290600101906020018083116118ec57829003601f168201915b505050505081526020016001820180548060200260200160405190810160405280929190818152602001828054801561196b57602002820191906000526020600020905b81546001600160a01b0316815260019091019060200180831161194d575b50505050508152602001600282018054806020026020016040519081016040528092919081815260200182805480156119ef57602002820191906000526020600020906000905b82829054906101000a900463ffffffff1663ffffffff16815260200190600401906020826003010492830192600103820291508084116119b25790505b50505091835250506003919091015463ffffffff8082166020840152600160201b90910460ff161515604090920191909152600454919250600091620100009004166001600160401b03811115611a4857611a48614b68565b604051908082528060200260200182016040528015611aa657816020015b611a9360405180608001604052806060815260200160608152602001606081526020016000151581525090565b815260200190600190039081611a665790505b50905060005b8260400151518110156114c9576002600084604001518381518110611ad357611ad36153a2565b602002602001015163ffffffff166001600160401b03168152602001908152602001600020604051806080016040529081600082018054611b13906152e6565b80601f0160208091040260200160405190810160405280929190818152602001828054611b3f906152e6565b8015611b8c5780601f10611b6157610100808354040283529160200191611b8c565b820191906000526020600020905b815481529060010190602001808311611b6f57829003601f168201915b50505050508152602001600182018054611ba5906152e6565b80601f0160208091040260200160405190810160405280929190818152602001828054611bd1906152e6565b8015611c1e5780601f10611bf357610100808354040283529160200191611c1e565b820191906000526020600020905b815481529060010190602001808311611c0157829003601f168201915b5050505050815260200160028201805480602002602001604051908101604052809291908181526020018280548015611ca857602002820191906000526020600020906000905b82829054906101000a90046001600160401b03166001600160401b031681526020019060080190602082600701049283019260010382029150808411611c655790505b50505091835250506003919091015460ff1615156020909101528251839083908110611cd657611cd66153a2565b60200260200101819052508080611cec906153d0565b915050611aac565b611d038163ffffffff16613ec6565b50565b6002611d1a6005546001600160a01b031690565b6001600160a01b0316336001600160a01b03161415611d98576103e861ffff83161115611d5a57604051634b09724f60e01b815260040160405180910390fd5b60005b8261ffff168161ffff161015611d9257611d8033856001600160401b0316613f69565b80611d8a816153b8565b915050611d5d565b50611ffa565b33600090815260016020908152604091829020825160608101845290546001600160a01b0381168252600160a01b810461ffff16928201839052600160b01b900460ff16928101929092521580611df857508160ff16816040015160ff16105b15611e165760405163ea8e4eb560e01b815260040160405180910390fd5b60208082015161ffff166000908152908190526040808220815160a08101909252805482908290611e46906152e6565b80601f0160208091040260200160405190810160405280929190818152602001828054611e72906152e6565b8015611ebf5780601f10611e9457610100808354040283529160200191611ebf565b820191906000526020600020905b815481529060010190602001808311611ea257829003601f168201915b5050505050815260200160018201805480602002602001604051908101604052809291908181526020018280548015611f2157602002820191906000526020600020905b81546001600160a01b03168152600190910190602001808311611f03575b5050505050815260200160028201805480602002602001604051908101604052809291908181526020018280548015611fa557602002820191906000526020600020906000905b82829054906101000a900463ffffffff1663ffffffff1681526020019060040190602082600301049283019260010382029150808411611f685790505b50505091835250506003919091015463ffffffff81166020830152600160201b900460ff1615156040909101526080810151909150611ff75760405163eaa236ed60e01b815260040160405180910390fd5b50505b6103e861ffff8316111561202157604051634b09724f60e01b815260040160405180910390fd5b60005b8261ffff168161ffff1610156120595761204733856001600160401b0316613f69565b80612051816153b8565b915050612024565b50505050565b6060600780546106b7906152e6565b612079338383614102565b5050565b60026120916005546001600160a01b031690565b6001600160a01b0316336001600160a01b031614156121895760048054600160401b90046001600160401b03169060086120ca836153eb565b82546001600160401b039182166101009390930a92830291909202199091161790555063ffffffff82166000908152600260205260409020600381015460ff166121275760405163c1e86d0360e01b815260040160405180910390fd5b600480546002830180546001810182556000918252602090912083820401805460039092166008026101000a6001600160401b03600160401b948590048116820291810219909316179055915461218392339290910416613f69565b506123eb565b33600090815260016020908152604091829020825160608101845290546001600160a01b0381168252600160a01b810461ffff16928201839052600160b01b900460ff169281019290925215806121e957508160ff16816040015160ff16105b156122075760405163ea8e4eb560e01b815260040160405180910390fd5b60208082015161ffff166000908152908190526040808220815160a08101909252805482908290612237906152e6565b80601f0160208091040260200160405190810160405280929190818152602001828054612263906152e6565b80156122b05780601f10612285576101008083540402835291602001916122b0565b820191906000526020600020905b81548152906001019060200180831161229357829003601f168201915b505050505081526020016001820180548060200260200160405190810160405280929190818152602001828054801561231257602002820191906000526020600020905b81546001600160a01b031681526001909101906020018083116122f4575b505050505081526020016002820180548060200260200160405190810160405280929190818152602001828054801561239657602002820191906000526020600020906000905b82829054906101000a900463ffffffff1663ffffffff16815260200190600401906020826003010492830192600103820291508084116123595790505b50505091835250506003919091015463ffffffff81166020830152600160201b900460ff16151560409091015260808101519091506123e85760405163eaa236ed60e01b815260040160405180910390fd5b50505b60048054600160401b90046001600160401b031690600861240b836153eb565b82546001600160401b039182166101009390930a92830291909202199091161790555063ffffffff82166000908152600260205260409020600381015460ff166124685760405163c1e86d0360e01b815260040160405180910390fd5b600480546002830180546001810182556000918252602090912083820401805460039092166008026101000a6001600160401b03600160401b948590048116820291810219909316179055915461087792339290910416613f69565b6124ce3383613c2a565b6124ea5760405162461bcd60e51b81526004016107d69061531b565b612059848484846141d1565b600454606090600090600160301b900461ffff166001600160401b0381111561252157612521614b68565b60405190808252806020026020018201604052801561256c57816020015b604080516060810182526000808252602080830182905292820152825260001990920191018161253f5790505b50905060008060008561ffff1661ffff1681526020019081526020016000206040518060a00160405290816000820180546125a6906152e6565b80601f01602080910402602001604051908101604052809291908181526020018280546125d2906152e6565b801561261f5780601f106125f45761010080835404028352916020019161261f565b820191906000526020600020905b81548152906001019060200180831161260257829003601f168201915b505050505081526020016001820180548060200260200160405190810160405280929190818152602001828054801561268157602002820191906000526020600020905b81546001600160a01b03168152600190910190602001808311612663575b505050505081526020016002820180548060200260200160405190810160405280929190818152602001828054801561270557602002820191906000526020600020906000905b82829054906101000a900463ffffffff1663ffffffff16815260200190600401906020826003010492830192600103820291508084116126c85790505b50505091835250506003919091015463ffffffff81166020830152600160201b900460ff161515604090910152905060005b8160200151518110156127e857600160008360200151838151811061275e5761275e6153a2565b6020908102919091018101516001600160a01b039081168352828201939093526040918201600020825160608101845290549384168152600160a01b840461ffff1691810191909152600160b01b90920460ff169082015283518490839081106127ca576127ca6153a2565b602002602001018190525080806127e0906153d0565b915050612737565b50909392505050565b60606127fc82613b5d565b600061281360408051602081019091526000815290565b90506000815111612833576040518060200160405280600081525061285e565b8061283d84614204565b60405160200161284e929190615408565b6040516020818303038152906040525b9392505050565b61286d613e1a565b61ffff811660009081526020819052604081209061288b8282614878565b6128996001830160006148b2565b6128a76002830160006148d0565b50600301805464ffffffffff191690556004805461ffff169060006128cb83615437565b91906101000a81548161ffff021916908361ffff1602179055505050565b60036128fd6005546001600160a01b031690565b6001600160a01b0316336001600160a01b03161415612977576001600160a01b038216600090815260016020526040902080546001600160b81b031916905560048054600160301b900461ffff1690600661295783615437565b91906101000a81548161ffff021916908361ffff16021790555050612bd9565b33600090815260016020908152604091829020825160608101845290546001600160a01b0381168252600160a01b810461ffff16928201839052600160b01b900460ff169281019290925215806129d757508160ff16816040015160ff16105b156129f55760405163ea8e4eb560e01b815260040160405180910390fd5b60208082015161ffff166000908152908190526040808220815160a08101909252805482908290612a25906152e6565b80601f0160208091040260200160405190810160405280929190818152602001828054612a51906152e6565b8015612a9e5780601f10612a7357610100808354040283529160200191612a9e565b820191906000526020600020905b815481529060010190602001808311612a8157829003601f168201915b5050505050815260200160018201805480602002602001604051908101604052809291908181526020018280548015612b0057602002820191906000526020600020905b81546001600160a01b03168152600190910190602001808311612ae2575b5050505050815260200160028201805480602002602001604051908101604052809291908181526020018280548015612b8457602002820191906000526020600020906000905b82829054906101000a900463ffffffff1663ffffffff1681526020019060040190602082600301049283019260010382029150808411612b475790505b50505091835250506003919091015463ffffffff81166020830152600160201b900460ff1615156040909101526080810151909150612bd65760405163eaa236ed60e01b815260040160405180910390fd5b50505b6001600160a01b038216600090815260016020526040902080546001600160b81b031916905560048054600160301b900461ffff16906006612c1a83615437565b91906101000a81548161ffff021916908361ffff160217905550505050565b6000612c4d6005546001600160a01b031690565b6001600160a01b0316336001600160a01b03161415612cae5760005b8251811015612ca857612c963385858481518110612c8957612c896153a2565b602002602001015161087c565b80612ca0816153d0565b915050612c69565b50612f10565b33600090815260016020908152604091829020825160608101845290546001600160a01b0381168252600160a01b810461ffff16928201839052600160b01b900460ff16928101929092521580612d0e57508160ff16816040015160ff16105b15612d2c5760405163ea8e4eb560e01b815260040160405180910390fd5b60208082015161ffff166000908152908190526040808220815160a08101909252805482908290612d5c906152e6565b80601f0160208091040260200160405190810160405280929190818152602001828054612d88906152e6565b8015612dd55780601f10612daa57610100808354040283529160200191612dd5565b820191906000526020600020905b815481529060010190602001808311612db857829003601f168201915b5050505050815260200160018201805480602002602001604051908101604052809291908181526020018280548015612e3757602002820191906000526020600020905b81546001600160a01b03168152600190910190602001808311612e19575b5050505050815260200160028201805480602002602001604051908101604052809291908181526020018280548015612ebb57602002820191906000526020600020906000905b82829054906101000a900463ffffffff1663ffffffff1681526020019060040190602082600301049283019260010382029150808411612e7e5790505b50505091835250506003919091015463ffffffff81166020830152600160201b900460ff1615156040909101526080810151909150612f0d5760405163eaa236ed60e01b815260040160405180910390fd5b50505b60005b825181101561205957612f333385858481518110612c8957612c896153a2565b80612f3d816153d0565b915050612f13565b6003612f596005546001600160a01b031690565b6001600160a01b0316336001600160a01b031614156130585760048054600160301b900461ffff16906006612f8d836153b8565b82546101009290920a61ffff818102199093169183160217909155604080516060810182526001600160a01b03878116808352898516602080850182815260ff8b8116878901908152600086815260018086528a822099518a549551935199166001600160b01b031990951694909417600160a01b92909b16919091029990991760ff60b01b1916600160b01b96909116959095029490941790945585528483529284208101805491820181558452922090910180546001600160a01b0319169091179055506132ba565b33600090815260016020908152604091829020825160608101845290546001600160a01b0381168252600160a01b810461ffff16928201839052600160b01b900460ff169281019290925215806130b857508160ff16816040015160ff16105b156130d65760405163ea8e4eb560e01b815260040160405180910390fd5b60208082015161ffff166000908152908190526040808220815160a08101909252805482908290613106906152e6565b80601f0160208091040260200160405190810160405280929190818152602001828054613132906152e6565b801561317f5780601f106131545761010080835404028352916020019161317f565b820191906000526020600020905b81548152906001019060200180831161316257829003601f168201915b50505050508152602001600182018054806020026020016040519081016040528092919081815260200182805480156131e157602002820191906000526020600020905b81546001600160a01b031681526001909101906020018083116131c3575b505050505081526020016002820180548060200260200160405190810160405280929190818152602001828054801561326557602002820191906000526020600020906000905b82829054906101000a900463ffffffff1663ffffffff16815260200190600401906020826003010492830192600103820291508084116132285790505b50505091835250506003919091015463ffffffff81166020830152600160201b900460ff16151560409091015260808101519091506132b75760405163eaa236ed60e01b815260040160405180910390fd5b50505b60048054600160301b900461ffff169060066132d5836153b8565b825461ffff9182166101009390930a928302928202191691909117909155604080516060810182526001600160a01b03968716808252978316602080830182815260ff98891684860190815260008c815260018085528782209651875494519351909c16600160b01b0260ff60b01b1993909916600160a01b026001600160b01b03199094169b909c169a909a1791909117169490941790915585528482528420850180549586018155845290922090920180546001600160a01b0319169093179092555050565b6133a5613e1a565b6004805461ffff169060006133b9836153b8565b91906101000a81548161ffff021916908361ffff160217905550506040518060a0016040528083838080601f01602080910402602001604051908101604052809392919081815260200183838082843760009201829052509385525050604080518381526020808201835280860191909152815184815280820183528286015260608501849052600160809095019490945260045461ffff16835282845290912083518051919361346f93508492910190614741565b50602082810151805161348892600185019201906148f5565b50604082015180516134a491600284019160209091019061494a565b506060820151600390910180546080909301511515600160201b0264ffffffffff1990931663ffffffff909216919091179190911790555050565b61350c60405180608001604052806060815260200160608152602001606081526020016000151581525090565b6001600160401b03821660009081526002602052604080822081516080810190925280548290829061353d906152e6565b80601f0160208091040260200160405190810160405280929190818152602001828054613569906152e6565b80156135b65780601f1061358b576101008083540402835291602001916135b6565b820191906000526020600020905b81548152906001019060200180831161359957829003601f168201915b505050505081526020016001820180546135cf906152e6565b80601f01602080910402602001604051908101604052809291908181526020018280546135fb906152e6565b80156136485780601f1061361d57610100808354040283529160200191613648565b820191906000526020600020905b81548152906001019060200180831161362b57829003601f168201915b50505050508152602001600282018054806020026020016040519081016040528092919081815260200182805480156136d257602002820191906000526020600020906000905b82829054906101000a90046001600160401b03166001600160401b03168152602001906008019060208260070104928301926001038202915080841161368f5790505b50505091835250506003919091015460ff1615156020909101529392505050565b6136fb613e1a565b6001600160a01b0381166137605760405162461bcd60e51b815260206004820152602660248201527f4f776e61626c653a206e6577206f776e657220697320746865207a65726f206160448201526564647265737360d01b60648201526084016107d6565b611d0381613e74565b600161377d6005546001600160a01b031690565b6001600160a01b0316336001600160a01b03161415613821576001600160401b0382166000908152600260205260408120906137b98282614878565b6137c7600183016000614878565b6137d56002830160006149e7565b50600301805460ff191690556004805462010000900463ffffffff169060026137fd83615455565b91906101000a81548163ffffffff021916908363ffffffff16021790555050613a83565b33600090815260016020908152604091829020825160608101845290546001600160a01b0381168252600160a01b810461ffff16928201839052600160b01b900460ff1692810192909252158061388157508160ff16816040015160ff16105b1561389f5760405163ea8e4eb560e01b815260040160405180910390fd5b60208082015161ffff166000908152908190526040808220815160a081019092528054829082906138cf906152e6565b80601f01602080910402602001604051908101604052809291908181526020018280546138fb906152e6565b80156139485780601f1061391d57610100808354040283529160200191613948565b820191906000526020600020905b81548152906001019060200180831161392b57829003601f168201915b50505050508152602001600182018054806020026020016040519081016040528092919081815260200182805480156139aa57602002820191906000526020600020905b81546001600160a01b0316815260019091019060200180831161398c575b5050505050815260200160028201805480602002602001604051908101604052809291908181526020018280548015613a2e57602002820191906000526020600020906000905b82829054906101000a900463ffffffff1663ffffffff16815260200190600401906020826003010492830192600103820291508084116139f15790505b50505091835250506003919091015463ffffffff81166020830152600160201b900460ff1615156040909101526080810151909150613a805760405163eaa236ed60e01b815260040160405180910390fd5b50505b6001600160401b038216600090815260026020526040812090613aa68282614878565b613ab4600183016000614878565b613ac26002830160006149e7565b50600301805460ff191690556004805462010000900463ffffffff16906002613aea83615455565b91906101000a81548163ffffffff021916908363ffffffff160217905550505050565b60006001600160e01b031982166380ac58cd60e01b1480613b3e57506001600160e01b03198216635b5e139f60e01b145b806106a257506301ffc9a760e01b6001600160e01b03198316146106a2565b6000818152600860205260409020546001600160a01b0316611d035760405162461bcd60e51b8152602060048201526018602482015277115490cdcc8c4e881a5b9d985b1a59081d1bdad95b88125160421b60448201526064016107d6565b6000818152600a6020526040902080546001600160a01b0319166001600160a01b0384169081179091558190613bf18261175d565b6001600160a01b03167f8c5be1e5ebec7d5bd14f71427d1e84f3dd0314c0f7b2291e5b200ac8c7c3b92560405160405180910390a45050565b600080613c368361175d565b9050806001600160a01b0316846001600160a01b03161480613c7d57506001600160a01b038082166000908152600b602090815260408083209388168352929052205460ff165b80613ca15750836001600160a01b0316613c968461073a565b6001600160a01b0316145b949350505050565b826001600160a01b0316613cbc8261175d565b6001600160a01b031614613ce25760405162461bcd60e51b81526004016107d69061546b565b6001600160a01b038216613d445760405162461bcd60e51b8152602060048201526024808201527f4552433732313a207472616e7366657220746f20746865207a65726f206164646044820152637265737360e01b60648201526084016107d6565b613d518383836001614298565b826001600160a01b0316613d648261175d565b6001600160a01b031614613d8a5760405162461bcd60e51b81526004016107d69061546b565b6000818152600a6020908152604080832080546001600160a01b03199081169091556001600160a01b0387811680865260098552838620805460001901905590871680865283862080546001019055868652600890945282852080549092168417909155905184937fddf252ad1be2c89b69c2b068fc378daa952ba7f163c4a11628f55a4df523b3ef91a4505050565b6005546001600160a01b031633146118555760405162461bcd60e51b815260206004820181905260248201527f4f776e61626c653a2063616c6c6572206973206e6f7420746865206f776e657260448201526064016107d6565b600580546001600160a01b038381166001600160a01b0319831681179093556040519116919082907f8be0079c531659141344cd1fd0a4f28419497f9722a3daafe3b4186f6b6457e090600090a35050565b6000613ed18261175d565b9050613ee1816000846001614298565b613eea8261175d565b6000838152600a6020908152604080832080546001600160a01b03199081169091556001600160a01b0385168085526009845282852080546000190190558785526008909352818420805490911690555192935084927fddf252ad1be2c89b69c2b068fc378daa952ba7f163c4a11628f55a4df523b3ef908390a45050565b6001600160a01b038216613fbf5760405162461bcd60e51b815260206004820181905260248201527f4552433732313a206d696e7420746f20746865207a65726f206164647265737360448201526064016107d6565b6000818152600860205260409020546001600160a01b0316156140245760405162461bcd60e51b815260206004820152601c60248201527f4552433732313a20746f6b656e20616c7265616479206d696e7465640000000060448201526064016107d6565b614032600083836001614298565b6000818152600860205260409020546001600160a01b0316156140975760405162461bcd60e51b815260206004820152601c60248201527f4552433732313a20746f6b656e20616c7265616479206d696e7465640000000060448201526064016107d6565b6001600160a01b038216600081815260096020908152604080832080546001019055848352600890915280822080546001600160a01b0319168417905551839291907fddf252ad1be2c89b69c2b068fc378daa952ba7f163c4a11628f55a4df523b3ef908290a45050565b816001600160a01b0316836001600160a01b031614156141645760405162461bcd60e51b815260206004820152601960248201527f4552433732313a20617070726f766520746f2063616c6c65720000000000000060448201526064016107d6565b6001600160a01b038381166000818152600b6020908152604080832094871680845294825291829020805460ff191686151590811790915591519182527f17307eab39ab6107e8899845ad3d59bd9653f200f220920489ca2b5937696c31910160405180910390a3505050565b6141dc848484613ca9565b6141e8848484846143cc565b6120595760405162461bcd60e51b81526004016107d6906154b0565b60606000614211836144d9565b60010190506000816001600160401b0381111561423057614230614b68565b6040519080825280601f01601f19166020018201604052801561425a576020820181803683370190505b5090508181016020015b600019016f181899199a1a9b1b9c1cb0b131b232b360811b600a86061a8153600a8504945084614293576114c9565b614264565b60018111156143075760405162461bcd60e51b815260206004820152603560248201527f455243373231456e756d657261626c653a20636f6e7365637574697665207472604482015274185b9cd9995c9cc81b9bdd081cdd5c1c1bdc9d1959605a1b60648201526084016107d6565b816001600160a01b0385166143635761435e81600e80546000838152600f60205260408120829055600182018355919091527fbb7b4a454dc3493923482f07822329ed19e8244eff582cc204f8554c3620c3fd0155565b614386565b836001600160a01b0316856001600160a01b0316146143865761438685826145b1565b6001600160a01b0384166143a25761439d8161464e565b6143c5565b846001600160a01b0316846001600160a01b0316146143c5576143c584826146fd565b5050505050565b60006001600160a01b0384163b156144ce57604051630a85bd0160e11b81526001600160a01b0385169063150b7a0290614410903390899088908890600401615502565b602060405180830381600087803b15801561442a57600080fd5b505af192505050801561445a575060408051601f3d908101601f191682019092526144579181019061553f565b60015b6144b4573d808015614488576040519150601f19603f3d011682016040523d82523d6000602084013e61448d565b606091505b5080516144ac5760405162461bcd60e51b81526004016107d6906154b0565b805181602001fd5b6001600160e01b031916630a85bd0160e11b149050613ca1565b506001949350505050565b60008072184f03e93ff9f4daa797ed6e38ed64bf6a1f0160401b83106145185772184f03e93ff9f4daa797ed6e38ed64bf6a1f0160401b830492506040015b6d04ee2d6d415b85acef81000000008310614544576d04ee2d6d415b85acef8100000000830492506020015b662386f26fc10000831061456257662386f26fc10000830492506010015b6305f5e100831061457a576305f5e100830492506008015b612710831061458e57612710830492506004015b606483106145a0576064830492506002015b600a83106106a25760010192915050565b600060016145be846117bd565b6145c8919061555c565b6000838152600d602052604090205490915080821461461b576001600160a01b0384166000908152600c602090815260408083208584528252808320548484528184208190558352600d90915290208190555b506000918252600d602090815260408084208490556001600160a01b039094168352600c81528383209183525290812055565b600e546000906146609060019061555c565b6000838152600f6020526040812054600e8054939450909284908110614688576146886153a2565b9060005260206000200154905080600e83815481106146a9576146a96153a2565b6000918252602080832090910192909255828152600f9091526040808220849055858252812055600e8054806146e1576146e1615573565b6001900381819060005260206000200160009055905550505050565b6000614708836117bd565b6001600160a01b039093166000908152600c602090815260408083208684528252808320859055938252600d9052919091209190915550565b82805461474d906152e6565b90600052602060002090601f01602090048101928261476f57600085556147b5565b82601f1061478857805160ff19168380011785556147b5565b828001600101855582156147b5579182015b828111156147b557825182559160200191906001019061479a565b506147c1929150614a08565b5090565b828054828255906000526020600020906003016004900481019282156147b55791602002820160005b8382111561483857835183826101000a8154816001600160401b0302191690836001600160401b0316021790555092602001926008016020816007010492830192600103026147ee565b801561486b5782816101000a8154906001600160401b030219169055600801602081600701049283019260010302614838565b50506147c1929150614a08565b508054614884906152e6565b6000825580601f10614894575050565b601f016020900490600052602060002090810190611d039190614a08565b5080546000825590600052602060002090810190611d039190614a08565b508054600082556007016008900490600052602060002090810190611d039190614a08565b8280548282559060005260206000209081019282156147b5579160200282015b828111156147b557825182546001600160a01b0319166001600160a01b03909116178255602090920191600190910190614915565b828054828255906000526020600020906007016008900481019282156147b55791602002820160005b838211156149b757835183826101000a81548163ffffffff021916908363ffffffff1602179055509260200192600401602081600301049283019260010302614973565b801561486b5782816101000a81549063ffffffff02191690556004016020816003010492830192600103026149b7565b508054600082556003016004900490600052602060002090810190611d0391905b5b808211156147c15760008155600101614a09565b6001600160e01b031981168114611d0357600080fd5b600060208284031215614a4557600080fd5b813561285e81614a1d565b60005b83811015614a6b578181015183820152602001614a53565b838111156120595750506000910152565b60008151808452614a94816020860160208601614a50565b601f01601f19169290920160200192915050565b60208152600061285e6020830184614a7c565b600060208284031215614acd57600080fd5b5035919050565b80356001600160a01b0381168114614aeb57600080fd5b919050565b60008060408385031215614b0357600080fd5b614b0c83614ad4565b946020939093013593505050565b600080600060608486031215614b2f57600080fd5b614b3884614ad4565b9250614b4660208501614ad4565b9150604084013590509250925092565b803561ffff81168114614aeb57600080fd5b634e487b7160e01b600052604160045260246000fd5b604051601f8201601f191681016001600160401b0381118282101715614ba657614ba6614b68565b604052919050565b60006001600160401b03831115614bc757614bc7614b68565b614bda601f8401601f1916602001614b7e565b9050828152838383011115614bee57600080fd5b828260208301376000602084830101529392505050565b600082601f830112614c1657600080fd5b61285e83833560208501614bae565b600080600060608486031215614c3a57600080fd5b614c4384614b56565b925060208401356001600160401b0380821115614c5f57600080fd5b614c6b87838801614c05565b93506040860135915080821115614c8157600080fd5b50614c8e86828701614c05565b9150509250925092565b600060208284031215614caa57600080fd5b61285e82614ad4565b81516001600160a01b0316815260208083015161ffff169082015260408083015160ff1690820152606081016106a2565b600081518084526020808501945080840160005b83811015614d1a57815163ffffffff1687529582019590820190600101614cf8565b509495945050505050565b6000815160a08452614d3a60a0850182614a7c565b60208481015186830387830152805180845290820193509091600091908301905b80831015614d845784516001600160a01b03168252938301936001929092019190830190614d5b565b50604086015193508681036040880152614d9e8185614ce4565b93505050506060830151614dba606086018263ffffffff169052565b5060808301516114c9608086018215159052565b6000602080830181845280855180835260408601915060408160051b870101925083870160005b82811015614e2357603f19888603018452614e11858351614d25565b94509285019290850190600101614df5565b5092979650505050505050565b6020808252825182820181905260009190848201906040850190845b81811015614e6857835183529284019291840191600101614e4c565b50909695505050505050565b600060208284031215614e8657600080fd5b61285e82614b56565b60208152600061285e6020830184614d25565b6000815160808452614eb76080850182614a7c565b905060208084015185830382870152614ed08382614a7c565b604086810151888303918901919091528051808352908401945060009250908301905b80831015614f1c5784516001600160401b03168252938301936001929092019190830190614ef3565b506060860151151560608801528094505050505092915050565b6000602080830181845280855180835260408601915060408160051b870101925083870160005b82811015614e2357603f19888603018452614f79858351614ea2565b94509285019290850190600101614f5d565b600060208284031215614f9d57600080fd5b813563ffffffff8116811461285e57600080fd5b80356001600160401b0381168114614aeb57600080fd5b60008060408385031215614fdb57600080fd5b614fe483614fb1565b9150614ff260208401614b56565b90509250929050565b6000806040838503121561500e57600080fd5b61501783614ad4565b91506020830135801515811461502c57600080fd5b809150509250929050565b6000806000806080858703121561504d57600080fd5b61505685614ad4565b935061506460208601614ad4565b92506040850135915060608501356001600160401b0381111561508657600080fd5b8501601f8101871361509757600080fd5b6150a687823560208401614bae565b91505092959194509250565b6020808252825182820181905260009190848201906040850190845b81811015614e685761510583855180516001600160a01b0316825260208082015161ffff169083015260409081015160ff16910152565b92840192606092909201916001016150ce565b6000806040838503121561512b57600080fd5b61513483614ad4565b91506020808401356001600160401b038082111561515157600080fd5b818601915086601f83011261516557600080fd5b81358181111561517757615177614b68565b8060051b9150615188848301614b7e565b81815291830184019184810190898411156151a257600080fd5b938501935b838510156151c0578435825293850193908501906151a7565b8096505050505050509250929050565b6000806000606084860312156151e557600080fd5b6151ee84614b56565b92506151fc60208501614ad4565b9150604084013560ff8116811461521257600080fd5b809150509250925092565b6000806020838503121561523057600080fd5b82356001600160401b038082111561524757600080fd5b818501915085601f83011261525b57600080fd5b81358181111561526a57600080fd5b86602082850101111561527c57600080fd5b60209290920196919550909350505050565b6000602082840312156152a057600080fd5b61285e82614fb1565b60208152600061285e6020830184614ea2565b600080604083850312156152cf57600080fd5b6152d883614ad4565b9150614ff260208401614ad4565b600181811c908216806152fa57607f821691505b6020821081141561140f57634e487b7160e01b600052602260045260246000fd5b6020808252602d908201527f4552433732313a2063616c6c6572206973206e6f7420746f6b656e206f776e6560408201526c1c881bdc88185c1c1c9bdd9959609a1b606082015260800190565b634e487b7160e01b600052601160045260246000fd5b600063ffffffff8083168181141561539857615398615368565b6001019392505050565b634e487b7160e01b600052603260045260246000fd5b600061ffff8083168181141561539857615398615368565b60006000198214156153e4576153e4615368565b5060010190565b60006001600160401b038083168181141561539857615398615368565b6000835161541a818460208801614a50565b83519083019061542e818360208801614a50565b01949350505050565b600061ffff82168061544b5761544b615368565b6000190192915050565b600063ffffffff82168061544b5761544b615368565b60208082526025908201527f4552433732313a207472616e736665722066726f6d20696e636f72726563742060408201526437bbb732b960d91b606082015260800190565b60208082526032908201527f4552433732313a207472616e7366657220746f206e6f6e20455243373231526560408201527131b2b4bb32b91034b6b83632b6b2b73a32b960711b606082015260800190565b6001600160a01b038581168252841660208201526040810183905260806060820181905260009061553590830184614a7c565b9695505050505050565b60006020828403121561555157600080fd5b815161285e81614a1d565b60008282101561556e5761556e615368565b500390565b634e487b7160e01b600052603160045260246000fdfea26469706673582212209237df2fc7dc8fb02015680bbc850c729187749cb171bc18fbe5fa9012bac20a64736f6c63430008090033",
  "linkReferences": {},
  "deployedLinkReferences": {}
}